:020000040800F2
:100000000008002001C00008212501083125010851
:1000100041250108512501086125010861D3000827
:1000200061D3000861D3000861D3000861D30008E0
:1000300061D3000861D3000881E4000881F9000859
:1000400061D30008F124010861D3000861D30008DE
:1000500061D3000861D3000861D3000861D30008B0
:1000600061D3000861D3000861D3000821F40008BF
:1000700051F4000881F40008B1F40008E1F400082C
:1000800011F5000841F500085124010841FC000861
:1000900061FC000881FC0008A1FC00087124010833
:1000A000E117010861D3000861D3000861D300089B
:1000B000C124010891240108C117010861D3000877
:1000C00061D30008C1030108D104010861D300080D
:1000D00061D30008411B0108611B0108811B010855
:1000E00061D3000861D3000861D3000861D3000820
:1000F00061D3000861D3000861D3000871F50008DE
:1001000061D3000861D3000861D3000861D30008FF
:10011000A11B0108C11B010861D3000861D30008BD
:10012000A1F50008D1F5000801F6000831F6000835
:1001300061F6000861D3000861D30008C1FC000823
:10014000E1FC000801FD000821FD00087112010812
:1001500091F60008C1F60008F1F60008E11B01085D
:1001600061D3000861D3000861D3000861D300089F
:1001700061D3000861D3000861D3000861D300088F
:1001800061D3000861D3000861D3000861D300087F
:1001900061D3000861D3000861D3000861D300086F
:1001A00061D3000861D3000861D3000861D300085F
:1001B00061D3000861D3000861D3000861D300084F
:1001C0002DE9F04F2DED068B0446F9B001468B4822
:1001D0004EF056F820468A49894C6CF051FA0026B8
:1001E00038AD48B1402E08D045F826002146002001
:1001F0006CF046FA0136F4E70EB1002702E08148C0
:1002000002F08DB9389CE55D65B16AF021F92844AA
:10021000437803F00303012B389B08BF2035DD55DD
:100220000137EFE7784BDFF84C82D3F80090A9450F
:1002300011DD2B0108EB0302D76857B153F8081002
:1002400020460DF00DF820B938A93046B84702F025
:100250006DB90135EBE76D4920460DF001F850B955
:100260006B484EF00DF84FF47A7055F079F955F06F
:100270007FF902F05BB9674920460CF0F1FF38BB0B
:1002800059F086FA9FED648A60EE087A17EE900ABC
:100290000CF0C2F802460B4660484DF0F1FF54F0F6
:1002A00047FD60EE087A17EE900A0CF0B5F80246AA
:1002B0000B465B484DF0E4FF54F01AFE60EE087AFE
:1002C00017EE900A0CF0A8F802460B4655480DE0D0
:1002D000554920460CF0C4FF60B958F0F9FD10EE06
:1002E000100A0CF099F8024650480B464DF0C8FF32
:1002F00002F01CB94E4920460CF0B2FF88B91FA984
:100300000EF08EF804460EF023F8014649484DF0F1
:10031000B7FF214648484DF0B3FF1F99474802F008
:1003200003B9474920460CF09BFF002849D14548B6
:10033000454E9FED468A464D4DF0A2FF45484DF093
:100340009FFF0DF09DFC0446204663F021F8D4F891
:1003500024802A6894ED097AB36A9B1A07EE903AD2
:10036000B8EE477AF8EE677A27EE087A0746C7EEC6
:10037000277A17EE900A0CF04FF8CDE90478CDE912
:100380000601E36C0393A369029394F82020324B97
:10039000324853F82230019394F82230013B009305
:1003A000D4E9023221464DF06BFF00236362204600
:1003B0000DF076FC04460028C6D1B36A2B6002F02B
:1003C000ADB8274920460CF04BFF38B954F020F95E
:1003D00054F026F90146234802F0A6B822492046E7
:1003E0000CF03EFF0546002840F0F8801F4E3368B1
:1003F000002B41D11E4802F092B800BFFFF406085E
:100400006BF6060807F50608883000205E9B070893
:100410001CF5060831F5060800007A4443F5060885
:1004200060F5060886F50608ABF50608AEF5060881
:10043000CCF50608D0F50608ECF5060802F6060825
:100440007A0F07081FF60608381900200000C84276
:100450007C3A00206DF60608B0F40608BBF60608E4
:1004600008BE0708E28907082A0E0708783A002024
:10047000F2F606088C30002054F0CAF854F0D0F898
:1004800001469048904FDFF8CCB2DFF8CCA24DF097
:10049000F7FE8E484DF0F4FE3368AB4242F34680DF
:1004A0004FF04C0808FB05F807EB0804607854F09F
:1004B000B7F8014658464DF0E3FE17F808105046CD
:1004C0004DF0DEFE60680BF0A7FF02460B46804849
:1004D0004DF0D6FEA0680BF09FFF02460B467D480C
:1004E0004DF0CEFEE0680BF097FF02460B467A48CF
:1004F0004DF0C6FE60690BF08FFF02460B46774851
:100500004DF0BEFEA0690BF087FF02460B46744813
:100510004DF0B6FEE16973484DF0B2FE216A7248B3
:100520004DF0AEFED4ED0B7A94ED057A6F48F8EEFF
:10053000E77A67EE877AFDEEE77A17EE901A4DF0CC
:100540009FFE616A6A484DF09BFEA16A69484DF0C2
:1005500097FEE16A68484DF093FE216B67484DF0C5
:100560008FFE606B0BF058FF02460B4664484DF05F
:1005700087FEE36B6BB363491FA86BF059F9E16B1E
:100580000DF18F006BF054F9236C1BB91FA84DF0CF
:1005900077FE1EE0236C012B08D1606C0BF03CFF52
:1005A00002460B461FA84DF06BFE12E0236C022B97
:1005B0000FD1606CA46C0BF02FFF8046204689465B
:1005C0000BF02AFF4246CDE900014B461FA84DF033
:1005D00057FE4D484DF054FE01355DE74B4920462E
:1005E0000CF03EFE00285CD172B6494B5A6A149258
:1005F000484A516A1591596A16914FF08041496AEB
:1006000017911968C1F3001118911168C1F3001115
:100610001F9162B64048D3F83490D3F83880DF6B2E
:10062000DC6A566BD3F840A0956B14994DF028FE08
:1006300015993A484DF024FE179939484DF020FE9F
:10064000159A1499169B374801EB4201194402236D
:1006500091FBF3F1611A4DF013FE494632484DF01B
:100660000FFE414631484DF00BFE394630484DF003
:1006700007FE21462F484DF003FE18992E484DF0F5
:10068000FFFD1F992D484DF0FBFD31462C484DF0E4
:10069000F7FD51462B484DF0F3FD29462A4801F05D
:1006A00043BF2A4920460CF0DBFD002856D154F008
:1006B000AFF910EE100A0BF0AFFE02460B462448CD
:1006C00014E600BF16F706080C33002028F70608CA
:1006D00087F706089FF70608B7F70608CFF706085A
:1006E000E7F70608FFF7060815F806082BF80608CE
:1006F00041F8060857F806086DF8060883F806085A
:1007000099F80608B1F806086BF60608C5F8060859
:100710000000014000040140C9F80608D6F80608A8
:10072000E3F80608F0F8060803F9060813F90608C6
:1007300023F9060833F906083BF9060844F90608C8
:100740004DF9060860F9060875F906088BF90608E0
:1007500090F906085BF7060871F70608BF492046BE
:100760000CF07EFD002840F0DA80042E40F0D480AA
:10077000BB4BBC493998139313AA149315936BF090
:100780001FF814AAB7493A989FEDB78A6BF018F88A
:1007900015AAB4493B986BF013F8B4484DF070FDBE
:1007A000DDED137AF5EEC07AF1EE10FAF2EE048A7E
:1007B0006FDD53F0F5FE9DED130AD0ED007AF4EEF7
:1007C000C07AF1EE10FA64DDDDED140AF4EEE80A09
:1007D000F1EE10FA5DDDDFEDA67AF4EEE70AF1EE58
:1007E00010FA56D59DED151AB4EEC81AF1EE10FAAE
:1007F0004FDDDFEDA07AB4EEE71AF1EE10FA48D53E
:1008000018AB1FAA17A916A802F0B5F900283DD009
:1008100016980BF001FE02460B4697484DF030FD4E
:1008200017980BF0F9FD02460B4694484DF028FD51
:10083000189B0BB9924802E05F1C1CD191484DF007
:100840001FFD9DF9830004909DF9820003909DF99E
:10085000810002909DF9800001909DF97F00009039
:100860009DF97E309DF97D209DF97C1086484DF0E4
:1008700007FD01F05BBE9E1C02D1844801F04FBE13
:10088000033341F05386824801F049BE814801F0AC
:1008900046BE81484DF0F4FCDDED137AF5EEC07AEA
:1008A000F1EE10FA0ADC53F07BFE00680BF0B4FDA9
:1008B00002460B4679484DF0E3FC0AE053F070FE27
:1008C000DDED137A90ED007AB4EEE77AF1EE10FAEE
:1008D000E9DDDDED147AF4EEE87AF1EE10FA06DDEA
:1008E0009FED637AF4EEC77AF1EE10FA02D46C4809
:1008F0004DF0C6FCDDED157AF4EEC87AF1EE10FA93
:1009000007DD9FED5C7AF4EEC77AF1EE10FA01F1A3
:100910000586644801F036B8634801F000BE6349BB
:1009200020460CF09DFCC8B91FA858F041FF1F9845
:100930000BF072FD02460B465D484DF0A1FC20987D
:100940000BF06AFD02460B465A484DF099FC21987F
:100950000BF062FD02460B465748C7E45749204654
:100960000CF07EFC054600286CD1022E73D13C4B66
:100970003C493998179317AA6AF022FF61F0D0FD1D
:10098000044653F00DFE4FF435720146204669F0DF
:10099000A7FD4B484DF074FCDDED177AF5EEC07AFB
:1009A000F1EE10FA4FF0000742DD94ED007AF4EE1C
:1009B000C77AF1EE10FA3BD829F04AFA002833D072
:1009C00094F8928084F89260204656F0E1F89DED0C
:1009D000170A189716AB1FAA18A901201F978DF8A0
:1009E00058505EF065FD204684F8928056F0D0F8AD
:1009F00018980BF011FD02460B4632484DF040FCB2
:100A00001F980BF009FD02460B462F484DF038FCAD
:100A10009DF858102D4A2E4B2E4800290CBF114628
:100A200019464DF02DFC0BE02B484DF029FC07E05A
:100A300020680BF0F1FC02460B4628484DF020FCE4
:100A4000204643E2264920460CF00AFC002840F0EC
:100A5000A180022E48D0234801F061BDA5F9060807
:100A6000000080BFB2F906080AD7A33CB5F9060812
:100A700000803B45CDCC4C3FD6F90608F3F906087B
:100A800009FA060845FA060825FA060863FA060870
:100A900091FA0608C0FA0608F8FA06080CFB0608E0
:100AA00031FB060852FB060874FB0608B0FB06087B
:100AB000B8FB0608CEFB0608ECFB060807FC060898
:100AC0001AFC06082FFC06083FFC0608F5F4060889
:100AD000F0F406084FFC06085EFC060874FC0608E5
:100AE000DEFC0608AFFC0608B74BB84939981893E6
:100AF00018AA6AF065FE61F013FD044653F050FD3C
:100B00004FF435720146204669F0EAFC61F008FDB9
:100B1000054653F045FD4FF435720146284669F00D
:100B2000DFFCAB484DF0ACFBDDED187AF5EEC07A9A
:100B3000F1EE10FA25DD94ED007AF4EEC77AF1EECD
:100B400010FA1ED8204684F8926056F021F800234F
:100B50001FAA01214FF4FA609DED180A1F935EF061
:100B6000B7FF40B91F980BF057FC02460B46994857
:100B70004DF086FBA3E1C0B253F052FD014696480A
:100B800098E120680BF048FC02460B4693484DF074
:100B900077FB97E1924920460CF062FB00285CD17C
:100BA000022E71D1884B89493998169316AA6AF09A
:100BB00007FE8C484DF064FBDDED167AF5EEC07A49
:100BC000F1EE10FA46DD9FED887AF4EEC77AF1EE89
:100BD00010FA3FD861F0A4FC044653F0E1FC4FF456
:100BE00035720146204669F07BFC61F099FC0546B0
:100BF00053F0D6FC4FF435720146284669F070FC7C
:100C0000204684F8926055F0C3FF1FAB18AA17A9BD
:100C10004FF4C8709DED160A5FF01AF8A0B91F983E
:100C20000BF0FAFB064617980F460BF0F5FBCDE9E3
:100C3000020118980BF0F0FB3246CDE900013B466B
:100C40006A484DF01DFB3AE1C0B253F0E9FC0146A1
:100C500067482FE1674801F062BC674920460CF005
:100C6000FFFAA0B1654920460CF0FAFA002800F01E
:100C7000DB80634920460CF0F3FA0546002840F07B
:100C80000182022E00F026815E4801F048BC052E4C
:100C900040F097804C4B4D493998159315AA1693FF
:100CA000179318936AF08CFD16AA48493A989FED5D
:100CB000568A6AF085FD17AA44493B986AF080FD80
:100CC00018AA42493C986AF07BFD50484DF0D8FA8A
:100CD000DDED157AF5EEC07AF1EE10FA2BDD53F06A
:100CE0005FFC9DED150AD0ED007AF4EEC07AF1EECE
:100CF00010FA20DB9DED171AB5EEC01AF1EE10FACE
:100D000019DDDDED160AF4EEC80AF1EE10FA12DD77
:100D1000DFED357AF4EEE70AF1EE10FA0BD8DDEDEF
:100D2000181AF5EEC01AF1EE10FA04DB1FA802F053
:100D3000D5F81F9876E136484DF0A2FADDED157A28
:100D4000F5EEC07AF1EE10FA0ADC53F029FC0068E7
:100D50000BF062FB02460B462E484DF091FA0AE07A
:100D600053F01EFCDDED157A90ED007AB4EEE77AD3
:100D7000F1EE10FAE9DBDDED167AF4EEC87AF1EE69
:100D800010FA06DD9FED187AF4EEC77AF1EE10FA4C
:100D900002D921484DF074FADDED177AF5EEC07AEC
:100DA000F1EE10FA02DC1D484DF06AFADDED187A1A
:100DB000F5EEC07AF1EE10FA81F2B083184800F037
:100DC000E1BD184801F0ABBB000080BFB2F90608D6
:100DD000EAFC060802FD060818FD060874FC060871
:100DE0007EFD06088AFD06086666663FA2FD0608C7
:100DF000D5FD060802FE060863FE060864FF060825
:100E00001200070837FE06080AD7A33C73FE06083F
:100E1000A1FE06080CFB0608B6FE0608D8FE06086A
:100E2000F6FE06081AFF060861F07AFB044653F046
:100E3000B7FB4FF435720146204669F051FB61F073
:100E40006FFB054653F0ACFB4FF435720146284664
:100E500069F046FB022384F89230204655F098FE54
:100E600079484DF00DFA00231FAA18A917A8179367
:100E700018931F935FF0BCFAB8B917980BF0CCFA2F
:100E800002460B4671484DF0FBF918980BF0C4FA76
:100E900006461F980F460BF0BFFA3246CDE9000117
:100EA0003B466B484DF0ECF909E0C0B253F0B8FB9B
:100EB000014668484DF0E4F967484DF0E1F92846ED
:100EC00055F066FE204661F05BFB284661F058FB5A
:100ED00001F02CBB614B624939981F931FAA6AF03D
:100EE0006FFC60484DF0CCF9DDED1F7AF5EEC07A6D
:100EF000F1EE10FA40F3A4809FED5B7AF4EEC77A2E
:100F0000F1EE10FA00F29C8061F00AFB044653F007
:100F100047FB4FF435720146204669F0E1FA61F073
:100F2000FFFA074653F03CFB4FF435720146384652
:100F300069F0D6FA022384F89230204655F028FE54
:100F400012F0DEF8804612F0E3F8B0EE40AA12F09C
:100F5000E7F8814612F09CF800219FED440A9FEDCE
:100F6000448A4EF6602012F07BF807EE905AF8EEB5
:100F7000E77A87EE880ADDED1F7A20EE270A54F023
:100F80004FFB53F045FB064628B9C82001350CF04D
:100F90003FFD642DE9D19FED358A4FF47A75F0EE6F
:100FA000488AB0EE489AF0EE489AF7EE00AA5EF052
:100FB000FFF979EE809A53F013FC39EE009A53F062
:100FC000A7FC0A2038EE008A0CF022FD013D78EEE5
:100FD000AA8AECD154F05CFEB7EE000A53F070FB25
:100FE000384655F0D5FD204661F0CAFA384661F022
:100FF000C7FA4946B0EE4A0A404612F031F8C8EE48
:10100000287A89EEA87AD4ED386AA6EEE77AC9EE96
:10101000287ADFED186A67EEA67AC7EE276A46B926
:1010200016EE900A0BF0F8F902460B461248FFF74D
:101030005DB9F0B253F0F4FA0146104800F0D4BFA5
:101040000F4801F06CBA00BF74FF06089BFF06084A
:10105000B0FF0608D6FF060847FD0608000080BF5F
:10106000B2F90608260007086666663F0000000021
:101070000000C8425077D63D8DFE060844000708A0
:1010800071000708914920460CF0EAF8002840F06A
:10109000F280062E40F0EC808D4B8E4939981093EB
:1010A00010AA11931293139314936AF089FB11AA57
:1010B00088493A989FED888A6AF082FB12AA85498E
:1010C0003B986AF07DFB13AA82493C986AF078FB52
:1010D00014AA80493D986AF073FB80484DF0D0F81F
:1010E000DDED107AF5EEC07AF1EE10FA4FF0000463
:1010F0006FDD53F055FA9DED100AD0ED007AF4EE55
:10110000C07AF1EE10FA64DB9DED121AB5EEC01A4A
:10111000F1EE10FA5DDDDDED110AF4EEC80AF1EE34
:1011200010FA56DDDFED6E7AF4EEE70AF1EE10FA12
:101130004FD8DDED131AF5EEC01AF1EE10FA48DBC8
:101140009DED142AB5EEC02AF1EE10FA41DB15949C
:10115000169417940DF13F061FAD18AC0296019539
:1011600000940DF13E0317AA16A915A802F0C0F8C5
:1011700040BB9DF83E3013B333780A9328680BF0D8
:101180004BF9CDE9080120680BF046F9CDE90601DD
:1011900017980BF041F9CDE9040116980BF03CF9D2
:1011A000CDE9020115980BF037F94E4B4E4ACDE9C7
:1011B00000014E494E484DF063F801F0B7B94D4873
:1011C00001F0ADB9C0B253F02BFA01464A4800F025
:1011D0000BBF4A484DF054F8DDED107AF5EEC07AB9
:1011E000F1EE10FA0ADC53F0DBF900680BF014F9A9
:1011F00002460B4642484DF043F80AE053F0D0F95E
:10120000DDED107A90ED007AB4EEE77AF1EE10FAA7
:10121000E9DBDDED117AF4EEC87AF1EE10FA06DDC5
:101220009FED2F7AF4EEC77AF1EE10FA02D9354825
:101230004DF026F8DDED127AF5EEC07AF1EE10FAF7
:1012400002DC31484DF01CF8DDED137AF5EEC07A82
:10125000F1EE10FA02DA2D484DF012F8DDED147AB5
:10126000F5EEC07AF1EE10FA81F25881284889E350
:10127000284801F054B9284920460BF0F1FF30B955
:1012800026484CF0FDFF5FF063FF01F047B92449A9
:1012900020460BF0E5FF00284AD122484CF0F0FF31
:1012A00001205FF08DFA011E0DDB53F079F9044641
:1012B00053F06EF9851E69426941204601F018FC21
:1012C000194801F02CB9194801F02EB9A5000708FA
:1012D000000080BFB2F906080AD7A33CBE00070889
:1012E0006666663FE1000708FF0007081F01070860
:1012F0003F0107089D010708BC010708A1FE060879
:101300000CFB0608B6FE0608EB010708F6FE060809
:101310001302070837020708950207089F0207080B
:10132000AA020708B5020708D9020708E002070861
:10133000A94920460BF094FF0246002840F0E580C2
:101340000721A648A64C4CF09BFFA649A6484CF0A6
:1013500097FFA648A64BA74AA74900781B781278A2
:1013600009780890A54800780790A548007806906D
:10137000A44800780590A44800780490A348007819
:101380000390A34800780290A24800780190A248F8
:1013900000780090A1484CF073FFA14BA14A197846
:1013A000A14BA24800290CBF114619464CF068FF1A
:1013B0009F484CF065FF54F0CBF801469D484CF037
:1013C0005FFF21699C4863694CF05AFF94F8A010B4
:1013D0009A4849B24CF054FF94F80E1298484CF0D9
:1013E0004FFF94F80D1297484CF04AFF53F0D0F895
:1013F000821E5342534115A916AA14A85DF0E8FCB9
:1014000014980BF009F8044616980D460BF004F8F2
:10141000CDE9020115980AF0FFFF2246CDE900014F
:101420002B4689484CF02CFF53F0B2F8811E4B42FA
:101430004B411FAA18A917A85DF0FAFC17980AF0EB
:10144000EBFF04461F980D460AF0E6FFCDE90201C6
:1014500018980AF0E1FF2246CDE900012B467B48AF
:101460004CF00EFF53F094F80238434243411FAA58
:1014700018A917A85DF0F4FC17980AF0CDFF0446F0
:101480001F980D460AF0C8FFCDE9020118980AF02E
:10149000C3FF22462B46CDE900016D484CF0F0FE1B
:1014A0004FF0CEF801466B484CF0EAFE4FF0B8F929
:1014B000014669484CF0E4FE43A3D3E900236748A2
:1014C0004CF0DEFE42A3D3E9002365484CF0D8FE81
:1014D0000022644B64484CF0D3FE61F0C9F8044626
:1014E00061F0B6F821460246092360484CF0C8FE78
:1014F00061F0D6F8044661F0B3F8022302462146B3
:101500005B484CF0BDFE01F009B85A4920460BF08B
:10151000A7FE002840F0BC80032E52D1564B5749FD
:101520003998189318AA1F936AF04AF91FAA5349C9
:101530003A986AF045F952484CF0A2FEDDED187A6F
:10154000F5EEC07AF1EE10FA1ADD53F029F8DDED70
:10155000187A90ED007AB4EEE77AF1EE10FA0FDB2C
:10156000DDED1F7AF5EEC07AF1EE10FA08DB11F02E
:101570008FFDDDED1F0A9DED180A54F091FABCE0D5
:1015800040484CF07DFEDDED187AF5EEC07AF1EEC4
:1015900010FA0ADC53F004F800680AF03DFF024636
:1015A0000B4639484CF06CFEC1E052F0F9FFDDED1E
:1015B000187A90ED007AB4EEE77AF1EE10FAE9DBF2
:1015C000B5E0324800F0ABBF0000000000307140D1
:1015D0000000002033535A40F3020708FD020708B9
:1015E00000000010E61E07080D0307081B7AFF1F06
:1015F000127AFF1F117AFF1F107AFF1F1A7AFF1F3E
:10160000197AFF1F187AFF1F177AFF1F167AFF1F1C
:10161000157AFF1F147AFF1F137AFF1F1A0307089A
:101620003048002082030708FBF406085C03070823
:10163000740307088503070895030708A50307082F
:10164000B6030708C7030708D8030708FC03070801
:10165000200407084D040708630407087A040708F4
:101660009C04070800408F40BE040708D104070807
:10167000FD0407082A050708000080BFB2F9060824
:1016800037050708A1FE06080CFB060871050708C8
:10169000C04920460BF0E4FD002855D1032E50D15F
:1016A000BD4BBE493998189318AA1F936AF088F861
:1016B0001FAABA493A986AF083F8B9484CF0E0FD9D
:1016C000DDED187AF5EEC07AF1EE10FA1BDB9FED36
:1016D000B57AF4EEC77AF1EE10FA14D8DDED1F7A80
:1016E000F5EEC07AF1EE10FA0DDB11F0D1FCDDED74
:1016F0001F0A9DED180A54F053FA52F089FF002892
:1017000000F0148701E1A8484CF0BAFDDDED187A2D
:10171000F5EEC07AF1EE10FA06DB9FEDA27AF4EE58
:10172000C77AF1EE10FA02D9A0484CF0A9FDDDED20
:101730001F7AF5EEC07AF1EE10FA80F2EF869C483F
:1017400020E19C4800F0EBBE9B4920460BF088FD51
:1017500008BB022E1CD14FF0FF331FAA97493998BE
:101760001F936AF02DF896484CF08AFD1F9B002BC2
:101770000BDB382218A831468DF860208DF86130D7
:101780004CF046FD8F4800F0CABE8F4800F0C7BE3F
:101790008E4800F0C4BE8E4920460BF061FD002843
:1017A00037D1022E7FF457A97B4B7C493998189387
:1017B00018AA6AF005F887484CF062FDDDED187A4A
:1017C000F5EEC07AF1EE10FA40F3DD8452F0E8FE57
:1017D0009DED180AD0ED007AF4EEC07AF1EE10FA21
:1017E000C0F2D18401211FAA084602F0D9F850B9ED
:1017F0001F99002900F04182012900F04582022949
:1018000040F04D8247E2C0B252F00AFF01467248F2
:10181000EAE3724920460BF023FD002840F0F680F1
:10182000042E40F0B3805C4B5C493998179317AA9B
:1018300018931F9369F0C4FF18AA58493A9869F0A1
:10184000BFFF1FAA55493B9869F0BAFF64484CF0A6
:1018500017FD9DED178A52F0A3FED0ED007AB0EE91
:10186000C88AB4EEE78AF1EE10FA61D8DDED1F7A8E
:10187000F5EEC07AF1EE10FA5ADB9FED5A7AF4EEEB
:10188000C77AF1EE10FA53D89DED187ADFED567A4B
:10189000B4EEE77AF1EE10FA3CD811F0F9FBDDED89
:1018A0001F0A9DED170A54F03BF952F0B1FE0028D3
:1018B00000F0C98429E0142001340CF0A9F8C72CE9
:1018C0000DDDDDED187A77EEC87A344617EE900A12
:1018D0000AF0A2FD02460B4628464CF0D1FC38EE39
:1018E000288ADDED187AF4EEC87AF1EE10FA18DDE8
:1018F00011F0CEFBDDED1F0A9DED170A54F010F933
:1019000052F086FE06460028D5D052F089FE0146E8
:10191000364869E300249FED368A364DDFED368A7E
:10192000DFE79FED330A53F0BBFF344800F0F7BD0B
:101930001D484CF0A5FC9DED178A52F031FED0ED0C
:10194000007AB0EEC88AB4EEE78AF1EE10FA09D94F
:1019500052F026FE00680AF05FFD02460B4628485A
:101960004CF08EFCDDED1F7AF5EEC07AF1EE10FA48
:1019700007DB9FED1C7AF4EEC77AF1EE10FA40F225
:10198000CD8520484CF07CFC00F0C8BD1E4800F01E
:10199000C6BD00BFA6050708000080BFB2F9060853
:1019A000B80507086666663FA1FE0608D505070864
:1019B000D8FE0608F60507082806070812F80608E4
:1019C0003C06070860060708670607089006070830
:1019D000BF060708D806070876070708A007070804
:1019E000B40707080000B443BD3786354F05070824
:1019F00000000000D70707086F12033BE60707083F
:101A0000EC0707080B0807082F080708C0492046FD
:101A10000BF026FC002840F0AC80022E40F0B28093
:101A2000BC4BBD4939981F931FAA69F0C9FEBB483A
:101A30004CF026FCDDED1F7AF5EEC07AF1EE10FADF
:101A400040F3498152F0A4FD01219DED1F0A064695
:101A5000084610F02DFE01460546B1484CF010FC3A
:101A6000012052F08DFD002D65DBAE489FEDAE8A62
:101A70004CF006FC52F094FD044600680AF0CCFCE1
:101A800002460B46A9484CF0FBFBD4ED387A67EED2
:101A9000887A17EE900A0AF0BFFC02460B46A4486B
:101AA0004CF0EEFB94ED367ADFEDA27A67EE277A02
:101AB00017EE900A0AF0B0FC02460B469E484CF026
:101AC000DFFBD4ED397A67EE887A17EE900A0AF0D8
:101AD000A3FC02460B4699484CF0D2FB984B94F875
:101AE0004C11984A984800290CBF114619464CF0F1
:101AF000C7FB94F84C3143B1D4F850010AF08CFC88
:101B000002460B4691484CF0BBFB94F82C310BB9C4
:101B10008F4827E094F82C31022B01D18D4821E029
:101B200094F82C31012B01D18B481BE029468B48BE
:101B30004CF0A6FB18E015F10A0F01D188480EE021
:101B400015F10B0F01D1874809E005F16400C0B21F
:101B500052F066FD014684484CF092FB83484CF0FD
:101B60008FFB83484CF08CFB304652F009FD00F0AF
:101B7000DDBC804920460BF073FB002840F0AE80AE
:101B8000022E02D07C4800F0CABC624B62493998F0
:101B90001F931FAA69F014FE60484CF071FB9DED85
:101BA0001F0AB5EEC00AF1EE10FA40F394809FEDE3
:101BB000732A0021F0EE421AB0EE421AF0EE420A09
:101BC000012011F005F8054601466D484CF058FB20
:101BD000002D67DB53489FED548A4CF051FB52F0C7
:101BE000DFFC044600680AF017FC02460B464F482B
:101BF0004CF046FBD4ED387A67EE887A17EE900AFF
:101C00000AF00AFC02460B4649484CF039FB94EDB9
:101C1000367ADFED487A67EE277A17EE900A0AF0F7
:101C2000FBFB02460B4657484CF02AFBD4ED397AB1
:101C300067EE887A17EE900A0AF0EEFB02460B4632
:101C40003E484CF01DFB3E4B94F84C113D4A3E483B
:101C500000290CBF114619464CF012FB94F84C3188
:101C600043B1D4F850010AF0D7FB02460B4637487F
:101C70004CF006FB94F82C3113B9354800F04FBCFA
:101C800094F82C31022B02D1324800F048BC94F871
:101C90002C31012B02D1304800F041BC29462F489D
:101CA00000F042BC15F10A0F01D12D480EE015F1EC
:101CB0000B0F01D12B4809E005F16400C0B252F0CE
:101CC000AFFC014628484CF0DBFA28484CF0D8FA23
:101CD000274800F024BC2C4800F021BC2B492046AA
:101CE0000BF0BEFA002857D1294B986A0AF072FB14
:101CF00005A3D3E900230AF015FD02460B4625484B
:101D0000FEF7F4BAAFF30080000000000088C34083
:101D10006C080708000080BFB2F9060881080708B0
:101D200096080708A108070800007A44CA080708AF
:101D3000E708070800247449070907082509070868
:101D4000F0F40608F5F40608440907085D090708D9
:101D5000F50607081F070708400707086107070877
:101D60007D0907089D090708C909070847FD0608F6
:101D7000F3090708750A07083F0A07080000000072
:101D80008E0A0708960A0708060A0708B80A07080D
:101D900038190020BF0A0708D84920460BF060FA1E
:101DA0000746002840F0F981022E7EF454AED44B51
:101DB000D4493998179317AA69F002FDD2484CF01C
:101DC0005FFADDED177AF5EEC07AF1EE10FA40F326
:101DD000DA8152F0E5FBDDED177A90ED007AB4EE92
:101DE000E77AF1EE10FAC0F2CE8152F0F9FB60F022
:101DF00097FB054652F0D4FB4FF435720146284656
:101E000068F06EFB95F8923085F8926028460D9345
:101E100054F0BEFEBD49BE48DFEDBE8A9FEDBE8ACE
:101E20004EF016FBBD484EF043FBBD484EF040FB64
:101E3000BC484EF03DFBBC484EF03AFB11F028F98F
:101E400052F0DEFB07EE107ADDED177AB8EEC70A26
:101E5000F0EE480A20EE270A80EE280A53F060FED2
:101E600052F0D6FB044630B90A2001370BF0D0FD02
:101E7000B7F57A7FE2D152F08BFB831ED3F1000BD2
:101E8000DFF8E492D5F87C124BEB030B5846D9F8F7
:101E9000003098471C220021824618A868F050FBA9
:101EA000DFF8C8C2BCE80F001FAF3E460FC69CE873
:101EB0000F0086E80F00002C7DD14FF434739FEDA6
:101EC000968ADFED9A9A9FED9A9ADFED9A8A0C93A3
:101ED000A046D9F80030D5F87C12584698475045AE
:101EE000064616D0B8F1060F06DC18AB03EB8803E4
:101EF00083ED008A08F10108002357F82320B2423D
:101F000001D0013202D147F8236002E00133082BEF
:101F1000F3D100204EF0ECFA06F0010300EE903A07
:101F2000F8EEE00AB0EE480A60EEA90A4EF0F0FAC8
:101F300001204EF0DDFAC6F3400300EE903AF8EED1
:101F4000E00AB0EE480A60EE890A4EF0E1FA02209B
:101F50004EF0CEFAC6F3800300EE903AF8EEE00AB7
:101F6000B0EE480A60EEA80A4EF0D2FA03204EF016
:101F7000BFFA07EE906AB0EE480AF8EEE70A4EF0B4
:101F8000C7FAF7EE007A38EE278A11F081F852F09E
:101F900037FBF0EE480A9DED170A53F0C1FD52F0F1
:101FA00037FB044638B9C8200BF032FD0C9B013BCF
:101FB000B2460C938DD152F023FB53F069FEB7EE7D
:101FC000000A52F07DFB0D9B85F89230284654F0B4
:101FD000DFFD284660F0D4FA52F00AFB44B1E0B2CB
:101FE00052F01EFB014654484CF04AF9534896E221
:101FF0002346214657F823200133013218BF01310F
:10200000082BF7D1062903D14D484CF039F902E0ED
:102010004C484CF035F9DFED408A9FED4B9A9FED2F
:102020004BAADFED4B9A18ADD5ED007A043595ED4E
:10203000007A77EEC77A0134F4EECA7AF1EE10FA3C
:1020400002D577EEA97AF7E79FED427AF4EEC77AE8
:10205000F1EE10FA02DD77EEE97AF7E7B0EEE78A03
:1020600018EE100A0AF0D8F902460B463A48214603
:102070004CF006F9B4EE498AF1EE10FAB4EE688A33
:1020800048BFB0EE489AF1EE10FAC8BFF0EE488AA9
:10209000062CC9D178EEC97AB6EE007A27EE877A97
:1020A000F1EE046AB4EEE67AF1EE10FA07D517EE17
:1020B000100A0AF0B1F902460B4628485FE0F2EE3A
:1020C000046AF4EEE67AF1EE10FA07D517EE100A7C
:1020D0000AF0A2F902460B46214850E0F2EE0E6AE1
:1020E000F4EEE67AF1EE10FA42D517EE100A0AF095
:1020F00093F902460B461B4841E000BFCF0A070890
:10210000000080BFB2F90608DC0A0708FE0A0708CB
:10211000100B070800007A4400000000160B0708A7
:102120001D0B0708240B07082B0B07085C8F823F49
:10213000B81E853F14AE873F340B070847FD0608DD
:10214000630B0708920B070800006144000034C3CA
:102150000000B44300003443D00B0708EB0B070822
:10216000250C07086C0C070814170020E0F006087F
:1021700017EE900A0AF050F9024642480B464CF01E
:102180007FF84148CBE152F00BFA00680AF044F9BD
:1021900002460B463D48FEF7A9B83D4920460BF0E4
:1021A0005FF80546E8B952F0FBF92946B0F8D0428D
:1021B000284655F09DFA074615F0E2FDB0F8746127
:1021C000284615F0DDFEA4B205463A4621463148C0
:1021D0004CF056F82A4631462F484CF051F82F481B
:1021E0009DE12F4920460BF03BF8002800F09E812E
:1021F0002C4920460BF034F848BB032E40F0968162
:10220000294B1F9018AA29493998189369F0D8FAD0
:102210001FAA27493A9869F0D3FA9DED180ADFED15
:10222000257AB4EEE70AF1EE10FA0EDDDFED227A40
:10223000B4EEE70AF1EE10FA07D51F98003018BF88
:10224000012054F0F5FC1D4869E11D4867E11D4976
:1022500020460BF005F860B91B491C484CF010F8FB
:102260001B491C484CF00CF81B491C484CF008F862
:1022700054E11B4920460AF0F3FF98BB72B600BF39
:10228000FDE700BFBA0C0708360D070874FC060806
:10229000780D07087C0D0708A90D0708D70D07085A
:1022A000200E0708310E07080000FAC3B2F906082D
:1022B00012F806080000B4C30000B443D3070708AF
:1022C000470E07085A0E0708620E0708750E070822
:1022D000840E0708B30E0708C20E0708C80E0708C9
:1022E000D70E0708944920460AF0BAFF0546002891
:1022F00040F018819148924CDFF89483914F924EB0
:102300004BF0BEFF8C484BF0BBFF90484BF0B8FF42
:102310008F484BF0B5FF8F484BF0B2FF8E484BF023
:10232000AFFF8E484BF0ACFF8D484BF0A9FF8D48B6
:102330004BF0A6FF8C484BF0A3FF8C484BF0A0FF5E
:102340008B484BF09DFF8B484BF09AFF8A484BF02F
:1023500097FF8A484BF094FF89484BF091FF8948DA
:102360004BF08EFF88484BF08BFF88484BF088FF7E
:1023700087484BF085FF87484BF082FF86484BF03B
:102380007FFF86484BF07CFF85484BF079FF8548FE
:102390004BF076FF84484BF073FF84484BF070FF9E
:1023A00083484BF06DFF83484BF06AFF82484BF047
:1023B00067FF82484BF064FF81484BF061FF814822
:1023C0004BF05EFF80484BF05BFF80484BF058FFBE
:1023D0007F484BF055FF7F484BF052FF7E484BF053
:1023E0004FFF7E484BF04CFF7D484BF049FF7D4846
:1023F0004BF046FF7C484BF043FF7C484BF040FFDE
:102400007B484BF03DFF73484BF03AFF79484BF067
:1024100037FF79484BF034FF78484BF031FF78486C
:102420004BF02EFF77484BF02BFF77484BF028FFFF
:1024300076484BF025FF76484BF022FF75484BF06D
:102440001FFF75484BF01CFF74484BF019FF744890
:102450004BF016FF73484BF013FF73484BF010FF1F
:1024600072484BF00DFF72484BF00AFF71484BF079
:1024700007FF71484BF004FF70484BF001FF7048B4
:102480004BF0FEFE6F484BF0FBFE6F484BF0F8FE42
:102490006E484BF0F5FE6E484BF0F2FE6D484BF087
:1024A000EFFE6D484BF0ECFE6C484BF0E9FE6C48DB
:1024B0004BF0E6FE6B484BF0E3FE6B484BF0E0FE62
:1024C0006A484BF0DDFE6A484BF0DAFE69484BF093
:1024D000D7FE69484BF0D4FE68484BF0D1FE6848FF
:1024E0004BF0CEFED8F80030AB4217DDE36893B175
:1024F000A26821681AB163484BF0C2FE02E00846A8
:102500004BF0BEFE616819B130464BF0B9FE02E0F7
:1025100038464BF0B5FE01351034E3E75A484BF02E
:10252000AFFE03E0594821464BF0AAFE79B0BDEC5E
:10253000068BBDE8F08F00BF010F0708E10E07080A
:102540008C3000207219070868490708F50E070843
:1025500031F50608060F0708ABF50608330F070824
:10256000CCF506085B0F07087A0F07086F0F0708FE
:1025700008BE0708820F07082A0E0708A20F0708DF
:102580005E9B0708E30F0708C5F80608F60F070863
:102590008BF9060816100708321007085E100708A6
:1025A000A1100708DC100708B0FB06080111070896
:1025B0001E1107083B1107087C1107089211070834
:1025C000CF110708E2110708361207086E12070834
:1025D000AE120708D812070864FF06080D13070893
:1025E000631307087E130708B513070806140708C6
:1025F000431407089502070880140708AA02070871
:10260000A2140708F3020708CE140708F8140708F5
:1026100016150708451507086515070894150708D6
:10262000B2150708D9150708FC1507083F16070853
:1026300074160708BF160708E61607080E170708DE
:102640006417070890170708EB170708B80A070868
:1026500024180708561807086D180708780D07088A
:10266000A3180708200E0708B7180708E11807087D
:102670000B1907085A0E070829190708D70E07086B
:10268000491907086C1907086BF60608A11907080D
:102690008830002000000000000000000000000062
:1026A00037B502EB410294B2054601A9204661F01C
:1026B0002FF908B100200FE0601C0DF1060180B277
:1026C00061F026F90028F5D1BDF80420BDF80630E8
:1026D00043EA02432B60012003B030BD70B50568AA
:1026E00041F288300E46144652F03AFF52F040FF55
:1026F000B0EE080A52F044FF30B304EB460460F039
:1027000027FEA4B210F02CFD63F0D2FFF22063F09C
:10271000E7FF290C204661F0EBF9092809D1601C7C
:10272000A9B280B261F0E4F9A0F109035C425C4116
:1027300000E0002463F0CCFF10F042FD642052F072
:102740000FFF60F015FE00E00124204670BDF8B5D3
:1027500041F2883052F004FF52F00AFFB0EE080A4E
:1027600052F00EFF054640B360F0F2FD10F0F8FCA9
:1027700063F09EFFF22063F0B3FF114E002441F29C
:10278000707706EB440316F814105B78381943EAA7
:10279000012180B261F0ACF9092804D10134B4F50B
:1027A000847FEED100E0002563F092FF10F008FD79
:1027B000642052F0D5FE60F0DBFD2846F8BD00BF76
:1027C0000000001070B54FF45B620021ADF5067D8E
:1027D000594867F0B5FE584900230A4603F57A7058
:1027E00021F813000133B3F5B57FF7D140F226216C
:1027F00003F2666022F8130001338B42F8D140F2F5
:10280000662103F6921022F8130001338B42F8D1AF
:1028100040F2664103F63A5022F8130001338B422E
:10282000F8D1464A41F2707341F6780122F8023F2E
:1028300001339BB28B42F9D163F03AFFF22063F08F
:102840004FFF61F08DF863F043FF002541F2707691
:1028500002AC70190DF1060180B261F059F860B94F
:10286000BDF806301A0A04F8152004EB45020135BC
:10287000B5F5847F5370ECD138E0314D314E4FF4D3
:1028800004720021204667F05BFE2B68B34203D13F
:102890006A68AB68C4E90123EB68B34203D12A69D3
:1028A0006B69C4E90423AB69B34204D18022264991
:1028B00009A867F015FED5F89C30B3420AD14FF451
:1028C000B47222490DF1A90067F00AFE95F8A03014
:1028D00084F8A030D5F80932B34225D195F80D32ED
:1028E00084F80D3295F80E3284F80E32154B2360C1
:1028F000E360A361C4F89C301E2384F809326B2383
:1029000084F80A326FF0760384F80B324FF40472C5
:10291000052321460A4884F80C3267F0E1FDFFF7F1
:1029200016FF0DF5067D70BD022384F80D3215F0FB
:102930005FF984F80E02D9E7803A00204A4300206C
:10294000000000101E6B89051C000010A100001083
:102950001F2902D840F6B832A2E600207047FF29AE
:1029600002D84FF47A629BE6002070471F2902D8F4
:1029700040F6B832B2E600207047FF2902D84FF483
:102980007A62ABE60020704770B5044694B000252B
:1029900005F5FA600DF1020180B260F0B9FF60B98F
:1029A000BDF802301A0A04F8152004EB450201357F
:1029B000BC2D5370ECD1012500E000252046B4F871
:1029C000746115F0DDFA864206D0172301A88DF850
:1029D00005300FF0CDFD00E04DB9204613F0F8F9B9
:1029E000044B93F80D22627693F80E32237014B0E4
:1029F00070BD00BF0000001070B5044641F2883081
:102A000052F0AEFD52F0B4FDB0EE080A52F0B8FD3F
:102A1000064698B360F09CFC10F0A2FB204615F02F
:102A2000AFFAA4F8740163F043FEF22063F058FE9D
:102A3000002504EB450314F815105B7805F5FA60E2
:102A400043EA012180B261F053F8092803D101352E
:102A5000BC2DEED100E0002663F03AFE10F0B0FB92
:102A6000642052F07DFD60F083FC054B227883F8F2
:102A70000E22627E83F80D22FFF769FE304670BD9C
:102A800000000010F0B541F2883695B005460F46BB
:102A9000002908BF4FF47A76002430190DF10201A5
:102AA00080B260F035FF68B9BDF802301A0A05F847
:102AB000142005EB44020134B4F5B57F5370ECD11A
:102AC000012400E0002439462846B5F8D06254F0CD
:102AD0000FFE864206D0182301A88DF805300FF0AE
:102AE00047FD00E014B9284612F0CAFE15B0F0BD4B
:102AF000F8B5054641F288300C4652F031FD52F0EF
:102B000037FDB0EE080A52F03BFD064688B360F090
:102B10001FFC10F025FB002C2146284641F2883787
:102B200008BF4FF47A7754F0E3FDA5F8D00263F0C4
:102B3000BFFDF22063F0D4FD002405EB440315F83B
:102B400014105B78381943EA012180B260F0D0FF9D
:102B5000092804D10134B4F5B57FEED100E0002698
:102B600063F0B6FD10F02CFB642052F0F9FC60F02D
:102B7000FFFB3046F8BD2DE9F04F2DED088B85B0F9
:102B8000B0EE609AF0EE409AF0EE41AA0393CDE9E0
:102B9000011282465FF0C4FC04465FF0C1FC0646A9
:102BA00051F0FEFC4FF435720146204667F098FC68
:102BB0004FF435722146304667F092FCC14AC4F8A2
:102BC000AC20C14AC4F8A0200023C04A84F8923047
:102BD000F7EE008A84F8933084F89130C4ED298AA6
:102BE00084ED259AC4F8982084F85D32204653F08D
:102BF000CFFF4FF4FA7551F00BFD20B164200AF0BD
:102C000007FF013DF7D142F210700AF001FF10F00A
:102C100077FA804610F07CFAB0EE40AA10F080FA05
:102C2000814610F035FA00219FEDA90A4EF660208A
:102C300010F016FA51F0D4FC51F0E2FCB0EE690A43
:102C400052F02EFE0025B5EE008A012D0FD151F075
:102C5000D7FC53F01DF8B7EE000A51F031FD79EEC4
:102C6000097A9C4BC4ED257AC4F8A03012E0022DFD
:102C70001FD151F0C5FC53F00BF8B7EE000A51F02C
:102C80001FFDF1EE007A69EE277A0123C4ED257A63
:102C900084F8913051F0B4FC204653F079FF42F2B1
:102CA00010700AF0B5FE51F0ABFCB0EE690A52F0BC
:102CB000F7FD4FF0000B5F46B6EE00BA51F050FD45
:102CC000B4EECB0AF1EE10FA20D50A200AF0A0FEED
:102CD00051F046FDB4EEC80AF1EE10FA07F1010713
:102CE00007DBBBF1000F40F0E280012056F078FDD9
:102CF000DDE0B7F5FA6FE1DDBBF1000F0BD041F27B
:102D000088339F420DD04FF0010BD7E7BBF1000F86
:102D10001ED14FF0010B0135032D96D1BBF1000FF1
:102D200016D19FED6B0A52F0BBFD4946B0EE4A0A40
:102D3000404610F095F9304653F02AFF51F058FC08
:102D400020465FF01DFC30465FF01AFC0020B3E027
:102D500056F04EFD51F054FCB6EE000A52F060FC05
:102D60004FF47A600AF054FE51F04AFC9FED580A85
:102D700052F096FD002051F0B3FE4FF4FA6507467D
:102D8000002051F0ADFEC01B022806DC0A200AF02C
:102D90003FFE013DF4D1012500E0022556F0E8FC9C
:102DA000002051F09DFE40F6B8378346002051F0D8
:102DB00097FEA0EB0B00312805DC0A200AF028FE64
:102DC000013FF3D100E00135029856F019FD039B55
:102DD000186056F0CDFC41F288378AED000A51F0B8
:102DE000BFFCB4EEEA0AF1EE10FA05DD0A200AF0A3
:102DF0000FFE013FF3D100E0013551F001FCB0EED0
:102E00006A0A52F00DFC56F0B3FC002051F068FE47
:102E10009FED2F8A834640F6B837F0EE489A00209F
:102E200051F05EFEA0EB0B0063280BDC51F0D8FCE8
:102E30000A2079EE809A0AF0EBFD013F38EE288AED
:102E4000EDD100E0013556F093FCB0EE409A51F020
:102E5000D7FB52F01DFFB7EE000A51F031FC1E4BBC
:102E6000DAED007ADB8A39EE679A07EE903AF8EEEF
:102E7000677AC9EE888A019B304689EE277A68EE28
:102E8000878AC3ED008A53F083FE4946B0EE4A0AB2
:102E9000404610F0E5F851F0ABFB20465FF070FBC8
:102EA00030465FF06DFB6B1F5842584104E0B7F5A8
:102EB000FA6F3FF724AF26E705B0BDEC088BBDE8FD
:102EC000F08F00BF00009643000048420080894414
:102ED000000000000000A041F04301202DE9F04F68
:102EE0002DED0A8B83B0B0EE419AB0EE408AB0EE81
:102EF00060AAF0EE619A01905FF012FB04465FF069
:102F00000FFB064651F04CFB4FF43572014620464C
:102F100067F0E6FA4FF435722146304667F0E0FA82
:102F2000002384F8923084F8933084F89130A34BD6
:102F3000C4F86432A24BC4F8AC30A24BC4F8A03041
:102F4000F7EE008AA04BC4ED298A84ED259AC4F8D7
:102F50009830204653F01CFE4FF4FA7551F058FBA0
:102F600020B164200AF054FD013DF7D151F050FB2F
:102F7000054618B1304653F00BFEAAE042F210703D
:102F80000AF046FD10F0BCF8804610F0C1F8F0EEF3
:102F900040BA10F0C5F8814610F07AF829469FED46
:102FA0008B0ADFED8BAA4EF6602010F059F851F035
:102FB00017FB51F025FBB0EE480A52F071FC4FF0C0
:102FC000010B012D0AD151F01BFB52F061FEB7EE4F
:102FD000000A51F075FBC4ED28AA23E0022D0FD1A1
:102FE00051F00EFB52F054FEB7EE000A51F068FBB0
:102FF00079EE097A774BC4ED257AC4F8A03011E058
:10300000032D1ED151F0FCFA52F042FEB7EE000A39
:1030100051F056FBF1EE007A69EE277A84F891B010
:10302000C4ED257A51F0ECFA204653F0B1FD42F29E
:1030300010700AF0EDFC51F0E3FAB0EE480A52F0DD
:103040002FFC4FF0000A5746B6EE00BA51F088FB4D
:10305000B4EECA0AF1EE10FA21D50A200AF0D8FC23
:1030600051F07EFB6AEE0B7A0137B4EEE70AF1EE1F
:1030700010FA07DBBAF1000F40F09680012056F0FD
:10308000AFFB91E0B7F5FA6FE0DDBAF1000F0BD0BE
:1030900041F288339F420DD04FF0010AD6E7BAF1D2
:1030A000000F1ED14FF0010A0135042D89D1BAF16C
:1030B000000F16D19FED450A52F0F2FB4946B0EEE3
:1030C0006B0A40460FF0CCFF204653F061FD51F0F3
:1030D0008FFA20465FF054FA30465FF051FA002034
:1030E00067E051F08DFAB0EE4A0A9FED388A3A4F08
:1030F000DFED3ACA9FED3ACA52F092FA4FF4FA6500
:10310000B0EE48AAB0EE489AF0EE48AAFB8A9FEDCE
:1031100035BA07EE903AF8EE677A67EEAC7AA7EE2A
:103120008CBA51F01DFBEBEE00AA51F059FB39EEC1
:10313000009A51F0BDFB0A203AEE00AA0AF068FCA2
:10314000013D38EE288AE1D14946B0EE6B0A40468F
:103150000FF086FF304653F01BFD51F049FA9FED0A
:103160001B0A52F09DFBCAEE087A019B20468AEEAC
:10317000887A69EEE79AF0EE007AA9EEA77AC9EEAE
:10318000087ADFED196A67EEA67ADFED186A67EE56
:10319000A67AC7EE276AC3ED006A5FF0F1F9304600
:1031A0005FF0EEF9012004E0B7F5FA6F3FF770AF7A
:1031B00072E703B0BDEC0A8BBDE8F08F00401C46FF
:1031C000000096430000484200808944000000004F
:1031D00000007A430000A041F04301206740533AC9
:1031E000D145FF41C3F5A8BE5077D63DD7B3DD3FEB
:1031F000DFED377AC0EEA70AB7EE007AC7EE207A85
:103200009FED347A67EE877A9FED337A27EE877ADF
:10321000B4EEC07AF1EE10FA0ADB80EE277A82B0C3
:10322000FCEEC77ACDED017A9DF8040002B070473C
:103230009FED2A7A27EE877AB4EEC07AF1EE10FA83
:103240000EDB37EEA77AC0EE077A9FED257A77EE90
:10325000C77AFCEEE77A17EE900A60F07F0018E07C
:103260009FED207A27EE877AB4EEC07AF1EE10FA5D
:1032700011DBB2EE007A27EE877AC0EE077A9FED77
:103280001A7A77EEC77AFCEEE77A17EE900A60F0CA
:103290003F00C0B270479FED157A27EE877AB4EEF3
:1032A000C07AF1EE10FA10DBB3EE007A27EE877ADF
:1032B000C0EE077A9FED0C7A77EEC77AFCEEE77ADC
:1032C00017EE900A60F01F00E3E7FF20704700BF91
:1032D0000024744900007A440000FE4200007E434E
:1032E000000080420000FC430000004200007C44DB
:1032F0002DE9F04F2DED108B87B0CDE90132DDF8CF
:103300008090019A00910023F0EE40BAB0EE60BACE
:10331000B0EE41CAF0EE61AAB0EE42AA8046137048
:10332000B9F1000F02D0B04BC9F80030219B13B1A6
:10333000219AAD4B1360229B13B1229A0023137084
:1033400051F02EF9D0ED8A7AF0EEEB8AF4EEE78AAE
:10335000F1EE10FA11D8F5EEC0AAF1EE10FA03D88A
:1033600051F01EF9D0ED38AAB5EEC0AAF1EE10FA70
:1033700003D851F015F990ED36AAF5EEC0AAF1EE9A
:1033800010FA40F20683B5EEC0AAF1EE10FA40F250
:103390000083DFED967A2AEE279A2AEEA78A5FF05D
:1033A000BFF805465FF0BCF8074651F0F9F84FF456
:1033B00035720146284667F093F84FF43572294676
:1033C000384667F08DF8D5ED197A9FED897A85ED4D
:1033D0002F9A67EE877A0223F4EE4B7A85F89230C3
:1033E000B7EE009A0023F1EE10FA85F82C3185ED46
:1033F000308A85F8583185ED959A284648BFB0EE59
:1034000067BA53F0C5FB4FF4FA7451F001F920B1DB
:1034100064200AF0FDFA013CF7D151F0F9F80446B6
:1034200000287AD142F210700AF0F2FA0FF068FE2A
:1034300082460FF06DFEF0EE409A0FF071FE9FEDA8
:10344000748A83460FF024FE2146B0EE480A4EF6F9
:1034500060200FF005FE51F0C3F8D5ED8A7AF4EE46
:10346000E78AF1EE10FA40F36381DFED628A51F0F2
:10347000C7F807EE904AB8EEE70AF0EE480A20EEE9
:103480002B0A80EE280A52F00BFB51F0C1F8C8B1AC
:103490005946B0EE690A064650460FF0E1FD51F07C
:1034A000A7F852F0F5FBB7EE000A51F009F93846DB
:1034B00053F06EFB28465FF063F838465FF060F823
:1034C000344667E20A2001340AF0A2FAC82CCED1B1
:1034D0009FED4F8A4FF47A76F0EE488A51F040F92A
:1034E0000A20B0EEC00A78EE808A0AF091FA013E16
:1034F00038EE098AF2D151F08BF80446B8B1B0EE3B
:10350000690A594650460FF0ABFD51F071F852F080
:10351000BFFBB7EE000A51F0D3F8384653F038FB42
:1035200028465FF02DF838465FF02AF832E2C8EE00
:1035300088DA9FED378A9FED30EA9FED30DADFEDD4
:1035400030CAF0EE488A51F00BF9B0EEC00AB4EE82
:10355000CB0AF1EE10FA72D5CCEE0E7A78EEA78A8D
:1035600051F04EF895F85D3213B1F1EE680A01E0C2
:10357000F0EE680AB0EE6B0A52F092FA51F048F899
:1035800008B10346EAE10A200AF042FA51F0E8F8ED
:10359000B0EEC00AB4EE408AF1EE10FA06F1010670
:1035A00043F6982348BFB0EE408A9E4203D10E4BAB
:1035B000C8F8003043E0B6F57A6F39DD68EE0D7A71
:1035C000F4EEC07AF1EE10FA02DD4FF0404207E06F
:1035D0006DEEAC7AF4EECB7AF1EE10FA28DD094A02
:1035E000C8F800201E462AE0000080BFABAA26448F
:1035F0006666663F0000484300007A443333333F39
:10360000CDCC8C3F000040C000803B460000FA4318
:10361000000000005077D63D0AD7A33C00002042AE
:1036200035FA8E3C0000C843E02E65420000B443EA
:103630005FED0B7AF4EEE78AF1EE10FA83DB42F2EB
:1036400010700AF0E5F943F698239E4272D01FED00
:10365000108A42F21076F0EE48BAB0EE48BAB0EEF8
:1036600048CAF0EE48CA5BF0A3FE7CEE80CA5BF06D
:1036700097FE3CEE00CA5BF08BFD3BEE00BA5BF0C0
:103680007FFD01207BEE80BA38EE098A0AF0C0F98E
:1036900050F0BEFF08B9013EE5D18CEE080A0446A1
:1036A000CCEE887A8BEE08CA8BEE88BA20EE000A40
:1036B000A7EEA70A64F09CFDB0EE408A2BEE0B0A41
:1036C000ACEE0C0A64F094FD5FED2E7A5FED316A8A
:1036D000AAEEC08A284668EEA78AC8EE287AEAEEE3
:1036E000407AC8ED007AC5ED38AA85ED36AAD8F83B
:1036F0000030C5F8E430D8ED007A67EEA77A86EEA0
:10370000A77A85ED3A7A53F043FA41F288300AF00D
:103710007FF950F03DFF831E584258415BF0F0F9AD
:103720001FED450A5BF05CFA32200AF071F901E006
:1037300088ED008A26F0E4FAB0EE40DA5BF0B8FDDE
:10374000F0EE40DA002C40F003811FED4F8A1FEDB0
:103750004FFA5FED4FEA1FED4FEA4FF4FA66F0EED5
:1037600048AAB0EE48AAB0EE48CAF0EE488AF0EE99
:1037700048BAB0EE48BA5BF093FC60EE0FCA5BF05B
:10378000D7FBB0EEC00AB4EEEE0AF1EE10FA00F18B
:10379000BC805BF00DFE80EE2C0A7AEE80AA5BF016
:1037A0009FFDF0EE40CA26F0ABFAF0EE4D0A0EF0A7
:1037B00057FFB1EE047AF0EEC0FAF4EEC7FAF1EE7C
:1037C00010FA19DBF0EE6D0A8DED030AB0EE6C0A0B
:1037D0000EF046FFF0EE40DA26F092FADDED037AC5
:1037E0008DEEA77A3CEE09CA78EE878A3AEE2FAAC8
:1037F000B0EE40DAF0EE6CDAB4EECEAAF1EE10FAEA
:1038000077DBF5EEC08AFFEE007AF1EE10FAB7EE44
:10381000000A48BFB0EE670A28EE800A80EE0C0A64
:1038200063F00EFFF0EE40FA26F06AFAF5EEC08A79
:10383000F1EE10FA44BF5FED837A37EEC00AF0EE86
:103840006C0A20EE2F0A0EF00BFF5FED8B7A05A9B4
:1038500020EE270A04A864F0B3FCDDED047A3BEE09
:1038600027BADDED057A7BEEA7BA5FED927AB4EE6A
:10387000E7AAF1EE10FA3CDB002C39D1B9F1000FC8
:1038800005D1219B4BB3219BC3ED00FA25E0F0EE5F
:103890006B0AB0EE4B0A64F013F95FED9D7A1FEDF1
:1038A0009D7A20EE270A89ED000AD9ED007AF5EE1F
:1038B000C07AF1EE10FA04D577EE877AC9ED007A76
:1038C000F3E7D9ED007AF4EEC77AF1EE10FAD8DD1D
:1038D00077EEC77AC9ED007AF3E7229B43B1F5EEA4
:1038E000C08AF1EE10FA229A4CBF01230023137014
:1038F0000124012038EE098A0AF08AF850F088FE87
:1039000028B9013E7FF437AF01E0002300E0034611
:10391000029AB5EEC08AF1EE10FA82ED008A08DD57
:10392000CAEE887A009A0199C2ED007A01220A70E3
:1039300002E0009900220A60D8ED007AF5EEC07A24
:10394000F1EE10FA02DD019901220A7033B100E0B4
:103950002346009900220A60C8F800205946B0EEBC
:10396000690A504600930FF07BFB50F041FE52F085
:103970008FF9B7EE000A50F0A3FE384653F008F96D
:1039800028465EF0FDFD38465EF0FAFD009B1C46C1
:1039900000E00024204607B0BDEC108BBDE8F08F9E
:1039A0002DE9F04F2DED068B4FF0FF3389B01360FA
:1039B000F0EE408ACDE9000193465EF0B1FD054688
:1039C0005EF0AEFD044650F0EBFD4FF4357201465B
:1039D000284666F085FD4FF435722946204666F08C
:1039E0007FFD022385F89230002385F82C31B34BFC
:1039F000C5F8BC304FF07E53C5F8C030284653F0B0
:103A0000C7F84FF4FA7650F003FE20B1642009F0B5
:103A1000FFFF013EF7D150F0FBFD0646A8BB42F286
:103A2000107009F0F5FF0FF06BFB81460FF070FB93
:103A3000B0EE408A0FF074FB82460FF029FB31464E
:103A40009FED9F0A4EF660200FF00AFB06AF50F084
:103A5000C7FD85F85C62284653F09AF80DF10E0117
:103A60003846B0EE680A5CF05BFD0646B8B1B0EED1
:103A7000480A514648460FF0F3FA50F0B9FD52F0AB
:103A800007F9B7EE000A50F01BFE204653F080F80D
:103A900028465EF075FD20465EF072FD08E150F0AC
:103AA0009FFD9DF80E200223002A00F09A8084F8E2
:103AB0002C3184F85C6204F22D123346F95C02F872
:103AC000011B0133082BF9D1012354E00A2008F12E
:103AD000010809F09DFFB8F57A7F40F08C8026F050
:103AE0000FF99FED779AF0EE409A07EE907AB42F97
:103AF000B8EEE7AA40F0AC8026F002F9F0EE400AFA
:103B0000B0EE690A0EF0ACFDF0EEC06AB0EE490A04
:103B10000EF0A6FDF0EE007AF4EEE76AF1EE10FA90
:103B2000B0EEC00A29DDF6EE007AA6EEE70AF5EE61
:103B3000007A66EEA76AB4EEE60AF1EE10FA1CD53A
:103B40000DF10F0305AA04A90020B0EE680A5BF08E
:103B5000AFFC0499C4F8CC100599C4F8D410012224
:103B600002239DF80F1084F85C3284F82C2184F82D
:103B7000D0108DF80E20CBF800309DF80E3033B900
:103B800084F82C31CBF8003001238DF80E305146EB
:103B9000B0EE480A48460FF063FA50F029FD52F0A3
:103BA00077F8B7EE000A50F08BFD204652F0F0FF98
:103BB0009DF80E30002B3FF46BAF009B3BB150F0F3
:103BC000E7FC831E594259412046FEF791FF019BB5
:103BD000002B3FF45DAF002221460E204AF070FC1E
:103BE00056E785F85C32284652F0D2FFDFED359A71
:103BF0009FED339AB04650F003FD07EE908AB8EE81
:103C0000E70AF0EE490A20EE280A80EE290A51F070
:103C100087FF50F0FDFC074600283FF457AF5146A0
:103C2000B0EE480A48460FF01BFA50F0E1FC52F0A3
:103C30002FF8B7EE000A50F043FD204652F0A8FFDF
:103C400028465EF09DFC20465EF09AFC3E462FE042
:103C500050F0D6FCF0EE4A0AB0EE680A51F060FF70
:103C600050F0D6FC8046C0B15146B0EE480A4846F6
:103C70000FF0F6F950F0BCFC52F00AF8B7EE000A6B
:103C800050F01EFD204652F083FF28465EF078FC7F
:103C900020465EF075FC46460AE0322009F0B8FE88
:103CA0005A2F03D126F02CF8B0EE409A01371CE7CA
:103CB000304609B0BDEC068BBDE8F08F6F12033AB9
:103CC0000000000000007A449FED117AD0ED366AC2
:103CD000D0ED397A20EE070AB7EE007A87EE006A57
:103CE00090ED387A66EE866A26EE077A67EEA77A56
:103CF000C0ED2F6ADFED076A80ED307A86EEA77A95
:103D0000DFED057A67EE277AC0ED3A7A704700BF9B
:0C3D1000BD3786356F12833A00247449D9
:10C0000072B6334880F3098840F20000CCF2000099
:10C010004EF63471CEF200010860BFF34F8FBFF3CC
:10C020006F8F40F20000C0F2F0004EF68851CEF261
:10C0300000010860BFF34F8FBFF36F8F4FF0000018
:10C04000E1EE100A4EF63C71CEF2000108600620C7
:10C0500080F31488BFF36F8F01F06AF90BF038FB9F
:10C060004FF055301B491C4A91423CBF41F8040B2C
:10C07000FAE71A49164A91423CBF41F8040BFAE725
:10C080001749184A184B9A423EBF51F8040B42F820
:10C09000040BF8E700201549154A91423CBF41F8CE
:10C0A000040BFAE701F04CF9124C134DAC4203DAE1
:10C0B00054F8041B8847F9E706F08AF80F4C104D36
:10C0C000AC4203DA54F8041B8847F9E701F040B9A1
:10C0D00000100020000000200008002000080020C0
:10C0E000C8D4070800100020381900203819002093
:10C0F000C0B1012000C0000800C0000800C0000856
:10C1000000C0000800000000000000000000000067
:10C110002DE9F04F2DED108AC1F80CD0D0F80CD0DD
:10C12000BDEC108ABDE8F08F62B62846A04700201B
:10C1300001F09EFC01F08CFB4EF60453CEF200039E
:10C140004FF080521A6062B6FEE700000000000067
:10C1500081F0004102E000BF83F0004330B54FEAB8
:10C1600041044FEA430594EA050F08BF90EA020F25
:10C170001FBF54EA000C55EA020C7FEA645C7FEAB8
:10C18000655C00F0E2804FEA5454D4EB5555B8BFDB
:10C190006D420CDD2C4480EA020281EA030382EA4C
:10C1A000000083EA010180EA020281EA0303362DDE
:10C1B00088BF30BD11F0004F4FEA01314FF4801CB1
:10C1C0004CEA113102D0404261EB410113F0004FC3
:10C1D0004FEA03334CEA133302D0524263EB43037A
:10C1E00094EA050F00F0A780A4F10104D5F1200E18
:10C1F0000DDB02FA0EFC22FA05F2801841F1000173
:10C2000003FA0EF2801843FA05F359410EE0A5F146
:10C2100020050EF1200E012A03FA0EFC28BF4CF077
:10C22000020C43FA05F3C01851EBE37101F000452D
:10C2300007D54FF0000EDCF1000C7EEB00006EEB3A
:10C240000101B1F5801F1BD3B1F5001F0CD34908C4
:10C250005FEA30004FEA3C0C04F101044FEA44521B
:10C2600012F5800F80F09A80BCF1004F08BF5FEAA2
:10C27000500C50F1000041EB045141EA050130BD82
:10C280005FEA4C0C404141EB010111F4801FA4F125
:10C290000104E9D191F0000F04BF01460020B1FA7A
:10C2A00081F308BF2033A3F10B03B3F120020CDAB2
:10C2B0000C3208DD02F1140CC2F10C0201FA0CF090
:10C2C00021FA02F10CE002F11402D8BFC2F1200CF5
:10C2D00001FA02F120FA0CFCDCBF41EA0C019040AB
:10C2E000E41AA2BF01EB0451294330BD6FEA0404F4
:10C2F0001F3C1CDA0C340EDC04F11404C4F12002DF
:10C3000020FA04F001FA02F340EA030021FA04F3F0
:10C3100045EA030130BDC4F10C04C4F1200220FA47
:10C3200002F001FA04F340EA0300294630BD21FA85
:10C3300004F0294630BD94F0000F83F4801306BF4B
:10C3400081F480110134013D4EE77FEA645C18BF3F
:10C350007FEA655C29D094EA050F08BF90EA020FD6
:10C3600005D054EA000C04BF1946104630BD91EACE
:10C37000030F1EBF0021002030BD5FEA545C05D1D1
:10C380004000494128BF41F0004130BD14F5800410
:10C390003CBF01F5801130BD01F0004545F0FE4184
:10C3A00041F470014FF0000030BD7FEA645C1ABFB9
:10C3B000194610467FEA655C1CBF0B46024650EAF0
:10C3C000013406BF52EA033591EA030F41F400211C
:10C3D00030BD00BF90F0000F04BF0021704730B5A2
:10C3E0004FF4806404F132044FF000054FF0000177
:10C3F00050E700BF90F0000F04BF0021704730B538
:10C400004FF4806404F1320410F0004548BF40420C
:10C410004FF000013EE700BF42004FEAE2014FEA61
:10C4200031014FEA02701FBF12F07F4393F07F4F3C
:10C4300081F06051704732F07F4208BF704793F03F
:10C440007F4F04BF41F40021704730B54FF4607452
:10C4500001F0004521F000411CE700BF50EA010255
:10C4600008BF704730B54FF000050AE050EA0102FE
:10C4700008BF704730B511F0004502D5404261EB6E
:10C4800041014FF4806404F132045FEA915C3FF4AF
:10C49000D8AE4FF003025FEADC0C18BF03325FEA4C
:10C4A000DC0C18BF033202EBDC02C2F1200300FAFD
:10C4B00003FC20FA02F001FA03FE40EA0E0021FA22
:10C4C00002F11444BDE600BF0000000000000000BF
:10C4D00070B54FF0FF0C4CF4E06C1CEA11541DBF1A
:10C4E0001CEA135594EA0C0F95EA0C0F00F0DEF8E5
:10C4F0002C4481EA030621EA4C5123EA4C5350EACA
:10C50000013518BF52EA033541F4801143F480131A
:10C5100038D0A0FB02CE4FF00005E1FB02E506F0AB
:10C520000042E0FB03E54FF00006E1FB03569CF000
:10C53000000F18BF4EF0010EA4F1FF04B6F5007F06
:10C5400064F5407404D25FEA4E0E6D4146EB060678
:10C5500042EAC62141EA55514FEAC52040EA5E5001
:10C560004FEACE2EB4F1FD0C88BFBCF5E06F1ED8AB
:10C57000BEF1004F08BF5FEA500E50F1000041EBE2
:10C58000045170BD06F0004646EA010140EA02008F
:10C5900081EA0301B4EB5C04C2BFD4EB0C0541EAB1
:10C5A000045170BD41F480114FF0000E013C00F3C6
:10C5B000AB8014F1360FDEBF002001F0004170BDEA
:10C5C000C4F10004203C35DA0C341BDC04F1140403
:10C5D000C4F1200500FA05F320FA04F001FA05F28F
:10C5E00040EA020001F0004221F0004110EBD3705C
:10C5F00021FA04F642EB06015EEA430E08BF20EA88
:10C60000D37070BDC4F10C04C4F1200500FA04F32A
:10C6100020FA05F001FA04F240EA020001F00041BC
:10C6200010EBD37041F100015EEA430E08BF20EA2F
:10C63000D37070BDC4F1200500FA05F24EEA020E77
:10C6400020FA04F301FA05F243EA020321FA04F0A6
:10C6500001F0004121FA04F220EA020000EBD3705D
:10C660005EEA430E08BF20EAD37070BD94F0000F5D
:10C670000FD101F00046400041EB010111F4801F91
:10C6800008BF013CF7D041EA060195F0000F18BF42
:10C69000704703F00046520043EB030313F4801F7E
:10C6A00008BF013DF7D043EA0603704794EA0C0F38
:10C6B0000CEA135518BF95EA0C0F0CD050EA41064E
:10C6C00018BF52EA4306D1D181EA030101F00041CB
:10C6D0004FF0000070BD50EA410606BF10461946F3
:10C6E00052EA430619D094EA0C0F02D150EA0136FF
:10C6F00013D195EA0C0F05D152EA03361CBF104640
:10C7000019460AD181EA030101F0004141F0FE41DE
:10C7100041F470014FF0000070BD41F0FE4141F462
:10C72000780170BD70B54FF0FF0C4CF4E06C1CEA62
:10C7300011541DBF1CEA135594EA0C0F95EA0C0F17
:10C7400000F0A7F8A4EB050481EA030E52EA0335D2
:10C750004FEA013100F088804FEA03334FF08055F3
:10C7600045EA131343EA12634FEA022245EA111520
:10C7700045EA10654FEA00260EF000419D4208BFD1
:10C78000964244F1FD0404F5407402D25B084FEA7E
:10C790003202B61A65EB03055B084FEA32024FF42A
:10C7A00080104FF4002CB6EB020E75EB030E22BF87
:10C7B000B61A754640EA0C005B084FEA3202B6EB47
:10C7C000020E75EB030E22BFB61A754640EA5C00F6
:10C7D0005B084FEA3202B6EB020E75EB030E22BF86
:10C7E000B61A754640EA9C005B084FEA3202B6EB87
:10C7F000020E75EB030E22BFB61A754640EADC0046
:10C8000055EA060E18D04FEA051545EA16754FEAA7
:10C8100006164FEAC30343EA52734FEAC2025FEAC5
:10C820001C1CC0D111F4801F0BD141EA00014FF054
:10C8300000004FF0004CB6E711F4801F04BF014325
:10C840000020B4F1FD0C88BFBCF5E06F3FF6AFAE41
:10C85000B5EB030C04BFB6EB020C5FEA500C50F1D1
:10C86000000041EB045170BD0EF0004E4EEA113154
:10C8700014EB5C04C2BFD4EB0C0541EA045170BD5B
:10C8800041F480114FF0000E013C90E645EA060E9F
:10C890008DE60CEA135594EA0C0F08BF95EA0C0FCD
:10C8A0003FF43BAF94EA0C0F0AD150EA01347FF415
:10C8B00034AF95EA0C0F7FF425AF104619462CE7EC
:10C8C00095EA0C0F06D152EA03353FF4FDAE10464F
:10C8D000194622E750EA410618BF52EA43067FF4A0
:10C8E000C5AE50EA41047FF40DAF52EA43057FF430
:10C8F000EBAE12E7000000000000000000000000A6
:10C900004FF0FF3C06E000BF4FF0010C02E000BF1B
:10C910004FF0010C4DF804CD4FEA410C7FEA6C5CFE
:10C920004FEA430C18BF7FEA6C5C1BD001B050EAA1
:10C93000410C0CBF52EA430C91EA030F02BF90EA8C
:10C94000020F0020704710F1000F91EA030F58BF4B
:10C95000994208BF90422CBFD8176FEAE37040F0AD
:10C96000010070474FEA410C7FEA6C5C02D150EA4B
:10C97000013C07D14FEA430C7FEA6C5CD6D152EA06
:10C98000033CD3D05DF8040B704700BF84461046CB
:10C9900062468C461946634600E000BF01B5FFF7CA
:10C9A000B7FF002848BF10F1000F01BD4DF808ED9A
:10C9B000FFF7F4FF0CBF012000205DF808FB00BF6B
:10C9C0004DF808EDFFF7EAFF34BF012000205DF8C5
:10C9D00008FB00BF4DF808EDFFF7E0FF94BF012012
:10C9E00000205DF808FB00BF4DF808EDFFF7CEFF13
:10C9F00094BF012000205DF808FB00BF4DF808ED52
:10CA0000FFF7C4FF34BF012000205DF808FB00BF22
:10CA10004FEA410C7FEA6C5C02D150EA013C0AD13A
:10CA20004FEA430C7FEA6C5C02D152EA033C02D12C
:10CA30004FF0000070474FF0010070470000000009
:10CA40004FEA410212F5001215D211D56FF4787336
:10CA5000B3EB625212D94FEAC12343F0004343EAD9
:10CA6000505311F0004F23FA02F018BF40427047B4
:10CA70004FF00000704750EA013005D111F000403E
:10CA800008BF6FF0004070474FF00000704700BFD4
:10CA90004A0011D212F5001211D20DD56FF478733D
:10CAA000B3EB62520ED44FEAC12343F0004343EA92
:10CAB000505323FA02F070474FF00000704750EADD
:10CAC000013002D14FF0FF3070474FF00000704747
:10CAD0004FEA4102B2F1E04324BFB3F5001CDCF1A0
:10CAE000FE5C0DD901F0004C4FEAC0024CEA5070D8
:10CAF000B2F1004F40EB830008BF20F00100704707
:10CB000011F0804F21D113F13872BCBF01F0004009
:10CB1000704741F480114FEA5252C2F11802C2F13B
:10CB2000200C10FA0CF320FA02F018BF40F00100BC
:10CB30004FEAC1234FEAD32303FA0CFC40EA0C006E
:10CB400023FA02F34FEA4303CCE77FEA625307D1AB
:10CB500050EA01331EBF4FF0FE4040F440007047E2
:10CB600001F0004040F0FE4040F40000704700BF7C
:10CB700080F0004002E000BF81F0004142001FBF92
:10CB80005FEA410392EA030F7FEA226C7FEA236C9B
:10CB90006AD04FEA1262D2EB1363C1BFD218414090
:10CBA00048404140B8BF5B42192B88BF704710F026
:10CBB000004F40F4000020F07F4018BF404211F0C9
:10CBC000004F41F4000121F07F4118BF494292EA31
:10CBD000030F3FD0A2F1010241FA03FC10EB0C005D
:10CBE000C3F1200301FA03F100F0004302D54942EA
:10CBF00060EB4000B0F5000F13D3B0F1807F06D397
:10CC000040084FEA310102F10102FE2A51D2B1F18E
:10CC1000004F40EBC25008BF20F0010040EA030083
:10CC20007047490040EB000010F4000FA2F1010230
:10CC3000EDD1B0FA80FCACF1080CB2EB0C0200FABA
:10CC40000CF0AABF00EBC25052421843BCBFD04008
:10CC50001843704792F0000F81F4000106BF80F482
:10CC600000000132013BB5E74FEA41037FEA226C45
:10CC700018BF7FEA236C21D092EA030F04D092F010
:10CC8000000F08BF0846704790EA010F1CBF002044
:10CC9000704712F07F4F04D1400028BF40F00040A1
:10CCA000704712F100723CBF00F50000704700F0C1
:10CCB000004343F0FE4040F4000070477FEA2262E8
:10CCC00016BF08467FEA23630146420206BF5FEAB9
:10CCD000412390EA010F40F4800070474FF00003B9
:10CCE00004E000BF10F0004348BF40425FEA000C80
:10CCF00008BF704743F0964301464FF000001CE028
:10CD000050EA010208BF70474FF000030AE000BF7D
:10CD100050EA010208BF704711F0004302D54042BB
:10CD200061EB41015FEA010C02BF8446014600202D
:10CD300043F0B64308BFA3F18053A3F50003BCFA48
:10CD40008CF2083AA3EBC25310DB01FA02FC6344F5
:10CD500000FA02FCC2F12002BCF1004F20FA02F2FC
:10CD600043EB020008BF20F00100704702F12002EF
:10CD700001FA02FCC2F1200250EA4C0021FA02F250
:10CD800043EB020008BF20EADC707047000000009F
:10CD90007BB972B90029BEBF00204FF0004106E008
:10CDA00008BF00281CBF6FF000414FF0FF3000F0BB
:10CDB0003FBAADF1080C6DE904CE002909DB002B68
:10CDC0001ADB00F0CDF8DDF804E0DDE9022304B061
:10CDD0007047404261EB4101002B1BDB00F0C0F8C3
:10CDE000DDF804E0DDE9022304B0404261EB4101DB
:10CDF000524263EB43037047524263EB430300F03C
:10CE0000AFF8DDF804E0DDE9022304B0404261EB55
:10CE100041017047524263EB430300F0A1F8DDF893
:10CE200004E0DDE9022304B0524263EB43037047A0
:10CE300053B94AB9002908BF00281CBF4FF0FF3181
:10CE40004FF0FF3000F0F4B9ADF1080C6DE904CEFD
:10CE500000F086F8DDF804E0DDE9022304B0704755
:10CE600007EE900AF5EEC07AF1EE10FA01D400F068
:10CE700027B808B580F0004000F022F8404261EB8E
:10CE8000410108BD0000000000000000000000009B
:10CE900038B50022002304460D46FFF791FD28B95E
:10CEA00020462946BDE8384000F032B8204605F15A
:10CEB000004100F02DF8404261EB410138BD00BF58
:10CEC000D0B5FFF7A9FA00220D4B06460F46FFF733
:10CED000FFFAFFF7DDFD0446FFF77CFA0022094B5D
:10CEE000FFF7F6FA02460B4630463946FFF734F9AB
:10CEF000FFF7CEFD0022234610431946D0BD00BFE8
:10CF00000000F03D0000F0410000000000000000C3
:10CF1000D0B500220D4B06460F46FFF7D9FAFFF7B2
:10CF2000B7FD0446FFF756FA0022094BFFF7D0FA87
:10CF300002460B4630463946FFF70EF9FFF7A8FDCB
:10CF40000022234610431946D0BD00BF0000F03D2B
:10CF50000000F041000000000000000000000000A0
:10CF60002DE9F047089E04468846002B4BD18A42A3
:10CF7000154667D9B2FA82F24AB1C2F1200701FA26
:10CF800002F320FA07F7954047EA030894404FEA76
:10CF9000154E230CB8FBFEF71FFA85FC0EFB178815
:10CFA00043EA084307FB0CF1994209D9EB1807F152
:10CFB000FF3080F01B81994240F21881023F2B44E0
:10CFC0005B1AA4B2B3FBFEF00EFB103344EA034439
:10CFD00000FB0CFCA44509D92C1900F1FF3380F0AB
:10CFE0000781A44540F2048102382C4440EA0740FE
:10CFF000A4EB0C0400271EB1D4400023C6E9004373
:10D000003946BDE8F0878B4209D9002E00F0EB804D
:10D010000027C6E9000138463946BDE8F087B3FA73
:10D0200083F7002F47D18B4202D3824200F2FA806D
:10D03000841A61EB030301209846002EE0D0C6E974
:10D040000048DDE702B9FFDEB2FA82F2002A40F0C2
:10D050008F80491B4FEA154E1FFA85F80127B1FB57
:10D06000FEFC230C0EFB1C1143EA014308FB0CF1F0
:10D07000994207D9EB180CF1FF3002D2994200F225
:10D08000CD808446591AA3B2B1FBFEF00EFB1014FA
:10D0900043EA044408FB00F8A04507D92C1900F125
:10D0A000FF3302D2A04500F2B6801846A4EB080474
:10D0B00040EA0C409FE7C7F1200CBB4022FA0CFE6F
:10D0C0004EEA030E01FA07F420FA0CF521FA0CF3EC
:10D0D0004FEA1E482543B3FBF8F92C0C08FB193323
:10D0E0001FFA8EFA44EA034309FB0AF49C4202FA4F
:10D0F00007F200FA07F10BD91EEB030309F1FF3029
:10D1000080F087809C4240F28480A9F10209734438
:10D110001B1BADB2B3FBF8F008FB103345EA034428
:10D1200000FB0AFAA24508D91EEB040400F1FF3304
:10D130006BD2A24569D90238744440EA0940A0FB89
:10D140000289A4EB0A044C45C2464B4654D351D045
:10D15000002E69D0B1EB0A0564EB030404FA0CFC61
:10D16000FD40FC404CEA0505C6E90054002747E7AE
:10D17000C2F1200320FA03F7954001FA02F021FAE8
:10D1800003F34FEA154E3843010CB3FBFEF71FFAC9
:10D1900085F80EFB173341EA034107FB08F38B4286
:10D1A00004FA02F407D9691807F1FF3C2FD28B4229
:10D1B0002DD9023F2944CB1A81B2B3FBFEF00EFBFE
:10D1C000103341EA034100FB08F38B4207D9691889
:10D1D00000F1FF3C17D28B4215D902382944C91AF5
:10D1E00040EA07473BE73746304609E70746E7E6A8
:10D1F0001846FBE64145ABD2B8EB020A69EB0E02DA
:10D2000001381346A4E76046E9E7184695E7674604
:10D21000D1E781467CE702382C4447E7ACF1020CA9
:10D220002B442FE7384608E73746E9E600000000C0
:10D23000704700BF00000000000000000000000078
:10D24000EC46A0E8F05F4FF000007047B0E8F05FF8
:10D25000E546080008BF0120704700BF000000003D
:10D2600010F8012B11F8013B012A28BF9A42F7D090
:10D27000D01A70470000000000000000000000000D
:10D28000034613F8012B002AFBD1181A0138704706
:10D2900001F0FF01102A2BDB10F0070F08D010F867
:10D2A000013B013A8B422DD010F0070F42B3F6D16B
:10D2B000F0B441EA012141EA014122F007047FF084
:10D2C00000070023F0E80256083C85EA010586EADB
:10D2D000010685FA47F5A3FA87F586FA47F6A5FA17
:10D2E00087F68EB9EED1F0BC01F0FF0102F0070223
:10D2F00032B110F8013B013A83EA010313B1F8D1CE
:10D300000020704701387047002D06BF35460338AE
:10D31000073815F0010F07D1013015F4807F02BFE7
:10D32000013015F4C03F0130F0BC0138704700BF38
:10D33000704700BF00000000000000000000000077
:10D34000704700BF00000000000000000000000067
:10D35000FEE700BF00000000000000000000000029
:10D36000FEE700BF00000000000000000000000019
:10D37000FEE700BF00000000000000000000000009
:10D380001F4B204A204830B500249C60D9684FF6D6
:10D39000FF0529400A43DA60C2681C491C4D42F06F
:10D3A0008072C2600A6842F0010283B00A6083F8AA
:10D3B000224000F00DF900F08BF800F019FC00F0AD
:10D3C00097FF00F0D5FF2846402100F051FAA5F163
:10D3D0003003104AC2610122986180F8202062B6B1
:10D3E0009B690D49996105F1580000940B4B4FF46E
:10D3F000F07100F09DFA0A4B836103B030BD00BFAD
:10D4000000ED00E00003FA05F0ED00E0001000E0A0
:10D410006819002000080020C0F2060871D3000837
:10D42000A0F206080000000000000000000000005C
:10D4300008B5044672B604F0D3FF014BDC62FEE788
:10D44000381900200000000000000000000000006B
:10D4500070B5124CA26992F8233013B1013B82F8E7
:10D460002330516AE3690E4E01315162A26AB34220
:10D4700002F10102A26210D09D68013D9D6065B974
:10D480001A68D968DD605660E26162B6186988473B
:10D4900072B6E3699A68002AF2D070BD381900208C
:10D4A00054190020000000000000000000000000EF
:10D4B000034A516853685B1A9842FBD8704700BF13
:10D4C000001000E00000000000000000000000006C
:10D4D000054B4FF0FF30002103F11C0258629962A6
:10D4E000C3E90722704700BF381900200000000080
:10D4F00030B40D4DEC690361A368C260994204D950
:10D500002468C91AA3688B42FAD36368C0E9004350
:10D51000186060608160A3684FF0FF32591AA16003
:10D520006A6230BC704700BF38190020000000005C
:10D53000036841689A6830B48568064C2A449A604A
:10D540000B60056800224FF0FF336960C2606362C0
:10D5500030BC7047381900200000000000000000B7
:10D5600072B690F82030072B0ED8DFE803F0270DB5
:10D570000D2308040D08826A936801339360D0E993
:10D5800000231A600268536010B400224FF0FF3489
:10D5900081680B4B846280F820201B689A688A425D
:10D5A000FBD25A68C0E900321060586062B65DF87C
:10D5B000044B7047836A00221A60E5E762B6704741
:10D5C00038190020000000000000000000000000EA
:10D5D000034B0022C3E90033C3E904339A60704768
:10D5E00038190020000000000000000000000000CA
:10D5F00001460022074B806881F820201B689A684A
:10D600008242FBD25A680846C1E900321160596073
:10D61000704700BF38190020000000000000000023
:10D6200038B50F4CA569236885F82000042285F8D9
:10D6300023201A68226001215460A36183F820101E
:10D64000EFF30982E969643A914203D90548FFF78B
:10D65000EFFEA36929461846BDE83840FEF758BDDD
:10D6600038190020B0F20608000000000000000099
:10D6700030B54B1C87B012D00C4C0D4AA36905463F
:10D6800001A8FFF735FF2846FFF7CAFF049B13B137
:10D6900001A8FFF74DFFA369986A07B030BD034C9E
:10D6A000FFF7BEFFA369986A07B030BD38190020A4
:10D6B00061D500080000000000000000000000002C
:10D6C0001D4B70B59D698668AC688162A6424FF0BB
:10D6D00000020BD880F820201B689A689642FBD97C
:10D6E0005A68C0E900321060586070BD85F820208B
:10D6F0001A46126891688C42FBD9516869600446E9
:10D7000001202A600D6055609C6184F82000EFF3D1
:10D710000983EA69643B9A4205D829462046BDE858
:10D720007040FEF7F5BC0548FFF782FE294620460B
:10D73000BDE87040FEF7ECBC38190020B0F20608D6
:10D74000084A9369116893F8232088689B6822B976
:10D75000984234BF002001207047984294BF0020B7
:10D760000120704738190020000000000000000070
:10D77000154B1A6870B510689C691860A168436001
:10D780001D4601269A610420002382F8206084F857
:10D79000203084F823002B461B689A689142FBD9FD
:10D7A0005A68C4E9003214605C60EFF30983E269EF
:10D7B000643B9A4202D90548FFF73AFE2146A86920
:10D7C000BDE87040FEF7A4BC38190020B0F206088E
:10D7D000134B1A6870B510689C691860A1684360A3
:10D7E0000126002082F820601D469A6184F82000FE
:10D7F0001B689A689142FBD35A68C4E900321460EE
:10D800005C60EFF30983E269643B9A4202D9054800
:10D81000FFF70EFE2146A869BDE87040FEF778BC10
:10D8200038190020B0F206080000000000000000D7
:10D83000044B1A689B6992689B689A4200D87047AB
:10D84000FFF7C6BF381900200000000000000000EC
:10D85000044B9B6993F823300BB1FFF7B9BFFFF777
:10D8600087BF00BF38190020000000000000000042
:10D8700070B4114C41646569816002220421028404
:10D8800080F823100022012145610461C0E90F22C4
:10D890004262826100F12C0680F8221000F1300211
:10D8A000286100F150056061C662C561C164C0E9CC
:10D8B0000C2270BC704700BF381900200000000027
:10D8C000884203D200F8012B8142FBD1704700BF90
:10D8D000F0B4154E049D776964390144C160C1E913
:10D8E0001035124B0B66022304210384002382604F
:10D8F000426400F12C0580F823100122C0E90F33A7
:10D900004362836100F1500100F13003C0E9046714
:10D9100080F822203861C5627061C264C161C0E9CB
:10D920000C33F0BC704700BF3819002029C1000833
:10D93000F8B5064600F15005FF2400F8014B85427A
:10D94000FBD17518854206D904464FF0550C04F8F2
:10D9500001CBA542FBD172B664393144154C164F48
:10D960006569F1600B64069B4B6404230F664FF0FE
:10D97000020CB2600021726486F82330012206F1A5
:10D98000300306F12C07C6E90445A6F820C0C6E915
:10D990000F117162B16186F822202E61F061F76289
:10D9A000F264C6E90C3330466661FFF789FE62B661
:10D9B0003046F8BD3819002029C1000800000000D9
:10D9C00010B572B6074B9B695C6C9968A14201D097
:10D9D000814200D298605864FFF72AFF62B6204661
:10D9E00010BD00BF3819002000000000000000003A
:10D9F00072B690F8213043F0040380F8213062B60B
:10DA0000704700BF000000000000000000000000A0
:10DA100008B5014672B60820FFF72AFE62B608BDB7
:10DA200038B50F4B9C69E36AA06204F12C05AB4248
:10DA300007D01A68E2621846FFF7DAFDE36AAB42E4
:10DA4000F7D194F821309B0704D1D4E904231A615B
:10DA5000226953610F20BDE83840FFF7E1BD00BFE8
:10DA60003819002000000000000000000000000045
:10DA700072B6FFF7D5BF00BF000000000000000035
:10DA800038B5044672B690F820300F2B07D0074BFC
:10DA9000C26A9B6909201A60E362FFF7C1FDA56AAB
:10DAA00062B6204600F0C4F8284638BD3819002078
:10DAB00010B5054CA369036002469A620320FFF784
:10DAC000AFFDA369986A10BD38190020000000005E
:10DAD000054B02469B6921B1036003209A62FFF760
:10DAE000C7BD4FF0FF30704738190020000000001C
:10DAF00003682BB10022026018469962FFF778BDD7
:10DB0000704700BF0000000000000000000000009F
:10DB100069B1084B10B4024644689B690420C3E90C
:10DB20000024236053605DF8044BFFF7A1BD4FF064
:10DB3000FF3070473819002000000000000000008E
:10DB4000026890420AD010B414680460034663600F
:10DB5000104691625DF8044BFFF74ABD704700BF65
:10DB600038B5036898420BD004460D461A68226007
:10DB7000184654609D62FFF73BFD23689C42F5D137
:10DB800038BD00BF000000000000000000000000E1
:10DB9000014B5B6883607047001000E000000000EC
:10DBA0000E4B0F4A5B68C168F0B48468D2F880609D
:10DBB00042681B1BD0E904459B1BE61845F1000792
:10DBC0009342026888BF436001319342C0E9046711
:10DBD000C0E9023138BF0360F0BC7047001000E0BC
:10DBE00038190020000000000000000000000000C4
:10DBF00010B50D4C86B000234FF0FF31002268466F
:10DC0000C4F88030CDE9013303930023CDE9042328
:10DC10000091FFF7BDFF6846FFF7C2FF029BC4F803
:10DC2000803006B010BD00BF381900200000000091
:10DC3000014672B690F82230013BDBB280F8223008
:10DC400062B61BB990F820300F2B00D0704790F8C7
:10DC5000213003F00303012B02D0022B07D07047C1
:10DC6000D0E904231A610269536100F091BBD0E945
:10DC700004231A610269806C536100F0F9BB00BF94
:10DC800072B6044B186990F82230013380F82230C4
:10DC900062B6704738190020000000000000000044
:10DCA00010B572B6074B04699C421DBF94F8223030
:10DCB000013384F82230002462B6FFF7B9FF204612
:10DCC00010BD00BF38190020000000000000000057
:10DCD000C0E9000081607047000000000000000003
:10DCE00070B5856881600135002D0CDC04466FF04D
:10DCF00001066068436863601C60FFF779FC0135CA
:10DD0000012D8662F5D170BD00000000000000000A
:10DD100008B572B6FFF7E4FFFFF78AFD62B608BDEB
:10DD200072B68368013B002B836002DB002062B681
:10DD3000704710B5074C4168A26903469362C2E977
:10DD4000003105200A605A60FFF76AFCA369986AEF
:10DD500062B610BD3819002000000000000000006D
:10DD600072B68268531E002B836002DB002062B60D
:10DD7000704710B569B1094A4468926903469362D5
:10DD8000C2E90034052022605A60FFF771FC62B6D8
:10DD900010BD82604FF0FF30F9E700BF3819002056
:10DDA00008B572B683680133002B836001DD62B66B
:10DDB00008BD0346006802681A6000215360FFF73F
