:020000040800F2
:100000000008002001C00008212501083125010851
:1000100041250108512501086125010861D3000827
:1000200061D3000861D3000861D3000861D30008E0
:1000300061D3000861D3000881E4000881F9000859
:1000400061D30008F124010861D3000861D30008DE
:1000500061D3000861D3000861D3000861D30008B0
:1000600061D3000861D3000861D3000821F40008BF
:1000700051F4000881F40008B1F40008E1F400082C
:1000800011F5000841F500085124010841FC000861
:1000900061FC000881FC0008A1FC00087124010833
:1000A000E117010861D3000861D3000861D300089B
:1000B000C124010891240108C117010861D3000877
:1000C00061D30008C1030108D104010861D300080D
:1000D00061D30008411B0108611B0108811B010855
:1000E00061D3000861D3000861D3000861D3000820
:1000F00061D3000861D3000861D3000871F50008DE
:1001000061D3000861D3000861D3000861D30008FF
:10011000A11B0108C11B010861D3000861D30008BD
:10012000A1F50008D1F5000801F6000831F6000835
:1001300061F6000861D3000861D30008C1FC000823
:10014000E1FC000801FD000821FD00087112010812
:1001500091F60008C1F60008F1F60008E11B01085D
:1001600061D3000861D3000861D3000861D300089F
:1001700061D3000861D3000861D3000861D300088F
:1001800061D3000861D3000861D3000861D300087F
:1001900061D3000861D3000861D3000861D300086F
:1001A00061D3000861D3000861D3000861D300085F
:1001B00061D3000861D3000861D3000861D300084F
:1001C0002DE9F04F2DED068B0446F9B001468B4822
:1001D0004BF096FE20468A49894C69F0D1FF0026F3
:1001E00038AD48B1402E08D045F826002146002001
:1001F00069F0C6FF0136F4E70EB1002702E081483E
:1002000002F08DB9389CE55D65B167F0A1FE284428
:10021000437803F00303012B389B08BF2035DD55DD
:100220000137EFE7784BDFF84C82D3F80090A9450F
:1002300011DD2B0108EB0302D76857B153F8081002
:1002400020460DF00DF820B938A93046B84702F025
:100250006DB90135EBE76D4920460DF001F850B955
:100260006B484BF04DFE4FF47A7052F071FF52F034
:1002700077FF02F05BB9674920460CF0F1FF38BB0D
:1002800057F07EF89FED648A60EE087A17EE900AC8
:100290000CF0C2F802460B4660484BF031FE52F0BB
:1002A0003FFB60EE087A17EE900A0CF0B5F80246B4
:1002B0000B465B484BF024FE52F012FC60EE087ACD
:1002C00017EE900A0CF0A8F802460B4655480DE0D0
:1002D000554920460CF0C4FF60B956F0F1FB10EE12
:1002E000100A0CF099F8024650480B464BF008FEF5
:1002F00002F01CB94E4920460CF0B2FF88B91FA984
:100300000EF08EF804460EF023F8014649484BF0F3
:10031000F7FD214648484BF0F3FD1F99474802F08E
:1003200003B9474920460CF09BFF002849D14548B6
:10033000454E9FED468A464D4BF0E2FD45484BF059
:10034000DFFD0DF09DFC0446204660F019FED4F858
:1003500024802A6894ED097AB36A9B1A07EE903AD2
:10036000B8EE477AF8EE677A27EE087A0746C7EEC6
:10037000277A17EE900A0CF04FF8CDE90478CDE912
:100380000601E36C0393A369029394F82020324B97
:10039000324853F82230019394F82230013B009305
:1003A000D4E9023221464BF0ABFD002363622046C4
:1003B0000DF076FC04460028C6D1B36A2B6002F02B
:1003C000ADB8274920460CF04BFF38B951F018FF63
:1003D00051F01EFF0146234802F0A6B822492046EC
:1003E0000CF03EFF0546002840F0F8801F4E3368B1
:1003F000002B41D11E4802F092B800BFFFCF060883
:100400006BD1060807D0060878300020DE550708B3
:100410001CD0060831D0060800007A4443D00608F4
:1004200060D0060886D00608ABD00608AED0060815
:10043000CCD00608D0D00608ECD0060802D10608B9
:1004400074EA06081FD10608281900200000C842D7
:100450006C3A00206DD10608B0CF0608BBD1060863
:1004600028780708624407082AE90608683A002045
:10047000F2D106087C30002051F0C2FE51F0C8FED7
:1004800001469048904FDFF8CCB2DFF8CCA24BF099
:1004900037FD8E484BF034FD3368AB4242F3468063
:1004A0004FF04C0808FB05F807EB0804607851F0A2
:1004B000AFFE014658464BF023FD17F80810504692
:1004C0004BF01EFD60680BF0A7FF02460B4680480C
:1004D0004BF016FDA0680BF09FFF02460B467D48CF
:1004E0004BF00EFDE0680BF097FF02460B467A4892
:1004F0004BF006FD60690BF08FFF02460B46774814
:100500004BF0FEFCA0690BF087FF02460B467448D7
:100510004BF0F6FCE16973484BF0F2FC216A72483B
:100520004BF0EEFCD4ED0B7A94ED057A6F48F8EEC3
:10053000E77A67EE877AFDEEE77A17EE901A4BF0CE
:10054000DFFC616A6A484BF0DBFCA16A69484BF04A
:10055000D7FCE16A68484BF0D3FC216B67484BF04D
:10056000CFFC606B0BF058FF02460B4664484BF023
:10057000C7FCE36B6BB363491FA868F0D9FEE16B5E
:100580000DF18F0068F0D4FE236C1BB91FA84BF04F
:10059000B7FC1EE0236C012B08D1606C0BF03CFF14
:1005A00002460B461FA84BF0ABFC12E0236C022B5B
:1005B0000FD1606CA46C0BF02FFF8046204689465B
:1005C0000BF02AFF4246CDE900014B461FA84BF035
:1005D00097FC4D484BF094FC01355DE74B492046B4
:1005E0000CF03EFE00285CD172B6494B5A6A149258
:1005F000484A516A1591596A16914FF08041496AEB
:1006000017911968C1F3001118911168C1F3001115
:100610001F9162B64048D3F83490D3F83880DF6B2E
:10062000DC6A566BD3F840A0956B14994BF068FCCC
:1006300015993A484BF064FC179939484BF060FC27
:10064000159A1499169B374801EB4201194402236D
:1006500091FBF3F1611A4BF053FC494632484BF0E1
:100660004FFC414631484BF04BFC394630484BF08B
:1006700047FC21462F484BF043FC18992E484BF07D
:100680003FFC1F992D484BF03BFC31462C484BF06A
:1006900037FC51462B484BF033FC29462A4801F0E1
:1006A00043BF2A4920460CF0DBFD002856D151F00B
:1006B000A7FF10EE100A0BF0AFFE02460B462448CF
:1006C00014E600BF16D20608FC32002028D2060825
:1006D00087D206089FD20608B7D20608CFD20608EE
:1006E000E7D20608FFD2060815D306082BD3060862
:1006F00041D3060857D306086DD3060883D30608EE
:1007000099D30608B1D306086BD10608C5D30608ED
:100710000000014000040140C9D30608D6D30608F2
:10072000E3D30608F0D3060803D4060813D406085A
:1007300023D4060833D406083BD4060844D406085C
:100740004DD4060860D4060875D406088BD4060874
:1007500090D406085BD2060871D20608BF4920462D
:100760000CF07EFD002840F0DA80042E40F0D480AA
:10077000BB4BBC493998139313AA1493159368F093
:100780009FFD14AAB7493A989FEDB78A68F098FD83
:1007900015AAB4493B9868F093FDB4484BF0B0FB00
:1007A000DDED137AF5EEC07AF1EE10FAF2EE048A7E
:1007B0006FDD51F0EDFC9DED130AD0ED007AF4EE03
:1007C000C07AF1EE10FA64DDDDED140AF4EEE80A09
:1007D000F1EE10FA5DDDDFEDA67AF4EEE70AF1EE58
:1007E00010FA56D59DED151AB4EEC81AF1EE10FAAE
:1007F0004FDDDFEDA07AB4EEE71AF1EE10FA48D53E
:1008000018AB1FAA17A916A802F0B5F900283DD009
:1008100016980BF001FE02460B4697484BF070FB12
:1008200017980BF0F9FD02460B4694484BF068FB15
:10083000189B0BB9924802E05F1C1CD191484BF009
:100840005FFB9DF9830004909DF9820003909DF960
:10085000810002909DF9800001909DF97F00009039
:100860009DF97E309DF97D209DF97C1086484BF0E6
:1008700047FB01F05BBE9E1C02D1844801F04FBED5
:10088000033341F05386824801F049BE814801F0AC
:1008900046BE81484BF034FBDDED137AF5EEC07AAD
:1008A000F1EE10FA0ADC51F073FC00680BF0B4FDB5
:1008B00002460B4679484BF023FB0AE051F068FCF6
:1008C000DDED137A90ED007AB4EEE77AF1EE10FAEE
:1008D000E9DDDDED147AF4EEE87AF1EE10FA06DDEA
:1008E0009FED637AF4EEC77AF1EE10FA02D46C4809
:1008F0004BF006FBDDED157AF4EEC87AF1EE10FA56
:1009000007DD9FED5C7AF4EEC77AF1EE10FA01F1A3
:100910000586644801F036B8634801F000BE6349BB
:1009200020460CF09DFCC8B91FA856F039FD1F9851
:100930000BF072FD02460B465D484BF0E1FA209841
:100940000BF06AFD02460B465A484BF0D9FA219843
:100950000BF062FD02460B465748C7E45749204654
:100960000CF07EFC054600286CD1022E73D13C4B66
:100970003C493998179317AA68F0A2FC5FF0C8FBAE
:10098000044651F005FC4FF435720146204667F0ED
:1009900027FB4B484BF0B4FADDED177AF5EEC07A41
:1009A000F1EE10FA4FF0000742DD94ED007AF4EE1C
:1009B000C77AF1EE10FA3BD827F0A2F9002833D01D
:1009C00094F8928084F89260204653F0D9FE9DED11
:1009D000170A189716AB1FAA18A901201F978DF8A0
:1009E00058505CF05DFB204684F8928053F0C8FEBE
:1009F00018980BF011FD02460B4632484BF080FA76
:100A00001F980BF009FD02460B462F484BF078FA71
:100A10009DF858102D4A2E4B2E4800290CBF114628
:100A200019464BF06DFA0BE02B484BF069FA07E0E2
:100A300020680BF0F1FC02460B4628484BF060FAA8
:100A4000204643E2264920460CF00AFC002840F0EC
:100A5000A180022E48D0234801F061BDA5D406082C
:100A6000000080BFB2D406080AD7A33CB5D406085C
:100A700000803B45CDCC4C3FD6D40608F3D40608C5
:100A800009D5060845D5060825D5060863D5060804
:100A900091D50608C0D50608F8D506080CD6060874
:100AA00031D6060852D6060874D60608B0D606080F
:100AB000B8D60608CED60608ECD6060807D706082C
:100AC0001AD706082FD706083FD70608F5CF06081D
:100AD000F0CF06084FD706085ED7060874D7060879
:100AE000DED70608AFD70608B74BB8493998189330
:100AF00018AA68F0E5FB5FF00BFB044651F048FBD9
:100B00004FF435720146204667F06AFA5FF000FB49
:100B1000054651F03DFB4FF435720146284667F01B
:100B20005FFAAB484BF0ECF9DDED187AF5EEC07AE0
:100B3000F1EE10FA25DD94ED007AF4EEC77AF1EECD
:100B400010FA1ED8204684F8926053F019FE002354
:100B50001FAA01214FF4FA609DED180A1F935CF063
:100B6000AFFD40B91F980BF057FC02460B46994861
:100B70004BF0C6F9A3E1C0B251F04AFB01469648DA
:100B800098E120680BF048FC02460B4693484BF076
:100B9000B7F997E1924920460CF062FB00285CD13E
:100BA000022E71D1884B89493998169316AA68F09C
:100BB00087FB8C484BF0A4F9DDED167AF5EEC07A90
:100BC000F1EE10FA46DD9FED887AF4EEC77AF1EE89
:100BD00010FA3FD85FF09CFA044651F0D9FA4FF46E
:100BE00035720146204667F0FBF95FF091FA054641
:100BF00051F0CEFA4FF435720146284667F0F0F90D
:100C0000204684F8926053F0BBFD1FAB18AA17A9C9
:100C10004FF4C8709DED160A5CF012FEA0B91F9843
:100C20000BF0FAFB064617980F460BF0F5FBCDE9E3
:100C3000020118980BF0F0FB3246CDE900013B466B
:100C40006A484BF05DF93AE1C0B251F0E1FA014671
:100C500067482FE1674801F062BC674920460CF005
:100C6000FFFAA0B1654920460CF0FAFA002800F01E
:100C7000DB80634920460CF0F3FA0546002840F07B
:100C80000182022E00F026815E4801F048BC052E4C
:100C900040F097804C4B4D493998159315AA1693FF
:100CA0001793189368F00CFB16AA48493A989FEDE1
:100CB000568A68F005FB17AA44493B9868F000FB88
:100CC00018AA42493C9868F0FBFA50484BF018F9D2
:100CD000DDED157AF5EEC07AF1EE10FA2BDD51F06C
:100CE00057FA9DED150AD0ED007AF4EEC07AF1EED8
:100CF00010FA20DB9DED171AB5EEC01AF1EE10FACE
:100D000019DDDDED160AF4EEC80AF1EE10FA12DD77
:100D1000DFED357AF4EEE70AF1EE10FA0BD8DDEDEF
:100D2000181AF5EEC01AF1EE10FA04DB1FA802F053
:100D3000D5F81F9876E136484BF0E2F8DDED157AEC
:100D4000F5EEC07AF1EE10FA0ADC51F021FA0068F3
:100D50000BF062FB02460B462E484BF0D1F80AE03E
:100D600051F016FADDED157A90ED007AB4EEE77ADF
:100D7000F1EE10FAE9DBDDED167AF4EEC87AF1EE69
:100D800010FA06DD9FED187AF4EEC77AF1EE10FA4C
:100D900002D921484BF0B4F8DDED177AF5EEC07AB0
:100DA000F1EE10FA02DC1D484BF0AAF8DDED187ADE
:100DB000F5EEC07AF1EE10FA81F2B083184800F037
:100DC000E1BD184801F0ABBB000080BFB2D40608FB
:100DD000EAD7060802D8060818D8060874D7060805
:100DE0007ED806088AD806086666663FA2D8060836
:100DF000D5D8060802D9060863D9060864DA0608B9
:100E000012DB060837D906080AD7A33C73D90608AF
:100E1000A1D906080CD60608B6D90608D8D90608FE
:100E2000F6D906081ADA06085FF072F9044651F09E
:100E3000AFF94FF435720146204667F0D1F85FF004
:100E400067F9054651F0A4F94FF43572014628467A
:100E500067F0C6F8022384F89230204653F090FCE5
:100E600079484BF04DF800231FAA18A917A817932B
:100E700018931F935DF0B4F8B8B917980BF0CCFA3B
:100E800002460B4671484BF03BF818980BF0C4FA39
:100E900006461F980F460BF0BFFA3246CDE9000117
:100EA0003B466B484BF02CF809E0C0B251F0B0F96A
:100EB000014668484BF024F867484BF021F8284673
:100EC00053F05EFC20465FF053F928465FF050F97E
:100ED00001F02CBB614B624939981F931FAA68F03F
:100EE000EFF960484BF00CF8DDED1F7AF5EEC07AB3
:100EF000F1EE10FA40F3A4809FED5B7AF4EEC77A2E
:100F0000F1EE10FA00F29C805FF002F9044651F015
:100F10003FF94FF435720146204667F061F85FF003
:100F2000F7F8074651F034F94FF435720146384668
:100F300067F056F8022384F89230204653F020FCE4
:100F400012F0DEF8804612F0E3F8B0EE40AA12F09C
:100F5000E7F8814612F09CF800219FED440A9FEDCE
:100F6000448A4EF6602012F07BF807EE905AF8EEB5
:100F7000E77A87EE880ADDED1F7A20EE270A52F025
:100F800047F951F03DF9064628B9C82001350CF063
:100F90003FFD642DE9D19FED358A4FF47A75F0EE6F
:100FA000488AB0EE489AF0EE489AF7EE00AA5BF055
:100FB000F7FF79EE809A51F00BFA39EE009A51F072
:100FC0009FFA0A2038EE008A0CF022FD013D78EEEF
:100FD000AA8AECD152F054FCB7EE000A51F068F93D
:100FE000384653F0CDFB20465FF0C2F838465FF03C
:100FF000BFF84946B0EE4A0A404612F031F8C8EE52
:10100000287A89EEA87AD4ED386AA6EEE77AC9EE96
:10101000287ADFED186A67EEA67AC7EE276A46B926
:1010200016EE900A0BF0F8F902460B461248FFF74D
:101030005DB9F0B251F0ECF80146104800F0D4BFB1
:101040000F4801F06CBA00BF74DA06089BDA060894
:10105000B0DA0608D6DA060847D80608000080BFCE
:10106000B2D4060826DB06086666663F000000006C
:101070000000C8425077D63D8DD9060844DB0608EB
:1010800071DB0608914920460CF0EAF8002840F090
:10109000F280062E40F0EC808D4B8E4939981093EB
:1010A00010AA119312931393149368F009F911AADB
:1010B00088493A989FED888A68F002F912AA854912
:1010C0003B9868F0FDF813AA82493C9868F0F8F85C
:1010D00014AA80493D9868F0F3F880484AF010FF60
:1010E000DDED107AF5EEC07AF1EE10FA4FF0000463
:1010F0006FDD51F04DF89DED100AD0ED007AF4EE61
:10110000C07AF1EE10FA64DB9DED121AB5EEC01A4A
:10111000F1EE10FA5DDDDDED110AF4EEC80AF1EE34
:1011200010FA56DDDFED6E7AF4EEE70AF1EE10FA12
:101130004FD8DDED131AF5EEC01AF1EE10FA48DBC8
:101140009DED142AB5EEC02AF1EE10FA41DB15949C
:10115000169417940DF13F061FAD18AC0296019539
:1011600000940DF13E0317AA16A915A802F0C0F8C5
:1011700040BB9DF83E3013B333780A9328680BF0D8
:101180004BF9CDE9080120680BF046F9CDE90601DD
:1011900017980BF041F9CDE9040116980BF03CF9D2
:1011A000CDE9020115980BF037F94E4B4E4ACDE9C7
:1011B00000014E494E484AF0A3FE01F0B7B94D4830
:1011C00001F0ADB9C0B251F023F801464A4800F031
:1011D0000BBF4A484AF094FEDDED107AF5EEC07A76
:1011E000F1EE10FA0ADC50F0D3FF00680BF014F9AE
:1011F00002460B4642484AF083FE0AE050F0C8FF20
:10120000DDED107A90ED007AB4EEE77AF1EE10FAA7
:10121000E9DBDDED117AF4EEC87AF1EE10FA06DDC5
:101220009FED2F7AF4EEC77AF1EE10FA02D9354825
:101230004AF066FEDDED127AF5EEC07AF1EE10FAB4
:1012400002DC31484AF05CFEDDED137AF5EEC07A3F
:10125000F1EE10FA02DA2D484AF052FEDDED147A72
:10126000F5EEC07AF1EE10FA81F25881284889E350
:10127000284801F054B9284920460BF0F1FF30B955
:1012800026484AF03DFE5DF05BFD01F047B9244978
:1012900020460BF0E5FF00284AD122484AF030FEF4
:1012A00001205DF085F8011E0DDB50F071FF044652
:1012B00050F066FF851E69426941204601F018FC26
:1012C000194801F02CB9194801F02EB9A5DB060820
:1012D000000080BFB2D406080AD7A33CBEDB0608D4
:1012E0006666663FE1DB0608FFDB06081FDC0608D2
:1012F0003FDC06089DDC0608BCDC0608A1D9060810
:101300000CD60608B6D90608EBDC0608F6D906089E
:1013100013DD060837DD060895DD06089FDD0608A3
:10132000AADD0608B5DD0608D9DD0608E0DD0608F9
:10133000A94920460BF094FF0246002840F0E580C2
:101340000721A648A64C4AF0DBFDA649A6484AF06C
:10135000D7FDA648A64BA74AA74900781B78127864
:1013600009780890A54800780790A548007806906D
:10137000A44800780590A44800780490A348007819
:101380000390A34800780290A24800780190A248F8
:1013900000780090A1484AF0B3FDA14BA14A19780A
:1013A000A14BA24800290CBF114619464AF0A8FDDE
:1013B0009F484AF0A5FD51F0C3FE01469D484AF002
:1013C0009FFD21699C4863694AF09AFD94F8A0103A
:1013D0009A4849B24AF094FD94F80E1298484AF09F
:1013E0008FFD94F80D1297484AF08AFD50F0C8FE20
:1013F000821E5342534115A916AA14A85BF0E0FAC5
:1014000014980BF009F8044616980D460BF004F8F2
:10141000CDE9020115980AF0FFFF2246CDE900014F
:101420002B4689484AF06CFD50F0AAFE811E4B42C3
:101430004B411FAA18A917A85BF0F2FA17980AF0F7
:10144000EBFF04461F980D460AF0E6FFCDE90201C6
:1014500018980AF0E1FF2246CDE900012B467B48AF
:101460004AF04EFD50F08CFE0238434243411FAA21
:1014700018A917A85BF0ECFA17980AF0CDFF0446FC
:101480001F980D460AF0C8FFCDE9020118980AF02E
:10149000C3FF22462B46CDE900016D484AF030FDDE
:1014A0004CF0C6FE01466B484AF02AFD4CF0B0FFF6
:1014B000014669484AF024FD43A3D3E90023674865
:1014C0004AF01EFD42A3D3E9002365484AF018FD07
:1014D0000022644B64484AF013FD5EF0C1FE0446EE
:1014E0005EF0AEFE21460246092360484AF008FD40
:1014F0005EF0CEFE04465EF0ABFE022302462146BD
:101500005B484AF0FDFC01F009B85A4920460BF04F
:10151000A7FE002840F0BC80032E52D1564B5749FD
:101520003998189318AA1F9367F0CAFE1FAA534947
:101530003A9867F0C5FE52484AF0E2FCDDED187AB1
:10154000F5EEC07AF1EE10FA1ADD50F021FEDDED75
:10155000187A90ED007AB4EEE77AF1EE10FA0FDB2C
:10156000DDED1F7AF5EEC07AF1EE10FA08DB11F02E
:101570008FFDDDED1F0A9DED180A52F089F8BCE0E1
:1015800040484AF0BDFCDDED187AF5EEC07AF1EE88
:1015900010FA0ADC50F0FCFD00680AF03DFF02463C
:1015A0000B4639484AF0ACFCC1E050F0F1FDDDEDEE
:1015B000187A90ED007AB4EEE77AF1EE10FAE9DBF2
:1015C000B5E0324800F0ABBF0000000000307140D1
:1015D0000000002033535A40F3DD0608FDDD060805
:1015E00000000010E6F906080DDE06081B7AFF1F52
:1015F000127AFF1F117AFF1F107AFF1F1A7AFF1F3E
:10160000197AFF1F187AFF1F177AFF1F167AFF1F1C
:10161000157AFF1F147AFF1F137AFF1F1ADE0608C0
:101620002048002082DE0608FBCF06085CDE0608A4
:1016300074DE060885DE060895DE0608A5DE0608C7
:10164000B6DE0608C7DE0608D8DE0608FCDE060899
:1016500020DF06084DDF060863DF06087ADF06088C
:101660009CDF060800408F40BEDF0608D1DF060879
:10167000FDDF06082AE00608000080BFB2D4060895
:1016800037E00608A1D906080CD6060871E006085E
:10169000C04920460BF0E4FD002855D1032E50D15F
:1016A000BD4BBE493998189318AA1F9367F008FEDE
:1016B0001FAABA493A9867F003FEB9484AF020FCDD
:1016C000DDED187AF5EEC07AF1EE10FA1BDB9FED36
:1016D000B57AF4EEC77AF1EE10FA14D8DDED1F7A80
:1016E000F5EEC07AF1EE10FA0DDB11F0D1FCDDED74
:1016F0001F0A9DED180A52F04BF850F081FD0028AA
:1017000000F0148701E1A8484AF0FAFBDDED187AF1
:10171000F5EEC07AF1EE10FA06DB9FEDA27AF4EE58
:10172000C77AF1EE10FA02D9A0484AF0E9FBDDEDE4
:101730001F7AF5EEC07AF1EE10FA80F2EF869C483F
:1017400020E19C4800F0EBBE9B4920460BF088FD51
:1017500008BB022E1CD14FF0FF331FAA97493998BE
:101760001F9367F0ADFD96484AF0CAFB1F9B002B04
:101770000BDB382218A831468DF860208DF86130D7
:101780004AF086FB8F4800F0CABE8F4800F0C7BE03
:101790008E4800F0C4BE8E4920460BF061FD002843
:1017A00037D1022E7FF457A97B4B7C493998189387
:1017B00018AA67F085FD87484AF0A2FBDDED187A8C
:1017C000F5EEC07AF1EE10FA40F3DD8450F0E0FC63
:1017D0009DED180AD0ED007AF4EEC07AF1EE10FA21
:1017E000C0F2D18401211FAA084602F0D9F850B9ED
:1017F0001F99002900F04182012900F04582022949
:1018000040F04D8247E2C0B250F002FD01467248FE
:10181000EAE3724920460BF023FD002840F0F680F1
:10182000042E40F0B3805C4B5C493998179317AA9B
:1018300018931F9367F044FD18AA58493A9867F027
:101840003FFD1FAA55493B9867F03AFD64484AF0AE
:1018500057FB9DED178A50F09BFCD0ED007AB0EE5F
:10186000C88AB4EEE78AF1EE10FA61D8DDED1F7A8E
:10187000F5EEC07AF1EE10FA5ADB9FED5A7AF4EEEB
:10188000C77AF1EE10FA53D89DED187ADFED567A4B
:10189000B4EEE77AF1EE10FA3CD811F0F9FBDDED89
:1018A0001F0A9DED170A51F033FF50F0A9FC0028E4
:1018B00000F0C98429E0142001340CF0A9F8C72CE9
:1018C0000DDDDDED187A77EEC87A344617EE900A12
:1018D0000AF0A2FD02460B4628464AF011FB38EEFC
:1018E000288ADDED187AF4EEC87AF1EE10FA18DDE8
:1018F00011F0CEFBDDED1F0A9DED170A51F008FF38
:1019000050F07EFC06460028D5D050F081FC014600
:10191000364869E300249FED368A364DDFED368A7E
:10192000DFE79FED330A51F0B3FD344800F0F7BD17
:101930001D484AF0E5FA9DED178A50F029FCD0EDDC
:10194000007AB0EEC88AB4EEE78AF1EE10FA09D94F
:1019500050F01EFC00680AF05FFD02460B46284866
:101960004AF0CEFADDED1F7AF5EEC07AF1EE10FA0C
:1019700007DB9FED1C7AF4EEC77AF1EE10FA40F225
:10198000CD8520484AF0BCFA00F0C8BD1E4800F0E2
:10199000C6BD00BFA6E00608000080BFB2D406089E
:1019A000B8E006086666663FA1D90608D5E00608D5
:1019B000D8D90608F6E0060828E1060812D306087A
:1019C0003CE1060860E1060867E1060890E10608C8
:1019D000BFE10608D8E1060876E20608A0E206089C
:1019E000B4E206080000B443BD3786354FE0060870
:1019F00000000000D7E206086F12033BE6E206088B
:101A0000ECE206080BE306082FE30608C04920466F
:101A10000BF026FC002840F0AC80022E40F0B28093
:101A2000BC4BBD4939981F931FAA67F049FCBB48BE
:101A30004AF066FADDED1F7AF5EEC07AF1EE10FAA3
:101A400040F3498150F09CFB01219DED1F0A0646A1
:101A5000084610F02DFE01460546B1484AF050FAFE
:101A6000012050F085FB002D65DBAE489FEDAE8A6E
:101A70004AF046FA50F08CFB044600680AF0CCFCB1
:101A800002460B46A9484AF03BFAD4ED387A67EE95
:101A9000887A17EE900A0AF0BFFC02460B46A4486B
:101AA0004AF02EFA94ED367ADFEDA27A67EE277AC5
:101AB00017EE900A0AF0B0FC02460B469E484AF028
:101AC0001FFAD4ED397A67EE887A17EE900A0AF099
:101AD000A3FC02460B4699484AF012FA984B94F838
:101AE0004C11984A984800290CBF114619464AF0F3
:101AF00007FA94F84C3143B1D4F850010AF08CFC49
:101B000002460B4691484AF0FBF994F82C310BB988
:101B10008F4827E094F82C31022B01D18D4821E029
:101B200094F82C31012B01D18B481BE029468B48BE
:101B30004AF0E6F918E015F10A0F01D188480EE0E5
:101B400015F10B0F01D1874809E005F16400C0B21F
:101B500050F05EFB014684484AF0D2F983484AF0CF
:101B6000CFF983484AF0CCF9304650F001FB00F041
:101B7000DDBC804920460BF073FB002840F0AE80AE
:101B8000022E02D07C4800F0CABC624B62493998F0
:101B90001F931FAA67F094FB60484AF0B1F99DEDCE
:101BA0001F0AB5EEC00AF1EE10FA40F394809FEDE3
:101BB000732A0021F0EE421AB0EE421AF0EE420A09
:101BC000012011F005F8054601466D484AF098F9E4
:101BD000002D67DB53489FED548A4AF091F950F08D
:101BE000D7FA044600680AF017FC02460B464F4835
:101BF0004AF086F9D4ED387A67EE887A17EE900AC3
:101C00000AF00AFC02460B4649484AF079F994ED7D
:101C1000367ADFED487A67EE277A17EE900A0AF0F7
:101C2000FBFB02460B4657484AF06AF9D4ED397A75
:101C300067EE887A17EE900A0AF0EEFB02460B4632
:101C40003E484AF05DF93E4B94F84C113D4A3E48FF
:101C500000290CBF114619464AF052F994F84C314C
:101C600043B1D4F850010AF0D7FB02460B4637487F
:101C70004AF046F994F82C3113B9354800F04FBCBE
:101C800094F82C31022B02D1324800F048BC94F871
:101C90002C31012B02D1304800F041BC29462F489D
:101CA00000F042BC15F10A0F01D12D480EE015F1EC
:101CB0000B0F01D12B4809E005F16400C0B250F0D0
:101CC000A7FA014628484AF01BF928484AF018F9B3
:101CD000274800F024BC2C4800F021BC2B492046AA
:101CE0000BF0BEFA002857D1294B986A0AF072FB14
:101CF00005A3D3E900230AF015FD02460B4625484B
:101D0000FEF7F4BAAFF30080000000000088C34083
:101D10006CE30608000080BFB2D4060881E3060821
:101D200096E30608A1E3060800007A44CAE3060821
:101D3000E7E306080024744907E4060825E40608DA
:101D4000F0CF0608F5CF060844E406085DE406086F
:101D5000F5E106081FE2060840E2060861E206080F
:101D60007DE406089DE40608C9E4060847D806088D
:101D7000F3E4060875E506083FE5060800000000E4
:101D80008EE5060896E5060806E50608B8E50608A5
:101D900028190020BFE50608D84920460BF060FA54
:101DA0000746002840F0F981022E7EF454AED44B51
:101DB000D4493998179317AA67F082FAD2484AF0A3
:101DC0009FF8DDED177AF5EEC07AF1EE10FA40F3E8
:101DD000DA8150F0DDF9DDED177A90ED007AB4EE9E
:101DE000E77AF1EE10FAC0F2CE8150F0F1F95EF030
:101DF0008FF9054650F0CCF94FF43572014628466C
:101E000066F0EEF895F8923085F8926028460D93CA
:101E100052F0B6FCBD49BE48DFEDBE8A9FEDBE8ADA
:101E20004CF00EF9BD484CF03BF9BD484CF038F988
:101E3000BC484CF035F9BC484CF032F911F028F9A7
:101E400050F0D6F907EE107ADDED177AB8EEC70A32
:101E5000F0EE480A20EE270A80EE280A51F058FCDE
:101E600050F0CEF9044630B90A2001370BF0D0FD0E
:101E7000B7F57A7FE2D150F083F9831ED3F1000BDE
:101E8000DFF8E492D5F87C124BEB030B5846D9F8F7
:101E9000003098471C220021824618A866F0D0F82E
:101EA000DFF8C8C2BCE80F001FAF3E460FC69CE873
:101EB0000F0086E80F00002C7DD14FF434739FEDA6
:101EC000968ADFED9A9A9FED9A9ADFED9A8A0C93A3
:101ED000A046D9F80030D5F87C12584698475045AE
:101EE000064616D0B8F1060F06DC18AB03EB8803E4
:101EF00083ED008A08F10108002357F82320B2423D
:101F000001D0013202D147F8236002E00133082BEF
:101F1000F3D100204CF0E4F806F0010300EE903A13
:101F2000F8EEE00AB0EE480A60EEA90A4CF0E8F8D4
:101F300001204CF0D5F8C6F3400300EE903AF8EEDD
:101F4000E00AB0EE480A60EE890A4CF0D9F80220A7
:101F50004CF0C6F8C6F3800300EE903AF8EEE00AC3
:101F6000B0EE480A60EEA80A4CF0CAF803204CF024
:101F7000B7F807EE906AB0EE480AF8EEE70A4CF0C0
:101F8000BFF8F7EE007A38EE278A11F081F850F0AA
:101F90002FF9F0EE480A9DED170A51F0B9FB50F009
:101FA0002FF9044638B9C8200BF032FD0C9B013BD9
:101FB000B2460C938DD150F01BF951F061FCB7EE95
:101FC000000A50F075F90D9B85F89230284652F0C2
:101FD000D7FB28465EF0CCF850F002F944B1E0B2ED
:101FE00050F016F90146544849F08AFF534896E2EA
:101FF0002346214657F823200133013218BF01310F
:10200000082BF7D1062903D14D4849F079FF02E0AA
:102010004C4849F075FFDFED408A9FED4B9A9FEDEC
:102020004BAADFED4B9A18ADD5ED007A043595ED4E
:10203000007A77EEC77A0134F4EECA7AF1EE10FA3C
:1020400002D577EEA97AF7E79FED427AF4EEC77AE8
:10205000F1EE10FA02DD77EEE97AF7E7B0EEE78A03
:1020600018EE100A0AF0D8F902460B463A48214603
:1020700049F046FFB4EE498AF1EE10FAB4EE688AF0
:1020800048BFB0EE489AF1EE10FAC8BFF0EE488AA9
:10209000062CC9D178EEC97AB6EE007A27EE877A97
:1020A000F1EE046AB4EEE67AF1EE10FA07D517EE17
:1020B000100A0AF0B1F902460B4628485FE0F2EE3A
:1020C000046AF4EEE67AF1EE10FA07D517EE100A7C
:1020D0000AF0A2F902460B46214850E0F2EE0E6AE1
:1020E000F4EEE67AF1EE10FA42D517EE100A0AF095
:1020F00093F902460B461B4841E000BFCFE50608B6
:10210000000080BFB2D40608DCE50608FEE506083C
:1021100010E6060800007A440000000016E60608F3
:102120001DE6060824E606082BE606085C8F823FBB
:10213000B81E853F14AE873F34E6060847D8060828
:1021400063E6060892E6060800006144000034C316
:102150000000B44300003443D0E60608EBE606086E
:1021600025E706086CE7060804170020E0CB060800
:1021700017EE900A0AF050F9024642480B4649F021
:10218000BFFE4148CBE150F003F800680AF044F983
:1021900002460B463D48FEF7A9B83D4920460BF0E4
:1021A0005FF80546E8B94FF0F3FF2946B0F8D04292
:1021B000284653F095F8074615F0DAFDB0F874613B
:1021C000284615F0BDFEA4B205463A4621463148E0
:1021D00049F096FE2A4631462F4849F091FE2F4895
:1021E0009DE12F4920460BF03BF8002800F09E812E
:1021F0002C4920460BF034F848BB032E40F0968162
:10220000294B1F9018AA29493998189367F058F854
:102210001FAA27493A9867F053F89DED180ADFED99
:10222000257AB4EEE70AF1EE10FA0EDDDFED227A40
:10223000B4EEE70AF1EE10FA07D51F98003018BF88
:10224000012052F0EDFA1D4869E11D4867E11D4982
:1022500020460BF005F860B91B491C4849F050FEB8
:102260001B491C4849F04CFE1B491C4849F048FEDC
:1022700054E11B4920460AF0F3FF98BB72B600BF39
:10228000FDE700BFBAE7060836E8060874D7060877
:1022900078E806087CE80608A9E80608D7E80608F2
:1022A00020E9060831E906080000FAC3B2D406089E
:1022B00012D306080000B4C30000B443D3E20608FA
:1022C00047E906085AE9060862E906086FE90608C0
:1022D0007EE90608ADE90608BCE90608C2E9060879
:1022E000D1E90608944920460AF0BAFF05460028BD
:1022F00040F018819148924CDFF89483914F924EB0
:1023000049F0FEFD8C4849F0FBFD904849F0F8FD8E
:102310008F4849F0F5FD8F4849F0F2FD8E4849F0AD
:10232000EFFD8E4849F0ECFD8D4849F0E9FD8D4800
:1023300049F0E6FD8C4849F0E3FD8C4849F0E0FDAA
:102340008B4849F0DDFD8B4849F0DAFD8A4849F0B9
:10235000D7FD8A4849F0D4FD894849F0D1FD894824
:1023600049F0CEFD884849F0CBFD884849F0C8FDCA
:10237000874849F0C5FD874849F0C2FD864849F0C5
:10238000BFFD864849F0BCFD854849F0B9FD854848
:1023900049F0B6FD844849F0B3FD844849F0B0FDEA
:1023A000834849F0ADFD834849F0AAFD824849F0D1
:1023B000A7FD824849F0A4FD814849F0A1FD81486C
:1023C00049F09EFD804849F09BFD804849F098FD0A
:1023D0007F4849F095FD7F4849F092FD7E4849F0DD
:1023E0008FFD7E4849F08CFD7D4849F089FD7D4890
:1023F00049F086FD7C4849F083FD7C4849F080FD2A
:102400007B4849F07DFD734849F07AFD794849F0F1
:1024100077FD794849F074FD784849F071FD7848B6
:1024200049F06EFD774849F06BFD774849F068FD4B
:10243000764849F065FD764849F062FD754849F0F7
:102440005FFD754849F05CFD744849F059FD7448DA
:1024500049F056FD734849F053FD734849F050FD6B
:10246000724849F04DFD724849F04AFD714849F003
:1024700047FD714849F044FD704849F041FD7048FE
:1024800049F03EFD6F4849F03BFD6F4849F038FD8B
:102490006E4849F035FD6E4849F032FD6D4849F00F
:1024A0002FFD6D4849F02CFD6C4849F029FD6C4822
:1024B00049F026FD6B4849F023FD6B4849F020FDAB
:1024C0006A4849F01DFD6A4849F01AFD694849F01B
:1024D00017FD694849F014FD684849F011FD684846
:1024E00049F00EFDD8F80030AB4217DDE36893B138
:1024F000A26821681AB1634849F002FD02E008466B
:1025000049F0FEFC616819B1304649F0F9FC02E07F
:10251000384649F0F5FC01351034E3E75A4849F0F4
:10252000EFFC03E05948214649F0EAFC79B0BDECE4
:10253000068BBDE8F08F00BFFBE90608DBE9060863
:102540007C3000206CF40608E8030708EFE9060871
:1025500031D0060800EA0608ABD006082DEA0608C6
:10256000CCD0060855EA060874EA060869EA0608A7
:10257000287807087CEA06082AE906089CEA060883
:10258000DE550708DDEA0608C5D30608F0EA0608A6
:102590008BD4060810EB06082CEB060858EB06084F
:1025A0009BEB0608D6EB0608B0D60608FBEB060840
:1025B00018EC060835EC060876EC06088CEC0608E4
:1025C000C9EC0608DCEC060830ED060868ED0608E4
:1025D000A8ED0608D2ED060864DA060807EE06083C
:1025E0005DEE060878EE0608AFEE060800EF060876
:1025F0003DEF060895DD06087AEF0608AADD060815
:102600009CEF0608F3DD0608C8EF0608F2EF06089F
:1026100010F006083FF006085FF006088EF0060886
:10262000ACF00608D3F00608F6F0060839F1060803
:102630006EF10608B9F10608E0F1060808F206088E
:102640005EF206088AF20608E5F20608B8E5060812
:102650001EF3060850F3060867F3060878E8060834
:102660009DF3060820E90608B1F30608DBF3060827
:1026700005F406085AE9060823F40608D1E9060815
:1026800043F4060866F406086BD106089BF40608B6
:102690007830002000000000000000000000000072
:1026A00037B502EB410294B2054601A920465EF01F
:1026B00027FF08B100200FE0601C0DF1060180B279
:1026C0005EF01EFF0028F5D1BDF80420BDF80630ED
:1026D00043EA02432B60012003B030BD70B50568AA
:1026E00041F288300E46144650F032FD50F038FD6D
:1026F000B0EE080A50F03CFD30B304EB46045EF047
:102700001FFCA4B210F02CFD61F052FDF22061F02C
:1027100067FD290C20465EF0E3FF092809D1601C03
:10272000A9B280B25EF0DCFFA0F109035C425C411B
:1027300000E0002461F04CFD10F042FD642050F0F8
:1027400007FD5EF00DFC00E00124204670BDF8B5E9
:1027500041F2883050F0FCFC50F002FDB0EE080A67
:1027600050F006FD054640B35EF0EAFB10F0F8FCC1
:1027700061F01EFDF22061F033FD114E002441F2A4
:10278000707706EB440316F814105B78381943EAA7
:10279000012180B25EF0A4FF092804D10134B4F510
:1027A000847FEED100E0002561F012FD10F008FDFD
:1027B000642050F0CDFC5EF0D3FB2846F8BD00BF8E
:1027C0000000001070B54FF45B620021ADF5067D8E
:1027D000594865F035FC584900230A4603F57A70DC
:1027E00021F813000133B3F5B57FF7D140F226216C
:1027F00003F2666022F8130001338B42F8D140F2F5
:10280000662103F6921022F8130001338B42F8D1AF
:1028100040F2664103F63A5022F8130001338B422E
:10282000F8D1464A41F2707341F6780122F8023F2E
:1028300001339BB28B42F9D161F0BAFCF22061F016
:10284000CFFC5EF085FE61F0C3FC002541F270769E
:1028500002AC70190DF1060180B25EF051FE60B954
:10286000BDF806301A0A04F8152004EB45020135BC
:10287000B5F5847F5370ECD138E0314D314E4FF4D3
:1028800004720021204665F0DBFB2B68B34203D1C4
:102890006A68AB68C4E90123EB68B34203D12A69D3
:1028A0006B69C4E90423AB69B34204D18022264991
:1028B00009A865F095FBD5F89C30B3420AD14FF4D6
:1028C000B47222490DF1A90065F08AFB95F8A03099
:1028D00084F8A030D5F80932B34225D195F80D32ED
:1028E00084F80D3295F80E3284F80E32154B2360C1
:1028F000E360A361C4F89C301E2384F809326B2383
:1029000084F80A326FF0760384F80B324FF40472C5
:10291000052321460A4884F80C3265F061FBFFF775
:1029200016FF0DF5067D70BD022384F80D3215F0FB
:102930005FF984F80E02D9E7703A00203A4300208C
:10294000000000101E6B89051C000010A100001083
:102950001F2902D840F6B832A2E600207047FF29AE
:1029600002D84FF47A629BE6002070471F2902D8F4
:1029700040F6B832B2E600207047FF2902D84FF483
:102980007A62ABE60020704770B5044694B000252B
:1029900005F5FA600DF1020180B25EF0B1FD60B99B
:1029A000BDF802301A0A04F8152004EB450201357F
:1029B000BC2D5370ECD1012500E000252046B4F871
:1029C000746115F0BDFA864206D0172301A88DF870
:1029D00005300FF0CDFD00E04DB9204613F0F8F9B9
:1029E000044B93F80D22627693F80E32237014B0E4
:1029F00070BD00BF0000001070B5044641F2883081
:102A000050F0A6FB50F0ACFBB0EE080A50F0B0FB63
:102A1000064698B35EF094FA10F0A2FB204615F03B
:102A20008FFAA4F8740161F0C3FBF22061F0D8FBC7
:102A3000002504EB450314F815105B7805F5FA60E2
:102A400043EA012180B25EF04BFE092803D1013533
:102A5000BC2DEED100E0002661F0BAFB10F0B0FB17
:102A6000642050F075FB5EF07BFA054B227883F80A
:102A70000E22627E83F80D22FFF769FE304670BD9C
:102A800000000010F0B541F2883695B005460F46BB
:102A9000002908BF4FF47A76002430190DF10201A5
:102AA00080B25EF02DFD68B9BDF802301A0A05F853
:102AB000142005EB44020134B4F5B57F5370ECD11A
:102AC000012400E0002439462846B5F8D06252F0CF
:102AD00007FC864206D0182301A88DF805300FF0B8
:102AE00047FD00E014B9284612F0CAFE15B0F0BD4B
:102AF000F8B5054641F288300C4650F029FB50F0FD
:102B00002FFBB0EE080A50F033FB064688B35EF0A8
:102B100017FA10F025FB002C2146284641F2883791
:102B200008BF4FF47A7752F0DBFBA5F8D00261F0D2
:102B30003FFBF22061F054FB002405EB440315F841
:102B400014105B78381943EA012180B25EF0C8FDA9
:102B5000092804D10134B4F5B57FEED100E0002698
:102B600061F036FB10F02CFB642050F0F1FA5EF0BF
:102B7000F7F93046F8BD2DE9F04F2DED088B85B003
:102B8000B0EE609AF0EE409AF0EE41AA0393CDE9E0
:102B9000011282465DF0BCFA04465DF0B9FA0646C1
:102BA0004FF0F6FA4FF435720146204665F018FAF8
:102BB0004FF435722146304665F012FAC14AC4F826
:102BC000AC20C14AC4F8A0200023C04A84F8923047
:102BD000F7EE008A84F8933084F89130C4ED298AA6
:102BE00084ED259AC4F8982084F85D32204651F08F
:102BF000C7FD4FF4FA754FF003FB20B164200AF0D3
:102C000007FF013DF7D142F210700AF001FF10F00A
:102C100077FA804610F07CFAB0EE40AA10F080FA05
:102C2000814610F035FA00219FEDA90A4EF660208A
:102C300010F016FA4FF0CCFA4FF0DAFAB0EE690A5B
:102C400050F026FC0025B5EE008A012D0FD14FF083
:102C5000CFFA50F015FEB7EE000A4FF029FB79EEDF
:102C6000097A9C4BC4ED257AC4F8A03012E0022DFD
:102C70001FD14FF0BDFA50F003FEB7EE000A4FF03F
:102C800017FBF1EE007A69EE277A0123C4ED257A6D
:102C900084F891304FF0ACFA204651F071FD42F2C9
:102CA00010700AF0B5FE4FF0A3FAB0EE690A50F0CA
:102CB000EFFB4FF0000B5F46B6EE00BA4FF048FB5B
:102CC000B4EECB0AF1EE10FA20D50A200AF0A0FEED
:102CD0004FF03EFBB4EEC80AF1EE10FA07F101071F
:102CE00007DBBBF1000F40F0E280012054F070FBE5
:102CF000DDE0B7F5FA6FE1DDBBF1000F0BD041F27B
:102D000088339F420DD04FF0010BD7E7BBF1000F86
:102D10001ED14FF0010B0135032D96D1BBF1000FF1
:102D200016D19FED6B0A50F0B3FB4946B0EE4A0A4C
:102D3000404610F095F9304651F022FD4FF050FA20
:102D400020465DF015FA30465DF012FA0020B3E03F
:102D500054F046FB4FF04CFAB6EE000A50F058FA29
:102D60004FF47A600AF054FE4FF042FA9FED580A91
:102D700050F08EFB00204FF0ABFC4FF4FA65074695
:102D800000204FF0A5FCC01B022806DC0A200AF038
:102D90003FFE013DF4D1012500E0022554F0E0FAA8
:102DA00000204FF095FC40F6B837834600204FF0E6
:102DB0008FFCA0EB0B00312805DC0A200AF028FE6E
:102DC000013FF3D100E00135029854F011FB039B61
:102DD000186054F0C5FA41F288378AED000A4FF0C6
:102DE000B7FAB4EEEA0AF1EE10FA05DD0A200AF0AD
:102DF0000FFE013FF3D100E001354FF0F9F9B0EEDD
:102E00006A0A50F005FA54F0ABFA00204FF060FC6B
:102E10009FED2F8A834640F6B837F0EE489A00209F
:102E20004FF056FCA0EB0B0063280BDC4FF0D0FA00
:102E30000A2079EE809A0AF0EBFD013F38EE288AED
:102E4000EDD100E0013554F08BFAB0EE409A4FF02E
:102E5000CFF950F015FDB7EE000A4FF029FA1E4BDE
:102E6000DAED007ADB8A39EE679A07EE903AF8EEEF
:102E7000677AC9EE888A019B304689EE277A68EE28
:102E8000878AC3ED008A51F07BFC4946B0EE4A0ABE
:102E9000404610F0E5F84FF0A3F920465DF068F9E0
:102EA00030465DF065F96B1F5842584104E0B7F5B4
:102EB000FA6F3FF724AF26E705B0BDEC088BBDE8FD
:102EC000F08F00BF00009643000048420080894414
:102ED000000000000000A041A04201202DE9F04FB9
:102EE0002DED0A8B83B0B0EE419AB0EE408AB0EE81
:102EF00060AAF0EE619A01905DF00AF904465DF077
:102F000007F906464FF044F94FF435720146204662
:102F100065F066F84FF435722146304665F060F88A
:102F2000002384F8923084F8933084F89130A34BD6
:102F3000C4F86432A24BC4F8AC30A24BC4F8A03041
:102F4000F7EE008AA04BC4ED298A84ED259AC4F8D7
:102F50009830204651F014FC4FF4FA754FF050F9B8
:102F600020B164200AF054FD013DF7D14FF048F93B
:102F7000054618B1304651F003FCAAE042F2107049
:102F80000AF046FD10F0BCF8804610F0C1F8F0EEF3
:102F900040BA10F0C5F8814610F07AF829469FED46
:102FA0008B0ADFED8BAA4EF6602010F059F84FF037
:102FB0000FF94FF01DF9B0EE480A50F069FA4FF0E2
:102FC000010B012D0AD14FF013F950F059FCB7EE67
:102FD000000A4FF06DF9C4ED28AA23E0022D0FD1AD
:102FE0004FF006F950F04CFCB7EE000A4FF060F9D4
:102FF00079EE097A774BC4ED257AC4F8A03011E058
:10300000032D1ED14FF0F4F850F03AFCB7EE000A51
:103010004FF04EF9F1EE007A69EE277A84F891B01C
:10302000C4ED257A4FF0E4F8204651F0A9FB42F2B6
:1030300010700AF0EDFC4FF0DBF8B0EE480A50F0EB
:1030400027FA4FF0000A5746B6EE00BA4FF080F963
:10305000B4EECA0AF1EE10FA21D50A200AF0D8FC23
:103060004FF076F96AEE0B7A0137B4EEE70AF1EE2B
:1030700010FA07DBBAF1000F40F09680012054F0FF
:10308000A7F991E0B7F5FA6FE0DDBAF1000F0BD0C8
:1030900041F288339F420DD04FF0010AD6E7BAF1D2
:1030A000000F1ED14FF0010A0135042D89D1BAF16C
:1030B000000F16D19FED450A50F0EAF94946B0EEEF
:1030C0006B0A40460FF0CCFF204651F059FB4FF001
:1030D00087F820465DF04CF830465DF049F8002056
:1030E00067E04FF085F8B0EE4A0A9FED388A3A4F14
:1030F000DFED3ACA9FED3ACA50F08AF84FF4FA650C
:10310000B0EE48AAB0EE489AF0EE48AAFB8A9FEDCE
:1031100035BA07EE903AF8EE677A67EEAC7AA7EE2A
:103120008CBA4FF015F9EBEE00AA4FF051F939EED9
:10313000009A4FF0B5F90A203AEE00AA0AF068FCAE
:10314000013D38EE288AE1D14946B0EE6B0A40468F
:103150000FF086FF304651F013FB4FF041F89FED22
:103160001B0A50F095F9CAEE087A019B20468AEEB8
:10317000887A69EEE79AF0EE007AA9EEA77AC9EEAE
:10318000087ADFED196A67EEA67ADFED186A67EE56
:10319000A67AC7EE276AC3ED006A5CF0E9FF304605
:1031A0005CF0E6FF012004E0B7F5FA6F3FF770AF7F
:1031B00072E703B0BDEC0A8BBDE8F08F00401C46FF
:1031C000000096430000484200808944000000004F
:1031D00000007A430000A041A04201206740533A1A
:1031E000D145FF41C3F5A8BE5077D63DD7B3DD3FEB
:1031F000DFED377AC0EEA70AB7EE007AC7EE207A85
:103200009FED347A67EE877A9FED337A27EE877ADF
:10321000B4EEC07AF1EE10FA0ADB80EE277A82B0C3
:10322000FCEEC77ACDED017A9DF8040002B070473C
:103230009FED2A7A27EE877AB4EEC07AF1EE10FA83
:103240000EDB37EEA77AC0EE077A9FED257A77EE90
:10325000C77AFCEEE77A17EE900A60F07F0018E07C
:103260009FED207A27EE877AB4EEC07AF1EE10FA5D
:1032700011DBB2EE007A27EE877AC0EE077A9FED77
:103280001A7A77EEC77AFCEEE77A17EE900A60F0CA
:103290003F00C0B270479FED157A27EE877AB4EEF3
:1032A000C07AF1EE10FA10DBB3EE007A27EE877ADF
:1032B000C0EE077A9FED0C7A77EEC77AFCEEE77ADC
:1032C00017EE900A60F01F00E3E7FF20704700BF91
:1032D0000024744900007A440000FE4200007E434E
:1032E000000080420000FC430000004200007C44DB
:1032F0002DE9F04F2DED108B87B0CDE90132DDF8CF
:103300008090019A00910023F0EE40BAB0EE60BACE
:10331000B0EE41CAF0EE61AAB0EE42AA8046137048
:10332000B9F1000F02D0B04BC9F80030219B13B1A6
:10333000219AAD4B1360229B13B1229A0023137084
:103340004EF026FFD0ED8A7AF0EEEB8AF4EEE78AB3
:10335000F1EE10FA11D8F5EEC0AAF1EE10FA03D88A
:103360004EF016FFD0ED38AAB5EEC0AAF1EE10FA75
:1033700003D84EF00DFF90ED36AAF5EEC0AAF1EE9F
:1033800010FA40F20683B5EEC0AAF1EE10FA40F250
:103390000083DFED967A2AEE279A2AEEA78A5CF060
:1033A000B7FE05465CF0B4FE07464EF0F1FE4FF462
:1033B00035720146284664F013FE4FF435722946F3
:1033C000384664F00DFED5ED197A9FED897A85EDCA
:1033D0002F9A67EE877A0223F4EE4B7A85F89230C3
:1033E000B7EE009A0023F1EE10FA85F82C3185ED46
:1033F000308A85F8583185ED959A284648BFB0EE59
:1034000067BA51F0BDF94FF4FA744EF0F9FE20B1ED
:1034100064200AF0FDFA013CF7D14EF0F1FE0446BB
:1034200000287AD142F210700AF0F2FA0FF068FE2A
:1034300082460FF06DFEF0EE409A0FF071FE9FEDA8
:10344000748A83460FF024FE2146B0EE480A4EF6F9
:1034500060200FF005FE4EF0BBFED5ED8A7AF4EE4B
:10346000E78AF1EE10FA40F36381DFED628A4EF0F5
:10347000BFFE07EE904AB8EEE70AF0EE480A20EEEB
:103480002B0A80EE280A50F003F94EF0B9FEC8B1BD
:103490005946B0EE690A064650460FF0E1FD4EF07F
:1034A0009FFE50F0EDF9B7EE000A4EF001FF3846EE
:1034B00051F066F928465CF05BFE38465CF058FE39
:1034C000344667E20A2001340AF0A2FAC82CCED1B1
:1034D0009FED4F8A4FF47A76F0EE488A4EF038FF2F
:1034E0000A20B0EEC00A78EE808A0AF091FA013E16
:1034F00038EE098AF2D14EF083FE0446B8B1B0EE40
:10350000690A594650460FF0ABFD4EF069FE50F087
:10351000B7F9B7EE000A4EF0CBFE384651F030F95D
:1035200028465CF025FE38465CF022FE32E2C8EE0A
:1035300088DA9FED378A9FED30EA9FED30DADFEDD4
:1035400030CAF0EE488A4EF003FFB0EEC00AB4EE87
:10355000CB0AF1EE10FA72D5CCEE0E7A78EEA78A8D
:103560004EF046FE95F85D3213B1F1EE680A01E0C7
:10357000F0EE680AB0EE6B0A50F08AF84EF040FEAA
:1035800008B10346EAE10A200AF042FA4EF0E0FEF2
:10359000B0EEC00AB4EE408AF1EE10FA06F1010670
:1035A00043F6982348BFB0EE408A9E4203D10E4BAB
:1035B000C8F8003043E0B6F57A6F39DD68EE0D7A71
:1035C000F4EEC07AF1EE10FA02DD4FF0404207E06F
:1035D0006DEEAC7AF4EECB7AF1EE10FA28DD094A02
:1035E000C8F800201E462AE0000080BFABAA26448F
:1035F0006666663F0000484300007A443333333F39
:10360000CDCC8C3F000040C000803B460000FA4318
:10361000000000005077D63D0AD7A33C00002042AE
:1036200035FA8E3C0000C843E02E65420000B443EA
:103630005FED0B7AF4EEE78AF1EE10FA83DB42F2EB
:1036400010700AF0E5F943F698239E4272D01FED00
:10365000108A42F21076F0EE48BAB0EE48BAB0EEF8
:1036600048CAF0EE48CA59F09BFC7CEE80CA59F07B
:103670008FFC3CEE00CA59F083FB3BEE00BA59F0D8
:1036800077FB01207BEE80BA38EE098A0AF0C0F998
:103690004EF0B6FD08B9013EE5D18CEE080A0446AD
:1036A000CCEE887A8BEE08CA8BEE88BA20EE000A40
:1036B000A7EEA70A62F01CFBB0EE408A2BEE0B0AC5
:1036C000ACEE0C0A62F014FB5FED2E7A5FED316A0E
:1036D000AAEEC08A284668EEA78AC8EE287AEAEEE3
:1036E000407AC8ED007AC5ED38AA85ED36AAD8F83B
:1036F0000030C5F8E430D8ED007A67EEA77A86EEA0
:10370000A77A85ED3A7A51F03BF841F288300AF019
:103710007FF94EF035FD831E5842584158F0E8FFBE
:103720001FED450A59F054F832200AF071F901E012
:1037300088ED008A24F03CFAB0EE40DA59F0B0FB94
:10374000F0EE40DA002C40F003811FED4F8A1FEDB0
:103750004FFA5FED4FEA1FED4FEA4FF4FA66F0EED5
:1037600048AAB0EE48AAB0EE48CAF0EE488AF0EE99
:1037700048BAB0EE48BA59F08BFA60EE0FCA59F069
:10378000CFF9B0EEC00AB4EEEE0AF1EE10FA00F195
:10379000BC8059F005FC80EE2C0A7AEE80AA59F024
:1037A00097FBF0EE40CA24F003FAF0EE4D0A0EF05B
:1037B00057FFB1EE047AF0EEC0FAF4EEC7FAF1EE7C
:1037C00010FA19DBF0EE6D0A8DED030AB0EE6C0A0B
:1037D0000EF046FFF0EE40DA24F0EAF9DDED037A70
:1037E0008DEEA77A3CEE09CA78EE878A3AEE2FAAC8
:1037F000B0EE40DAF0EE6CDAB4EECEAAF1EE10FAEA
:1038000077DBF5EEC08AFFEE007AF1EE10FAB7EE44
:10381000000A48BFB0EE670A28EE800A80EE0C0A64
:1038200061F08EFCF0EE40FA24F0C2F9F5EEC08AA9
:10383000F1EE10FA44BF5FED837A37EEC00AF0EE86
:103840006C0A20EE2F0A0EF00BFF5FED8B7A05A9B4
:1038500020EE270A04A862F033FADDED047A3BEE8D
:1038600027BADDED057A7BEEA7BA5FED927AB4EE6A
:10387000E7AAF1EE10FA3CDB002C39D1B9F1000FC8
:1038800005D1219B4BB3219BC3ED00FA25E0F0EE5F
:103890006B0AB0EE4B0A61F093FE5FED9D7A1FED6F
:1038A0009D7A20EE270A89ED000AD9ED007AF5EE1F
:1038B000C07AF1EE10FA04D577EE877AC9ED007A76
:1038C000F3E7D9ED007AF4EEC77AF1EE10FAD8DD1D
:1038D00077EEC77AC9ED007AF3E7229B43B1F5EEA4
:1038E000C08AF1EE10FA229A4CBF01230023137014
:1038F0000124012038EE098A0AF08AF84EF080FC93
:1039000028B9013E7FF437AF01E0002300E0034611
:10391000029AB5EEC08AF1EE10FA82ED008A08DD57
:10392000CAEE887A009A0199C2ED007A01220A70E3
:1039300002E0009900220A60D8ED007AF5EEC07A24
:10394000F1EE10FA02DD019901220A7033B100E0B4
:103950002346009900220A60C8F800205946B0EEBC
:10396000690A504600930FF07BFB4EF039FC4FF094
:1039700087FFB7EE000A4EF09BFC384650F000FF80
:1039800028465CF0F5FB38465CF0F2FB009B1C46D9
:1039900000E00024204607B0BDEC108BBDE8F08F9E
:1039A0002DE9F04F2DED068B4FF0FF3389B01360FA
:1039B000F0EE408ACDE9000193465CF0A9FB054694
:1039C0005CF0A6FB04464EF0E3FB4FF43572014673
:1039D000284664F005FB4FF435722946204664F012
:1039E000FFFA022385F89230002385F82C31B34B7F
:1039F000C5F8BC304FF07E53C5F8C030284650F0B3
:103A0000BFFE4FF4FA764EF0FBFB20B1642009F0C4
:103A1000FFFF013EF7D14EF0F3FB0646A8BB42F292
:103A2000107009F0F5FF0FF06BFB81460FF070FB93
:103A3000B0EE408A0FF074FB82460FF029FB31464E
:103A40009FED9F0A4EF660200FF00AFB06AF4EF086
:103A5000BFFB85F85C62284650F092FE0DF10E0126
:103A60003846B0EE680A5AF053FB0646B8B1B0EEDD
:103A7000480A514648460FF0F3FA4EF0B1FB4FF0BA
:103A8000FFFEB7EE000A4EF013FC204650F078FE21
:103A900028465CF06DFB20465CF06AFB08E14EF0C6
:103AA00097FB9DF80E200223002A00F09A8084F8EC
:103AB0002C3184F85C6204F22D123346F95C02F872
:103AC000011B0133082BF9D1012354E00A2008F12E
:103AD000010809F09DFFB8F57A7F40F08C8024F052
:103AE00067F89FED779AF0EE409A07EE907AB42F40
:103AF000B8EEE7AA40F0AC8024F05AF8F0EE400AA5
:103B0000B0EE690A0EF0ACFDF0EEC06AB0EE490A04
:103B10000EF0A6FDF0EE007AF4EEE76AF1EE10FA90
:103B2000B0EEC00A29DDF6EE007AA6EEE70AF5EE61
:103B3000007A66EEA76AB4EEE60AF1EE10FA1CD53A
:103B40000DF10F0305AA04A90020B0EE680A59F090
:103B5000A7FA0499C4F8CC100599C4F8D41001222E
:103B600002239DF80F1084F85C3284F82C2184F82D
:103B7000D0108DF80E20CBF800309DF80E3033B900
:103B800084F82C31CBF8003001238DF80E305146EB
:103B9000B0EE480A48460FF063FA4EF021FB4FF0B2
:103BA0006FFEB7EE000A4EF083FB204650F0E8FDB2
:103BB0009DF80E30002B3FF46BAF009B3BB14EF0F5
:103BC000DFFA831E594259412046FEF791FF019BBF
:103BD000002B3FF45DAF002221460E2048F0B0FAE2
:103BE00056E785F85C32284650F0CAFDDFED359A7D
:103BF0009FED339AB0464EF0FBFA07EE908AB8EE8E
:103C0000E70AF0EE490A20EE280A80EE290A4FF072
:103C10007FFD4EF0F5FA074600283FF457AF5146B6
:103C2000B0EE480A48460FF01BFA4EF0D9FA4FF0B2
:103C300027FEB7EE000A4EF03BFB204650F0A0FDF9
:103C400028465CF095FA20465CF092FA3E462FE05A
:103C50004EF0CEFAF0EE4A0AB0EE680A4FF058FD88
:103C60004EF0CEFA8046C0B15146B0EE480A484602
:103C70000FF0F6F94EF0B4FA4FF002FEB7EE000A7C
:103C80004EF016FB204650F07BFD28465CF070FAA3
:103C900020465CF06DFA46460AE0322009F0B8FE94
:103CA0005A2F03D123F084FFB0EE409A01371CE76E
:103CB000304609B0BDEC068BBDE8F08F6F12033AB9
:103CC0000000000000007A449FED117AD0ED366AC2
:103CD000D0ED397A20EE070AB7EE007A87EE006A57
:103CE00090ED387A66EE866A26EE077A67EEA77A56
:103CF000C0ED2F6ADFED076A80ED307A86EEA77A95
:103D0000DFED057A67EE277AC0ED3A7A704700BF9B
:0C3D1000BD3786356F12833A00247449D9
:10C0000072B6334880F3098840F20000CCF2000099
:10C010004EF63471CEF200010860BFF34F8FBFF3CC
:10C020006F8F40F20000C0F2F0004EF68851CEF261
:10C0300000010860BFF34F8FBFF36F8F4FF0000018
:10C04000E1EE100A4EF63C71CEF2000108600620C7
:10C0500080F31488BFF36F8F01F06AF90BF038FB9F
:10C060004FF055301B491C4A91423CBF41F8040B2C
:10C07000FAE71A49164A91423CBF41F8040BFAE725
:10C080001749184A184B9A423EBF51F8040B42F820
:10C09000040BF8E700201549154A91423CBF41F8CE
:10C0A000040BFAE701F04CF9124C134DAC4203DAE1
:10C0B00054F8041B8847F9E706F08AF80F4C104D36
:10C0C000AC4203DA54F8041B8847F9E701F040B9A1
:10C0D00000100020000000200008002000080020C0
:10C0E000E88E0708001000202819002028190020D9
:10C0F00070B0012000C0000800C0000800C00008A7
:10C1000000C0000800000000000000000000000067
:10C110002DE9F04F2DED108AC1F80CD0D0F80CD0DD
:10C12000BDEC108ABDE8F08F62B62846A04700201B
:10C1300001F09EFC01F08CFB4EF60453CEF200039E
:10C140004FF080521A6062B6FEE700000000000067
:10C1500081F0004102E000BF83F0004330B54FEAB8
:10C1600041044FEA430594EA050F08BF90EA020F25
:10C170001FBF54EA000C55EA020C7FEA645C7FEAB8
:10C18000655C00F0E2804FEA5454D4EB5555B8BFDB
:10C190006D420CDD2C4480EA020281EA030382EA4C
:10C1A000000083EA010180EA020281EA0303362DDE
:10C1B00088BF30BD11F0004F4FEA01314FF4801CB1
:10C1C0004CEA113102D0404261EB410113F0004FC3
:10C1D0004FEA03334CEA133302D0524263EB43037A
:10C1E00094EA050F00F0A780A4F10104D5F1200E18
:10C1F0000DDB02FA0EFC22FA05F2801841F1000173
:10C2000003FA0EF2801843FA05F359410EE0A5F146
:10C2100020050EF1200E012A03FA0EFC28BF4CF077
:10C22000020C43FA05F3C01851EBE37101F000452D
:10C2300007D54FF0000EDCF1000C7EEB00006EEB3A
:10C240000101B1F5801F1BD3B1F5001F0CD34908C4
:10C250005FEA30004FEA3C0C04F101044FEA44521B
:10C2600012F5800F80F09A80BCF1004F08BF5FEAA2
:10C27000500C50F1000041EB045141EA050130BD82
:10C280005FEA4C0C404141EB010111F4801FA4F125
:10C290000104E9D191F0000F04BF01460020B1FA7A
:10C2A00081F308BF2033A3F10B03B3F120020CDAB2
:10C2B0000C3208DD02F1140CC2F10C0201FA0CF090
:10C2C00021FA02F10CE002F11402D8BFC2F1200CF5
:10C2D00001FA02F120FA0CFCDCBF41EA0C019040AB
:10C2E000E41AA2BF01EB0451294330BD6FEA0404F4
:10C2F0001F3C1CDA0C340EDC04F11404C4F12002DF
:10C3000020FA04F001FA02F340EA030021FA04F3F0
:10C3100045EA030130BDC4F10C04C4F1200220FA47
:10C3200002F001FA04F340EA0300294630BD21FA85
:10C3300004F0294630BD94F0000F83F4801306BF4B
:10C3400081F480110134013D4EE77FEA645C18BF3F
:10C350007FEA655C29D094EA050F08BF90EA020FD6
:10C3600005D054EA000C04BF1946104630BD91EACE
:10C37000030F1EBF0021002030BD5FEA545C05D1D1
:10C380004000494128BF41F0004130BD14F5800410
:10C390003CBF01F5801130BD01F0004545F0FE4184
:10C3A00041F470014FF0000030BD7FEA645C1ABFB9
:10C3B000194610467FEA655C1CBF0B46024650EAF0
:10C3C000013406BF52EA033591EA030F41F400211C
:10C3D00030BD00BF90F0000F04BF0021704730B5A2
:10C3E0004FF4806404F132044FF000054FF0000177
:10C3F00050E700BF90F0000F04BF0021704730B538
:10C400004FF4806404F1320410F0004548BF40420C
:10C410004FF000013EE700BF42004FEAE2014FEA61
:10C4200031014FEA02701FBF12F07F4393F07F4F3C
:10C4300081F06051704732F07F4208BF704793F03F
:10C440007F4F04BF41F40021704730B54FF4607452
:10C4500001F0004521F000411CE700BF50EA010255
:10C4600008BF704730B54FF000050AE050EA0102FE
:10C4700008BF704730B511F0004502D5404261EB6E
:10C4800041014FF4806404F132045FEA915C3FF4AF
:10C49000D8AE4FF003025FEADC0C18BF03325FEA4C
:10C4A000DC0C18BF033202EBDC02C2F1200300FAFD
:10C4B00003FC20FA02F001FA03FE40EA0E0021FA22
:10C4C00002F11444BDE600BF0000000000000000BF
:10C4D00070B54FF0FF0C4CF4E06C1CEA11541DBF1A
:10C4E0001CEA135594EA0C0F95EA0C0F00F0DEF8E5
:10C4F0002C4481EA030621EA4C5123EA4C5350EACA
:10C50000013518BF52EA033541F4801143F480131A
:10C5100038D0A0FB02CE4FF00005E1FB02E506F0AB
:10C520000042E0FB03E54FF00006E1FB03569CF000
:10C53000000F18BF4EF0010EA4F1FF04B6F5007F06
:10C5400064F5407404D25FEA4E0E6D4146EB060678
:10C5500042EAC62141EA55514FEAC52040EA5E5001
:10C560004FEACE2EB4F1FD0C88BFBCF5E06F1ED8AB
:10C57000BEF1004F08BF5FEA500E50F1000041EBE2
:10C58000045170BD06F0004646EA010140EA02008F
:10C5900081EA0301B4EB5C04C2BFD4EB0C0541EAB1
:10C5A000045170BD41F480114FF0000E013C00F3C6
:10C5B000AB8014F1360FDEBF002001F0004170BDEA
:10C5C000C4F10004203C35DA0C341BDC04F1140403
:10C5D000C4F1200500FA05F320FA04F001FA05F28F
:10C5E00040EA020001F0004221F0004110EBD3705C
:10C5F00021FA04F642EB06015EEA430E08BF20EA88
:10C60000D37070BDC4F10C04C4F1200500FA04F32A
:10C6100020FA05F001FA04F240EA020001F00041BC
:10C6200010EBD37041F100015EEA430E08BF20EA2F
:10C63000D37070BDC4F1200500FA05F24EEA020E77
:10C6400020FA04F301FA05F243EA020321FA04F0A6
:10C6500001F0004121FA04F220EA020000EBD3705D
:10C660005EEA430E08BF20EAD37070BD94F0000F5D
:10C670000FD101F00046400041EB010111F4801F91
:10C6800008BF013CF7D041EA060195F0000F18BF42
:10C69000704703F00046520043EB030313F4801F7E
:10C6A00008BF013DF7D043EA0603704794EA0C0F38
:10C6B0000CEA135518BF95EA0C0F0CD050EA41064E
:10C6C00018BF52EA4306D1D181EA030101F00041CB
:10C6D0004FF0000070BD50EA410606BF10461946F3
:10C6E00052EA430619D094EA0C0F02D150EA0136FF
:10C6F00013D195EA0C0F05D152EA03361CBF104640
:10C7000019460AD181EA030101F0004141F0FE41DE
:10C7100041F470014FF0000070BD41F0FE4141F462
:10C72000780170BD70B54FF0FF0C4CF4E06C1CEA62
:10C7300011541DBF1CEA135594EA0C0F95EA0C0F17
:10C7400000F0A7F8A4EB050481EA030E52EA0335D2
:10C750004FEA013100F088804FEA03334FF08055F3
:10C7600045EA131343EA12634FEA022245EA111520
:10C7700045EA10654FEA00260EF000419D4208BFD1
:10C78000964244F1FD0404F5407402D25B084FEA7E
:10C790003202B61A65EB03055B084FEA32024FF42A
:10C7A00080104FF4002CB6EB020E75EB030E22BF87
:10C7B000B61A754640EA0C005B084FEA3202B6EB47
:10C7C000020E75EB030E22BFB61A754640EA5C00F6
:10C7D0005B084FEA3202B6EB020E75EB030E22BF86
:10C7E000B61A754640EA9C005B084FEA3202B6EB87
:10C7F000020E75EB030E22BFB61A754640EADC0046
:10C8000055EA060E18D04FEA051545EA16754FEAA7
:10C8100006164FEAC30343EA52734FEAC2025FEAC5
:10C820001C1CC0D111F4801F0BD141EA00014FF054
:10C8300000004FF0004CB6E711F4801F04BF014325
:10C840000020B4F1FD0C88BFBCF5E06F3FF6AFAE41
:10C85000B5EB030C04BFB6EB020C5FEA500C50F1D1
:10C86000000041EB045170BD0EF0004E4EEA113154
:10C8700014EB5C04C2BFD4EB0C0541EA045170BD5B
:10C8800041F480114FF0000E013C90E645EA060E9F
:10C890008DE60CEA135594EA0C0F08BF95EA0C0FCD
:10C8A0003FF43BAF94EA0C0F0AD150EA01347FF415
:10C8B00034AF95EA0C0F7FF425AF104619462CE7EC
:10C8C00095EA0C0F06D152EA03353FF4FDAE10464F
:10C8D000194622E750EA410618BF52EA43067FF4A0
:10C8E000C5AE50EA41047FF40DAF52EA43057FF430
:10C8F000EBAE12E7000000000000000000000000A6
:10C900004FF0FF3C06E000BF4FF0010C02E000BF1B
:10C910004FF0010C4DF804CD4FEA410C7FEA6C5CFE
:10C920004FEA430C18BF7FEA6C5C1BD001B050EAA1
:10C93000410C0CBF52EA430C91EA030F02BF90EA8C
:10C94000020F0020704710F1000F91EA030F58BF4B
:10C95000994208BF90422CBFD8176FEAE37040F0AD
:10C96000010070474FEA410C7FEA6C5C02D150EA4B
:10C97000013C07D14FEA430C7FEA6C5CD6D152EA06
:10C98000033CD3D05DF8040B704700BF84461046CB
:10C9900062468C461946634600E000BF01B5FFF7CA
:10C9A000B7FF002848BF10F1000F01BD4DF808ED9A
:10C9B000FFF7F4FF0CBF012000205DF808FB00BF6B
:10C9C0004DF808EDFFF7EAFF34BF012000205DF8C5
:10C9D00008FB00BF4DF808EDFFF7E0FF94BF012012
:10C9E00000205DF808FB00BF4DF808EDFFF7CEFF13
:10C9F00094BF012000205DF808FB00BF4DF808ED52
:10CA0000FFF7C4FF34BF012000205DF808FB00BF22
:10CA10004FEA410C7FEA6C5C02D150EA013C0AD13A
:10CA20004FEA430C7FEA6C5C02D152EA033C02D12C
:10CA30004FF0000070474FF0010070470000000009
:10CA40004FEA410212F5001215D211D56FF4787336
:10CA5000B3EB625212D94FEAC12343F0004343EAD9
:10CA6000505311F0004F23FA02F018BF40427047B4
:10CA70004FF00000704750EA013005D111F000403E
:10CA800008BF6FF0004070474FF00000704700BFD4
:10CA90004A0011D212F5001211D20DD56FF478733D
:10CAA000B3EB62520ED44FEAC12343F0004343EA92
:10CAB000505323FA02F070474FF00000704750EADD
:10CAC000013002D14FF0FF3070474FF00000704747
:10CAD0004FEA4102B2F1E04324BFB3F5001CDCF1A0
:10CAE000FE5C0DD901F0004C4FEAC0024CEA5070D8
:10CAF000B2F1004F40EB830008BF20F00100704707
:10CB000011F0804F21D113F13872BCBF01F0004009
:10CB1000704741F480114FEA5252C2F11802C2F13B
:10CB2000200C10FA0CF320FA02F018BF40F00100BC
:10CB30004FEAC1234FEAD32303FA0CFC40EA0C006E
:10CB400023FA02F34FEA4303CCE77FEA625307D1AB
:10CB500050EA01331EBF4FF0FE4040F440007047E2
:10CB600001F0004040F0FE4040F40000704700BF7C
:10CB700080F0004002E000BF81F0004142001FBF92
:10CB80005FEA410392EA030F7FEA226C7FEA236C9B
:10CB90006AD04FEA1262D2EB1363C1BFD218414090
:10CBA00048404140B8BF5B42192B88BF704710F026
:10CBB000004F40F4000020F07F4018BF404211F0C9
:10CBC000004F41F4000121F07F4118BF494292EA31
:10CBD000030F3FD0A2F1010241FA03FC10EB0C005D
:10CBE000C3F1200301FA03F100F0004302D54942EA
:10CBF00060EB4000B0F5000F13D3B0F1807F06D397
:10CC000040084FEA310102F10102FE2A51D2B1F18E
:10CC1000004F40EBC25008BF20F0010040EA030083
:10CC20007047490040EB000010F4000FA2F1010230
:10CC3000EDD1B0FA80FCACF1080CB2EB0C0200FABA
:10CC40000CF0AABF00EBC25052421843BCBFD04008
:10CC50001843704792F0000F81F4000106BF80F482
:10CC600000000132013BB5E74FEA41037FEA226C45
:10CC700018BF7FEA236C21D092EA030F04D092F010
:10CC8000000F08BF0846704790EA010F1CBF002044
:10CC9000704712F07F4F04D1400028BF40F00040A1
:10CCA000704712F100723CBF00F50000704700F0C1
:10CCB000004343F0FE4040F4000070477FEA2262E8
:10CCC00016BF08467FEA23630146420206BF5FEAB9
:10CCD000412390EA010F40F4800070474FF00003B9
:10CCE00004E000BF10F0004348BF40425FEA000C80
:10CCF00008BF704743F0964301464FF000001CE028
:10CD000050EA010208BF70474FF000030AE000BF7D
:10CD100050EA010208BF704711F0004302D54042BB
:10CD200061EB41015FEA010C02BF8446014600202D
:10CD300043F0B64308BFA3F18053A3F50003BCFA48
:10CD40008CF2083AA3EBC25310DB01FA02FC6344F5
:10CD500000FA02FCC2F12002BCF1004F20FA02F2FC
:10CD600043EB020008BF20F00100704702F12002EF
:10CD700001FA02FCC2F1200250EA4C0021FA02F250
:10CD800043EB020008BF20EADC707047000000009F
:10CD90007BB972B90029BEBF00204FF0004106E008
:10CDA00008BF00281CBF6FF000414FF0FF3000F0BB
:10CDB0003FBAADF1080C6DE904CE002909DB002B68
:10CDC0001ADB00F0CDF8DDF804E0DDE9022304B061
:10CDD0007047404261EB4101002B1BDB00F0C0F8C3
:10CDE000DDF804E0DDE9022304B0404261EB4101DB
:10CDF000524263EB43037047524263EB430300F03C
:10CE0000AFF8DDF804E0DDE9022304B0404261EB55
:10CE100041017047524263EB430300F0A1F8DDF893
:10CE200004E0DDE9022304B0524263EB43037047A0
:10CE300053B94AB9002908BF00281CBF4FF0FF3181
:10CE40004FF0FF3000F0F4B9ADF1080C6DE904CEFD
:10CE500000F086F8DDF804E0DDE9022304B0704755
:10CE600007EE900AF5EEC07AF1EE10FA01D400F068
:10CE700027B808B580F0004000F022F8404261EB8E
:10CE8000410108BD0000000000000000000000009B
:10CE900038B50022002304460D46FFF791FD28B95E
:10CEA00020462946BDE8384000F032B8204605F15A
:10CEB000004100F02DF8404261EB410138BD00BF58
:10CEC000D0B5FFF7A9FA00220D4B06460F46FFF733
:10CED000FFFAFFF7DDFD0446FFF77CFA0022094B5D
:10CEE000FFF7F6FA02460B4630463946FFF734F9AB
:10CEF000FFF7CEFD0022234610431946D0BD00BFE8
:10CF00000000F03D0000F0410000000000000000C3
:10CF1000D0B500220D4B06460F46FFF7D9FAFFF7B2
:10CF2000B7FD0446FFF756FA0022094BFFF7D0FA87
:10CF300002460B4630463946FFF70EF9FFF7A8FDCB
:10CF40000022234610431946D0BD00BF0000F03D2B
:10CF50000000F041000000000000000000000000A0
:10CF60002DE9F047089E04468846002B4BD18A42A3
:10CF7000154667D9B2FA82F24AB1C2F1200701FA26
:10CF800002F320FA07F7954047EA030894404FEA76
:10CF9000154E230CB8FBFEF71FFA85FC0EFB178815
:10CFA00043EA084307FB0CF1994209D9EB1807F152
:10CFB000FF3080F01B81994240F21881023F2B44E0
:10CFC0005B1AA4B2B3FBFEF00EFB103344EA034439
:10CFD00000FB0CFCA44509D92C1900F1FF3380F0AB
:10CFE0000781A44540F2048102382C4440EA0740FE
:10CFF000A4EB0C0400271EB1D4400023C6E9004373
:10D000003946BDE8F0878B4209D9002E00F0EB804D
:10D010000027C6E9000138463946BDE8F087B3FA73
:10D0200083F7002F47D18B4202D3824200F2FA806D
:10D03000841A61EB030301209846002EE0D0C6E974
:10D040000048DDE702B9FFDEB2FA82F2002A40F0C2
:10D050008F80491B4FEA154E1FFA85F80127B1FB57
:10D06000FEFC230C0EFB1C1143EA014308FB0CF1F0
:10D07000994207D9EB180CF1FF3002D2994200F225
:10D08000CD808446591AA3B2B1FBFEF00EFB1014FA
:10D0900043EA044408FB00F8A04507D92C1900F125
:10D0A000FF3302D2A04500F2B6801846A4EB080474
:10D0B00040EA0C409FE7C7F1200CBB4022FA0CFE6F
:10D0C0004EEA030E01FA07F420FA0CF521FA0CF3EC
:10D0D0004FEA1E482543B3FBF8F92C0C08FB193323
:10D0E0001FFA8EFA44EA034309FB0AF49C4202FA4F
:10D0F00007F200FA07F10BD91EEB030309F1FF3029
:10D1000080F087809C4240F28480A9F10209734438
:10D110001B1BADB2B3FBF8F008FB103345EA034428
:10D1200000FB0AFAA24508D91EEB040400F1FF3304
:10D130006BD2A24569D90238744440EA0940A0FB89
:10D140000289A4EB0A044C45C2464B4654D351D045
:10D15000002E69D0B1EB0A0564EB030404FA0CFC61
:10D16000FD40FC404CEA0505C6E90054002747E7AE
:10D17000C2F1200320FA03F7954001FA02F021FAE8
:10D1800003F34FEA154E3843010CB3FBFEF71FFAC9
:10D1900085F80EFB173341EA034107FB08F38B4286
:10D1A00004FA02F407D9691807F1FF3C2FD28B4229
:10D1B0002DD9023F2944CB1A81B2B3FBFEF00EFBFE
:10D1C000103341EA034100FB08F38B4207D9691889
:10D1D00000F1FF3C17D28B4215D902382944C91AF5
:10D1E00040EA07473BE73746304609E70746E7E6A8
:10D1F0001846FBE64145ABD2B8EB020A69EB0E02DA
:10D2000001381346A4E76046E9E7184695E7674604
:10D21000D1E781467CE702382C4447E7ACF1020CA9
:10D220002B442FE7384608E73746E9E600000000C0
:10D23000704700BF00000000000000000000000078
:10D24000EC46A0E8F05F4FF000007047B0E8F05FF8
:10D25000E546080008BF0120704700BF000000003D
:10D2600010F8012B11F8013B012A28BF9A42F7D090
:10D27000D01A70470000000000000000000000000D
:10D28000034613F8012B002AFBD1181A0138704706
:10D2900001F0FF01102A2BDB10F0070F08D010F867
:10D2A000013B013A8B422DD010F0070F42B3F6D16B
:10D2B000F0B441EA012141EA014122F007047FF084
:10D2C00000070023F0E80256083C85EA010586EADB
:10D2D000010685FA47F5A3FA87F586FA47F6A5FA17
:10D2E00087F68EB9EED1F0BC01F0FF0102F0070223
:10D2F00032B110F8013B013A83EA010313B1F8D1CE
:10D300000020704701387047002D06BF35460338AE
:10D31000073815F0010F07D1013015F4807F02BFE7
:10D32000013015F4C03F0130F0BC0138704700BF38
:10D33000704700BF00000000000000000000000077
:10D34000704700BF00000000000000000000000067
:10D35000FEE700BF00000000000000000000000029
:10D36000FEE700BF00000000000000000000000019
:10D37000FEE700BF00000000000000000000000009
:10D380001F4B204A204830B500249C60D9684FF6D6
:10D39000FF0529400A43DA60C2681C491C4D42F06F
:10D3A0008072C2600A6842F0010283B00A6083F8AA
:10D3B000224000F00DF900F08BF800F019FC00F0AD
:10D3C00097FF00F0D5FF2846402100F051FAA5F163
:10D3D0003003104AC2610122986180F8202062B6B1
:10D3E0009B690D49996105F1580000940B4B4FF46E
:10D3F000F07100F09DFA0A4B836103B030BD00BFAD
:10D4000000ED00E00003FA05F0ED00E0001000E0A0
:10D410005819002000080020C0CD060871D300086C
:10D42000A0CD060800000000000000000000000081
:10D4300008B5044672B604F0D3FF014BDC62FEE788
:10D44000281900200000000000000000000000007B
:10D4500070B5124CA26992F8233013B1013B82F8E7
:10D460002330516AE3690E4E01315162A26AB34220
:10D4700002F10102A26210D09D68013D9D6065B974
:10D480001A68D968DD605660E26162B6186988473B
:10D4900072B6E3699A68002AF2D070BD281900209C
:10D4A00044190020000000000000000000000000FF
:10D4B000034A516853685B1A9842FBD8704700BF13
:10D4C000001000E00000000000000000000000006C
:10D4D000054B4FF0FF30002103F11C0258629962A6
:10D4E000C3E90722704700BF281900200000000090
:10D4F00030B40D4DEC690361A368C260994204D950
:10D500002468C91AA3688B42FAD36368C0E9004350
:10D51000186060608160A3684FF0FF32591AA16003
:10D520006A6230BC704700BF28190020000000006C
:10D53000036841689A6830B48568064C2A449A604A
:10D540000B60056800224FF0FF336960C2606362C0
:10D5500030BC7047281900200000000000000000C7
:10D5600072B690F82030072B0ED8DFE803F0270DB5
:10D570000D2308040D08826A936801339360D0E993
:10D5800000231A600268536010B400224FF0FF3489
:10D5900081680B4B846280F820201B689A688A425D
:10D5A000FBD25A68C0E900321060586062B65DF87C
:10D5B000044B7047836A00221A60E5E762B6704741
:10D5C00028190020000000000000000000000000FA
:10D5D000034B0022C3E90033C3E904339A60704768
:10D5E00028190020000000000000000000000000DA
:10D5F00001460022074B806881F820201B689A684A
:10D600008242FBD25A680846C1E900321160596073
:10D61000704700BF28190020000000000000000033
:10D6200038B50F4CA569236885F82000042285F8D9
:10D6300023201A68226001215460A36183F820101E
:10D64000EFF30982E969643A914203D90548FFF78B
:10D65000EFFEA36929461846BDE83840FEF758BDDD
:10D6600028190020B0CD06080000000000000000CE
:10D6700030B54B1C87B012D00C4C0D4AA36905463F
:10D6800001A8FFF735FF2846FFF7CAFF049B13B137
:10D6900001A8FFF74DFFA369986A07B030BD034C9E
:10D6A000FFF7BEFFA369986A07B030BD28190020B4
:10D6B00061D500080000000000000000000000002C
:10D6C0001D4B70B59D698668AC688162A6424FF0BB
:10D6D00000020BD880F820201B689A689642FBD97C
:10D6E0005A68C0E900321060586070BD85F820208B
:10D6F0001A46126891688C42FBD9516869600446E9
:10D7000001202A600D6055609C6184F82000EFF3D1
:10D710000983EA69643B9A4205D829462046BDE858
:10D720007040FEF7F5BC0548FFF782FE294620460B
:10D73000BDE87040FEF7ECBC28190020B0CD06080B
:10D74000084A9369116893F8232088689B6822B976
:10D75000984234BF002001207047984294BF0020B7
:10D760000120704728190020000000000000000080
:10D77000154B1A6870B510689C691860A168436001
:10D780001D4601269A610420002382F8206084F857
:10D79000203084F823002B461B689A689142FBD9FD
:10D7A0005A68C4E9003214605C60EFF30983E269EF
:10D7B000643B9A4202D90548FFF73AFE2146A86920
:10D7C000BDE87040FEF7A4BC28190020B0CD0608C3
:10D7D000134B1A6870B510689C691860A1684360A3
:10D7E0000126002082F820601D469A6184F82000FE
:10D7F0001B689A689142FBD35A68C4E900321460EE
:10D800005C60EFF30983E269643B9A4202D9054800
:10D81000FFF70EFE2146A869BDE87040FEF778BC10
:10D8200028190020B0CD060800000000000000000C
:10D83000044B1A689B6992689B689A4200D87047AB
:10D84000FFF7C6BF281900200000000000000000FC
:10D85000044B9B6993F823300BB1FFF7B9BFFFF777
:10D8600087BF00BF28190020000000000000000052
:10D8700070B4114C41646569816002220421028404
:10D8800080F823100022012145610461C0E90F22C4
:10D890004262826100F12C0680F8221000F1300211
:10D8A000286100F150056061C662C561C164C0E9CC
:10D8B0000C2270BC704700BF281900200000000037
:10D8C000884203D200F8012B8142FBD1704700BF90
:10D8D000F0B4154E049D776964390144C160C1E913
:10D8E0001035124B0B66022304210384002382604F
:10D8F000426400F12C0580F823100122C0E90F33A7
:10D900004362836100F1500100F13003C0E9046714
:10D9100080F822203861C5627061C264C161C0E9CB
:10D920000C33F0BC704700BF2819002029C1000843
:10D93000F8B5064600F15005FF2400F8014B85427A
:10D94000FBD17518854206D904464FF0550C04F8F2
:10D9500001CBA542FBD172B664393144154C164F48
:10D960006569F1600B64069B4B6404230F664FF0FE
:10D97000020CB2600021726486F82330012206F1A5
:10D98000300306F12C07C6E90445A6F820C0C6E915
:10D990000F117162B16186F822202E61F061F76289
:10D9A000F264C6E90C3330466661FFF789FE62B661
:10D9B0003046F8BD2819002029C1000800000000E9
:10D9C00010B572B6074B9B695C6C9968A14201D097
:10D9D000814200D298605864FFF72AFF62B6204661
:10D9E00010BD00BF2819002000000000000000004A
:10D9F00072B690F8213043F0040380F8213062B60B
:10DA0000704700BF000000000000000000000000A0
:10DA100008B5014672B60820FFF72AFE62B608BDB7
:10DA200038B50F4B9C69E36AA06204F12C05AB4248
:10DA300007D01A68E2621846FFF7DAFDE36AAB42E4
:10DA4000F7D194F821309B0704D1D4E904231A615B
:10DA5000226953610F20BDE83840FFF7E1BD00BFE8
:10DA60002819002000000000000000000000000055
:10DA700072B6FFF7D5BF00BF000000000000000035
:10DA800038B5044672B690F820300F2B07D0074BFC
:10DA9000C26A9B6909201A60E362FFF7C1FDA56AAB
:10DAA00062B6204600F0C4F8284638BD2819002088
:10DAB00010B5054CA369036002469A620320FFF784
:10DAC000AFFDA369986A10BD28190020000000006E
:10DAD000054B02469B6921B1036003209A62FFF760
:10DAE000C7BD4FF0FF30704728190020000000002C
:10DAF00003682BB10022026018469962FFF778BDD7
:10DB0000704700BF0000000000000000000000009F
:10DB100069B1084B10B4024644689B690420C3E90C
:10DB20000024236053605DF8044BFFF7A1BD4FF064
:10DB3000FF3070472819002000000000000000009E
:10DB4000026890420AD010B414680460034663600F
:10DB5000104691625DF8044BFFF74ABD704700BF65
:10DB600038B5036898420BD004460D461A68226007
:10DB7000184654609D62FFF73BFD23689C42F5D137
:10DB800038BD00BF000000000000000000000000E1
:10DB9000014B5B6883607047001000E000000000EC
:10DBA0000E4B0F4A5B68C168F0B48468D2F880609D
:10DBB00042681B1BD0E904459B1BE61845F1000792
:10DBC0009342026888BF436001319342C0E9046711
:10DBD000C0E9023138BF0360F0BC7047001000E0BC
:10DBE00028190020000000000000000000000000D4
:10DBF00010B50D4C86B000234FF0FF31002268466F
:10DC0000C4F88030CDE9013303930023CDE9042328
:10DC10000091FFF7BDFF6846FFF7C2FF029BC4F803
:10DC2000803006B010BD00BF2819002000000000A1
:10DC3000014672B690F82230013BDBB280F8223008
:10DC400062B61BB990F820300F2B00D0704790F8C7
:10DC5000213003F00303012B02D0022B07D07047C1
:10DC6000D0E904231A610269536100F091BBD0E945
:10DC700004231A610269806C536100F0F9BB00BF94
:10DC800072B6044B186990F82230013380F82230C4
:10DC900062B6704728190020000000000000000054
:10DCA00010B572B6074B04699C421DBF94F8223030
:10DCB000013384F82230002462B6FFF7B9FF204612
:10DCC00010BD00BF28190020000000000000000067
:10DCD000C0E9000081607047000000000000000003
:10DCE00070B5856881600135002D0CDC04466FF04D
:10DCF00001066068436863601C60FFF779FC0135CA
:10DD0000012D8662F5D170BD00000000000000000A
:10DD100008B572B6FFF7E4FFFFF78AFD62B608BDEB
:10DD200072B68368013B002B836002DB002062B681
:10DD3000704710B5074C4168A26903469362C2E977
:10DD4000003105200A605A60FFF76AFCA369986AEF
:10DD500062B610BD2819002000000000000000007D
:10DD600072B68268531E002B836002DB002062B60D
:10DD7000704710B569B1094A4468926903469362D5
:10DD8000C2E90034052022605A60FFF771FC62B6D8
:10DD900010BD82604FF0FF30F9E700BF2819002066
:10DDA00008B572B683680133002B836001DD62B66B
:10DDB00008BD0346006802681A6000215360FFF73F
