:020000040800F2
:100000000008002001C00008812501089125010891
:10001000A1250108B1250108C125010861D3000807
:1000200061D3000861D3000861D3000861D30008E0
:1000300061D3000861D3000881E40008A1F9000839
:1000400061D300085125010861D3000861D300087D
:1000500061D3000861D3000861D3000861D30008B0
:1000600061D3000861D3000861D3000841F400089F
:1000700071F40008A1F40008D1F4000801F50008AB
:1000800031F5000861F50008B124010861FC0008A1
:1000900081FC0008A1FC0008C1FC0008D124010873
:1000A0004118010861D3000861D3000861D300083A
:1000B00021250108F12401082118010861D3000855
:1000C00061D30008E1030108F104010861D30008CD
:1000D00061D30008A11B0108C11B0108E11B010835
:1000E00061D3000861D3000861D3000861D3000820
:1000F00061D3000861D3000861D3000891F50008BE
:1001000061D3000861D3000861D3000861D30008FF
:10011000011C0108211C010861D3000861D30008FB
:10012000C1F50008F1F5000821F6000851F60008B5
:1001300081F6000861D3000861D30008E1FC0008E3
:1001400001FD000821FD000841FD00089112010891
:10015000B1F60008E1F6000811F70008411C01089B
:1001600061D3000861D3000861D3000861D300089F
:1001700061D3000861D3000861D3000861D300088F
:1001800061D3000861D3000861D3000861D300087F
:1001900061D3000861D3000861D3000861D300086F
:1001A00061D3000861D3000861D3000861D300085F
:1001B00061D3000861D3000861D3000861D300084F
:1001C0002DE9F04F2DED068B0446F9B001468B4822
:1001D0004CF0AEFB20468A49894C6AF0A1FD00260E
:1001E00038AD48B1402E08D045F826002146002001
:1001F0006AF096FD0136F4E70EB1002702E081486F
:1002000002F08DB9389CE55D65B168F071FC284459
:10021000437803F00303012B389B08BF2035DD55DD
:100220000137EFE7784BDFF84C82D3F80090A9450F
:1002300011DD2B0108EB0302D76857B153F8081002
:1002400020460DF00DF820B938A93046B84702F025
:100250006DB90135EBE76D4920460DF001F850B955
:100260006B484CF065FB4FF47A7053F0C9FC53F0C7
:10027000CFFC02F05BB9674920460CF0F1FF38BBB8
:1002800057F0D6FD9FED648A60EE087A17EE900A6B
:100290000CF0C2F802460B4660484CF049FB53F0A4
:1002A00097F860EE087A17EE900A0CF0B5F802465F
:1002B0000B465B484CF03CFB53F06AF960EE087A61
:1002C00017EE900A0CF0A8F802460B4655480DE0D0
:1002D000554920460CF0C4FF60B957F049F910EEBB
:1002E000100A0CF099F8024650480B464CF020FBDF
:1002F00002F01CB94E4920460CF0B2FF88B91FA984
:100300000EF08EF804460EF023F8014649484CF0F2
:100310000FFB214648484CF00BFB1F99474802F061
:1003200003B9474920460CF09BFF002849D14548B6
:10033000454E9FED468A464D4CF0FAFA45484CF042
:10034000F7FA0DF09DFC0446204661F071FBD4F8ED
:1003500024802A6894ED097AB36A9B1A07EE903AD2
:10036000B8EE477AF8EE677A27EE087A0746C7EEC6
:10037000277A17EE900A0CF04FF8CDE90478CDE912
:100380000601E36C0393A369029394F82020324B97
:10039000324853F82230019394F82230013B009305
:1003A000D4E9023221464CF0C3FA002363622046AE
:1003B0000DF076FC04460028C6D1B36A2B6002F02B
:1003C000ADB8274920460CF04BFF38B952F070FC0D
:1003D00052F076FC0146234802F0A6B82249204696
:1003E0000CF03EFF0546002840F0F8801F4E3368B1
:1003F000002B41D11E4802F092B800BF9FDB0608D7
:100400000BDD0608A7DB060880300020BE62070867
:10041000BCDB0608D1DB060800007A44E3DB0608F3
:1004200000DC060826DC06084BDC06084EDC060865
:100430006CDC060870DC06088CDC0608A2DC06080A
:100440001AF60608BFDC0608301900200000C84272
:10045000743A00200DDD060850DB06085BDD060857
:100460006885070842510708CAF40608703A002058
:1004700092DD06088430002052F01AFC52F020FC75
:1004800001469048904FDFF8CCB2DFF8CCA24CF098
:100490004FFA8E484CF04CFA3368AB4242F3468038
:1004A0004FF04C0808FB05F807EB0804607852F0A1
:1004B00007FC014658464CF03BFA17F80810504626
:1004C0004CF036FA60680BF0A7FF02460B468048F6
:1004D0004CF02EFAA0680BF09FFF02460B467D48B9
:1004E0004CF026FAE0680BF097FF02460B467A487C
:1004F0004CF01EFA60690BF08FFF02460B467748FE
:100500004CF016FAA0690BF087FF02460B467448C0
:100510004CF00EFAE16973484CF00AFA216A72480D
:100520004CF006FAD4ED0B7A94ED057A6F48F8EEAC
:10053000E77A67EE877AFDEEE77A17EE901A4CF0CD
:10054000F7F9616A6A484CF0F3F9A16A69484CF01E
:10055000EFF9E16A68484CF0EBF9216B67484CF021
:10056000E7F9606B0BF058FF02460B4664484CF00D
:10057000DFF9E36B6BB363491FA869F0A9FCE16B7A
:100580000DF18F0069F0A4FC236C1BB91FA84CF07F
:10059000CFF91EE0236C012B08D1606C0BF03CFFFF
:1005A00002460B461FA84CF0C3F912E0236C022B45
:1005B0000FD1606CA46C0BF02FFF8046204689465B
:1005C0000BF02AFF4246CDE900014B461FA84CF034
:1005D000AFF94D484CF0ACF901355DE74B49204689
:1005E0000CF03EFE00285CD172B6494B5A6A149258
:1005F000484A516A1591596A16914FF08041496AEB
:1006000017911968C1F3001118911168C1F3001115
:100610001F9162B64048D3F83490D3F83880DF6B2E
:10062000DC6A566BD3F840A0956B14994CF080F9B6
:1006300015993A484CF07CF9179939484CF078F9FB
:10064000159A1499169B374801EB4201194402236D
:1006500091FBF3F1611A4CF06BF9494632484CF0CA
:1006600067F9414631484CF063F9394630484CF05F
:100670005FF921462F484CF05BF918992E484CF051
:1006800057F91F992D484CF053F931462C484CF03E
:100690004FF951462B484CF04BF929462A4801F0B6
:1006A00043BF2A4920460CF0DBFD002856D152F00A
:1006B000FFFC10EE100A0BF0AFFE02460B4624487A
:1006C00014E600BFB6DD060804330020C8DD0608C6
:1006D00027DE06083FDE060857DE06086FDE06083E
:1006E00087DE06089FDE0608B5DE0608CBDE0608B4
:1006F000E1DE0608F7DE06080DDF060823DF060840
:1007000039DF060851DF06080BDD060865DF06083D
:10071000000001400004014069DF060876DF06089A
:1007200083DF060890DF0608A3DF0608B3DF0608AC
:10073000C3DF0608D3DF0608DBDF0608E4DF0608B0
:10074000EDDF060800E0060815E006082BE00608C5
:1007500030E00608FBDD060811DE0608BF4920462A
:100760000CF07EFD002840F0DA80042E40F0D480AA
:10077000BB4BBC493998139313AA1493159369F092
:100780006FFB14AAB7493A989FEDB78A69F068FBE6
:1007900015AAB4493B9869F063FBB4484CF0C8F81B
:1007A000DDED137AF5EEC07AF1EE10FAF2EE048A7E
:1007B0006FDD52F045FA9DED130AD0ED007AF4EEAC
:1007C000C07AF1EE10FA64DDDDED140AF4EEE80A09
:1007D000F1EE10FA5DDDDFEDA67AF4EEE70AF1EE58
:1007E00010FA56D59DED151AB4EEC81AF1EE10FAAE
:1007F0004FDDDFEDA07AB4EEE71AF1EE10FA48D53E
:1008000018AB1FAA17A916A802F0B5F900283DD009
:1008100016980BF001FE02460B4697484CF088F8FC
:1008200017980BF0F9FD02460B4694484CF080F8FF
:10083000189B0BB9924802E05F1C1CD191484CF008
:1008400077F89DF9830004909DF9820003909DF94B
:10085000810002909DF9800001909DF97F00009039
:100860009DF97E309DF97D209DF97C1086484CF0E5
:100870005FF801F05BBE9E1C02D1844801F04FBEC0
:10088000033341F05386824801F049BE814801F0AC
:1008900046BE81484CF04CF8DDED137AF5EEC07A97
:1008A000F1EE10FA0ADC52F0CBF900680BF0B4FD5F
:1008B00002460B4679484CF03BF80AE052F0C0F98A
:1008C000DDED137A90ED007AB4EEE77AF1EE10FAEE
:1008D000E9DDDDED147AF4EEE87AF1EE10FA06DDEA
:1008E0009FED637AF4EEC77AF1EE10FA02D46C4809
:1008F0004CF01EF8DDED157AF4EEC87AF1EE10FA40
:1009000007DD9FED5C7AF4EEC77AF1EE10FA01F1A3
:100910000586644801F036B8634801F000BE6349BB
:1009200020460CF09DFCC8B91FA857F091FA1F98FB
:100930000BF072FD02460B465D484BF0F9FF209824
:100940000BF06AFD02460B465A484BF0F1FF219826
:100950000BF062FD02460B465748C7E45749204654
:100960000CF07EFC054600286CD1022E73D13C4B66
:100970003C493998179317AA69F072FA60F020F988
:10098000044652F05DF94FF435720146204668F096
:10099000F7F84B484BF0CCFFDDED177AF5EEC07A57
:1009A000F1EE10FA4FF0000742DD94ED007AF4EE1C
:1009B000C77AF1EE10FA3BD827F0A2FD002833D019
:1009C00094F8928084F89260204654F031FC9DEDBA
:1009D000170A189716AB1FAA18A901201F978DF8A0
:1009E00058505DF0B5F8204684F8928054F020FC11
:1009F00018980BF011FD02460B4632484BF098FF59
:100A00001F980BF009FD02460B462F484BF090FF54
:100A10009DF858102D4A2E4B2E4800290CBF114628
:100A200019464BF085FF0BE02B484BF081FF07E0A8
:100A300020680BF0F1FC02460B4628484BF078FF8B
:100A4000204643E2264920460CF00AFC002840F0EC
:100A5000A180022E48D0234801F061BD45E0060880
:100A6000000080BF52E006080AD7A33C55E0060804
:100A700000803B45CDCC4C3F76E0060893E006086D
:100A8000A9E00608E5E00608C5E0060803E1060857
:100A900031E1060860E1060898E10608ACE10608C5
:100AA000D1E10608F2E1060814E2060850E2060861
:100AB00058E206086EE206088CE20608A7E206087D
:100AC000BAE20608CFE20608DFE2060895DB060870
:100AD00090DB0608EFE20608FEE2060814E30608CB
:100AE0007EE306084FE30608B74BB84939981893D8
:100AF00018AA69F0B5F960F063F8044652F0A0F85E
:100B00004FF435720146204668F03AF860F058F824
:100B1000054652F095F84FF435720146284668F0C4
:100B20002FF8AB484BF004FFDDED187AF5EEC07AF4
:100B3000F1EE10FA25DD94ED007AF4EEC77AF1EECD
:100B400010FA1ED8204684F8926054F071FB0023FE
:100B50001FAA01214FF4FA609DED180A1F935DF062
:100B600007FB40B91F980BF057FC02460B4699480B
:100B70004BF0DEFEA3E1C0B252F0A2F80146964867
:100B800098E120680BF048FC02460B4693484BF076
:100B9000CFFE97E1924920460CF062FB00285CD121
:100BA000022E71D1884B89493998169316AA69F09B
:100BB00057F98C484BF0BCFEDDED167AF5EEC07AA5
:100BC000F1EE10FA46DD9FED887AF4EEC77AF1EE89
:100BD00010FA3FD85FF0F4FF044652F031F84FF4BA
:100BE00035720146204667F0CBFF5FF0E9FF05460E
:100BF00052F026F84FF435720146284667F0C0FFE0
:100C0000204684F8926054F013FB1FAB18AA17A972
:100C10004FF4C8709DED160A5DF06AFBA0B91F98ED
:100C20000BF0FAFB064617980F460BF0F5FBCDE9E3
:100C3000020118980BF0F0FB3246CDE900013B466B
:100C40006A484BF075FE3AE1C0B252F039F80146FD
:100C500067482FE1674801F062BC674920460CF005
:100C6000FFFAA0B1654920460CF0FAFA002800F01E
:100C7000DB80634920460CF0F3FA0546002840F07B
:100C80000182022E00F026815E4801F048BC052E4C
:100C900040F097804C4B4D493998159315AA1693FF
:100CA0001793189369F0DCF816AA48493A989FED13
:100CB000568A69F0D5F817AA44493B9869F0D0F8EC
:100CC00018AA42493C9869F0CBF850484BF030FEE6
:100CD000DDED157AF5EEC07AF1EE10FA2BDD51F06C
:100CE000AFFF9DED150AD0ED007AF4EEC07AF1EE7B
:100CF00010FA20DB9DED171AB5EEC01AF1EE10FACE
:100D000019DDDDED160AF4EEC80AF1EE10FA12DD77
:100D1000DFED357AF4EEE70AF1EE10FA0BD8DDEDEF
:100D2000181AF5EEC01AF1EE10FA04DB1FA802F053
:100D3000D5F81F9876E136484BF0FAFDDDED157ACF
:100D4000F5EEC07AF1EE10FA0ADC51F079FF006896
:100D50000BF062FB02460B462E484BF0E9FD0AE021
:100D600051F06EFFDDED157A90ED007AB4EEE77A82
:100D7000F1EE10FAE9DBDDED167AF4EEC87AF1EE69
:100D800010FA06DD9FED187AF4EEC77AF1EE10FA4C
:100D900002D921484BF0CCFDDDED177AF5EEC07A93
:100DA000F1EE10FA02DC1D484BF0C2FDDDED187AC1
:100DB000F5EEC07AF1EE10FA81F2B083184800F037
:100DC000E1BD184801F0ABBB000080BF52E006084F
:100DD0008AE30608A2E30608B8E3060814E3060857
:100DE0001EE406082AE406086666663F42E4060832
:100DF00075E40608A2E4060803E5060804E606080A
:100E0000B2E60608D7E406080AD7A33C13E50608AD
:100E100041E50608ACE1060856E5060878E506084F
:100E200096E50608BAE506085FF0CAFE044651F0EA
:100E300007FF4FF435720146204667F0A1FE5FF0D0
:100E4000BFFE054651F0FCFE4FF4357201462846C0
:100E500067F096FE022384F89230204654F0E8F9B9
:100E600079484BF065FD00231FAA18A917A817930E
:100E700018931F935DF00CFEB8B917980BF0CCFADD
:100E800002460B4671484BF053FD18980BF0C4FA1C
:100E900006461F980F460BF0BFFA3246CDE9000117
:100EA0003B466B484BF044FD09E0C0B251F008FFEF
:100EB000014668484BF03CFD67484BF039FD284639
:100EC00054F0B6F920465FF0ABFE28465FF0A8FE6E
:100ED00001F02CBB614B624939981F931FAA68F03F
:100EE000BFFF60484BF024FDDDED1F7AF5EEC07AC0
:100EF000F1EE10FA40F3A4809FED5B7AF4EEC77A2E
:100F0000F1EE10FA00F29C805FF05AFE044651F0B8
:100F100097FE4FF435720146204667F031FE5FF0D0
:100F20004FFE074651F08CFE4FF4357201463846AD
:100F300067F026FE022384F89230204654F078F9B8
:100F400012F00EF9804612F013F9B0EE40AA12F03A
:100F500017F9814612F0CCF800219FED440A9FED6D
:100F6000448A4EF6602012F0ABF807EE905AF8EE85
:100F7000E77A87EE880ADDED1F7A20EE270A52F025
:100F80009FFE51F095FE064628B9C82001350CF0A9
:100F90003FFD642DE9D19FED358A4FF47A75F0EE6F
:100FA000488AB0EE489AF0EE489AF7EE00AA5CF054
:100FB0004FFD79EE809A51F063FF39EE009A51F0BF
:100FC000F7FF0A2038EE008A0CF022FD013D78EE92
:100FD000AA8AECD153F0ACF9B7EE000A51F0C0FE8A
:100FE000384654F025F920465FF01AFE38465FF087
:100FF00017FE4946B0EE4A0A404612F061F8C8EEC4
:10100000287A89EEA87AD4ED386AA6EEE77AC9EE96
:10101000287ADFED186A67EEA67AC7EE276A46B926
:1010200016EE900A0BF0F8F902460B461248FFF74D
:101030005DB9F0B251F044FE0146104800F0D4BF53
:101040000F4801F06CBA00BF14E606083BE606083C
:1010500050E6060876E60608E7E30608000080BFCB
:1010600052E00608C6E606086666663F0000000015
:101070000000C8425077D63D2DE50608E4E6060894
:1010800011E70608914920460CF0EAF8002840F0E4
:10109000F280062E40F0EC808D4B8E4939981093EB
:1010A00010AA119312931393149368F0D9FE11AA06
:1010B00088493A989FED888A68F0D2FE12AA85493D
:1010C0003B9868F0CDFE13AA82493C9868F0C8FEB0
:1010D00014AA80493D9868F0C3FE80484BF028FC74
:1010E000DDED107AF5EEC07AF1EE10FA4FF0000463
:1010F0006FDD51F0A5FD9DED100AD0ED007AF4EE04
:10110000C07AF1EE10FA64DB9DED121AB5EEC01A4A
:10111000F1EE10FA5DDDDDED110AF4EEC80AF1EE34
:1011200010FA56DDDFED6E7AF4EEE70AF1EE10FA12
:101130004FD8DDED131AF5EEC01AF1EE10FA48DBC8
:101140009DED142AB5EEC02AF1EE10FA41DB15949C
:10115000169417940DF13F061FAD18AC0296019539
:1011600000940DF13E0317AA16A915A802F0C0F8C5
:1011700040BB9DF83E3013B333780A9328680BF0D8
:101180004BF9CDE9080120680BF046F9CDE90601DD
:1011900017980BF041F9CDE9040116980BF03CF9D2
:1011A000CDE9020115980BF037F94E4B4E4ACDE9C7
:1011B00000014E494E484BF0BBFB01F0B7B94D481A
:1011C00001F0ADB9C0B251F07BFD01464A4800F0D4
:1011D0000BBF4A484BF0ACFBDDED107AF5EEC07A60
:1011E000F1EE10FA0ADC51F02BFD00680BF014F957
:1011F00002460B4642484BF09BFB0AE051F020FDB3
:10120000DDED107A90ED007AB4EEE77AF1EE10FAA7
:10121000E9DBDDED117AF4EEC87AF1EE10FA06DDC5
:101220009FED2F7AF4EEC77AF1EE10FA02D9354825
:101230004BF07EFBDDED127AF5EEC07AF1EE10FA9E
:1012400002DC31484BF074FBDDED137AF5EEC07A29
:10125000F1EE10FA02DA2D484BF06AFBDDED147A5C
:10126000F5EEC07AF1EE10FA81F25881284889E350
:10127000284801F054B9284920460BF0F1FF30B955
:1012800026484BF055FB5EF0B3FA01F047B924490C
:1012900020460BF0E5FF00284AD122484BF048FBDE
:1012A00001205DF0DDFD011E0DDB51F0C9FC04469F
:1012B00051F0BEFC851E69426941204601F018FCD0
:1012C000194801F02CB9194801F02EB945E7060874
:1012D000000080BF52E006080AD7A33C5EE706087C
:1012E0006666663F81E706089FE70608BFE70608CF
:1012F000DFE706083DE806085CE8060841E5060861
:10130000ACE1060856E506088BE8060896E50608EF
:10131000B3E80608D7E8060835E906083FE90608F5
:101320004AE9060855E9060879E9060880E9060849
:10133000A94920460BF094FF0246002840F0E580C2
:101340000721A648A64C4BF0F3FAA649A6484BF055
:10135000EFFAA648A64BA74AA74900781B7812784F
:1013600009780890A54800780790A548007806906D
:10137000A44800780590A44800780490A348007819
:101380000390A34800780290A24800780190A248F8
:1013900000780090A1484BF0CBFAA14BA14A1978F4
:1013A000A14BA24800290CBF114619464BF0C0FAC8
:1013B0009F484BF0BDFA52F01BFC01469D484BF094
:1013C000B7FA21699C4863694BF0B2FA94F8A0100F
:1013D0009A4849B24BF0ACFA94F80E1298484BF088
:1013E000A7FA94F80D1297484BF0A2FA51F020FC9E
:1013F000821E5342534115A916AA14A85CF038F86E
:1014000014980BF009F8044616980D460BF004F8F2
:10141000CDE9020115980AF0FFFF2246CDE900014F
:101420002B4689484BF084FA51F002FC811E4B4256
:101430004B411FAA18A917A85CF04AF817980AF0A0
:10144000EBFF04461F980D460AF0E6FFCDE90201C6
:1014500018980AF0E1FF2246CDE900012B467B48AF
:101460004BF066FA51F0E4FB0238434243411FAAB5
:1014700018A917A85CF044F817980AF0CDFF0446A5
:101480001F980D460AF0C8FFCDE9020118980AF02E
:10149000C3FF22462B46CDE900016D484BF048FAC8
:1014A0004DF01EFC01466B484BF042FA4DF008FD32
:1014B000014669484BF03CFA43A3D3E9002367484F
:1014C0004BF036FA42A3D3E9002365484BF030FADB
:1014D0000022644B64484BF02BFA5FF019FC044681
:1014E0005FF006FC21460246092360484BF020FAD3
:1014F0005FF026FC04465FF003FC0223024621460F
:101500005B484BF015FA01F009B85A4920460BF038
:10151000A7FE002840F0BC80032E52D1564B5749FD
:101520003998189318AA1F9368F09AFC1FAA534978
:101530003A9868F095FC52484BF0FAF9DDED187ACC
:10154000F5EEC07AF1EE10FA1ADD51F079FBDDED1F
:10155000187A90ED007AB4EEE77AF1EE10FA0FDB2C
:10156000DDED1F7AF5EEC07AF1EE10FA08DB11F02E
:10157000BFFDDDED1F0A9DED180A52F0E1FDBCE054
:1015800040484BF0D5F9DDED187AF5EEC07AF1EE72
:1015900010FA0ADC51F054FB00680AF03DFF0246E5
:1015A0000B4639484BF0C4F9C1E051F049FBDDED81
:1015B000187A90ED007AB4EEE77AF1EE10FAE9DBF2
:1015C000B5E0324800F0ABBF0000000000307140D1
:1015D0000000002033535A4093E906089DE90608AD
:1015E0000000001086050708ADE906081B7AFF1FFA
:1015F000127AFF1F117AFF1F107AFF1F1A7AFF1F3E
:10160000197AFF1F187AFF1F177AFF1F167AFF1F1C
:10161000157AFF1F147AFF1F137AFF1FBAE9060815
:101620002848002022EA06089BDB0608FCE9060899
:1016300014EA060825EA060835EA060845EA060817
:1016400056EA060867EA060878EA06089CEA0608E9
:10165000C0EA0608EDEA060803EB06081AEB0608DE
:101660003CEB060800408F405EEB060871EB060875
:101670009DEB0608CAEB0608000080BF52E0060892
:10168000D7EB060841E50608ACE1060811EC0608B0
:10169000C04920460BF0E4FD002855D1032E50D15F
:1016A000BD4BBE493998189318AA1F9368F0D8FB10
:1016B0001FAABA493A9868F0D3FBB9484BF038F9F9
:1016C000DDED187AF5EEC07AF1EE10FA1BDB9FED36
:1016D000B57AF4EEC77AF1EE10FA14D8DDED1F7A80
:1016E000F5EEC07AF1EE10FA0DDB11F001FDDDED43
:1016F0001F0A9DED180A52F0A3FD51F0D9FA0028F7
:1017000000F0148701E1A8484BF012F9DDED187ADA
:10171000F5EEC07AF1EE10FA06DB9FEDA27AF4EE58
:10172000C77AF1EE10FA02D9A0484BF001F9DDEDCD
:101730001F7AF5EEC07AF1EE10FA80F2EF869C483F
:1017400020E19C4800F0EBBE9B4920460BF088FD51
:1017500008BB022E1CD14FF0FF331FAA97493998BE
:101760001F9368F07DFB96484BF0E2F81F9B002B1F
:101770000BDB382218A831468DF860208DF86130D7
:101780004BF09EF88F4800F0CABE8F4800F0C7BEED
:101790008E4800F0C4BE8E4920460BF061FD002843
:1017A00037D1022E7FF457A97B4B7C493998189387
:1017B00018AA68F055FB87484BF0BAF8DDED187AA7
:1017C000F5EEC07AF1EE10FA40F3DD8451F038FA0C
:1017D0009DED180AD0ED007AF4EEC07AF1EE10FA21
:1017E000C0F2D18401211FAA084602F0D9F850B9ED
:1017F0001F99002900F04182012900F04582022949
:1018000040F04D8247E2C0B251F05AFA01467248A8
:10181000EAE3724920460BF023FD002840F0F680F1
:10182000042E40F0B3805C4B5C493998179317AA9B
:1018300018931F9368F014FB18AA58493A9868F057
:101840000FFB1FAA55493B9868F00AFB64484BF010
:101850006FF89DED178A51F0F3F9D0ED007AB0EEF4
:10186000C88AB4EEE78AF1EE10FA61D8DDED1F7A8E
:10187000F5EEC07AF1EE10FA5ADB9FED5A7AF4EEEB
:10188000C77AF1EE10FA53D89DED187ADFED567A4B
:10189000B4EEE77AF1EE10FA3CD811F029FCDDED58
:1018A0001F0A9DED170A52F08BFC51F001FA002837
:1018B00000F0C98429E0142001340CF0A9F8C72CE9
:1018C0000DDDDDED187A77EEC87A344617EE900A12
:1018D0000AF0A2FD02460B4628464BF029F838EEE6
:1018E000288ADDED187AF4EEC87AF1EE10FA18DDE8
:1018F00011F0FEFBDDED1F0A9DED170A52F060FCB2
:1019000051F0D6F906460028D5D051F0D9F9014654
:10191000364869E300249FED368A364DDFED368A7E
:10192000DFE79FED330A52F00BFB344800F0F7BDC0
:101930001D484AF0FDFF9DED178A51F081F9D0ED69
:10194000007AB0EEC88AB4EEE78AF1EE10FA09D94F
:1019500051F076F900680AF05FFD02460B46284810
:101960004AF0E6FFDDED1F7AF5EEC07AF1EE10FAEF
:1019700007DB9FED1C7AF4EEC77AF1EE10FA40F225
:10198000CD8520484AF0D4FF00F0C8BD1E4800F0C5
:10199000C6BD00BF46EC0608000080BF52E0060846
:1019A00058EC06086666663F41E5060875EC0608D1
:1019B00078E5060896EC0608C8EC0608B2DE0608CC
:1019C000DCEC060800ED060807ED060830ED060819
:1019D0005FED060878ED060816EE060840EE0608EC
:1019E00054EE06080000B443BD378635EFEB060819
:1019F0000000000077EE06086F12033B86EE060833
:101A00008CEE0608ABEE0608CFEE0608C04920466D
:101A10000BF026FC002840F0AC80022E40F0B28093
:101A2000BC4BBD4939981F931FAA68F019FABB48EF
:101A30004AF07EFFDDED1F7AF5EEC07AF1EE10FA86
:101A400040F3498151F0F4F801219DED1F0A06464B
:101A5000084610F05DFE01460546B1484AF068FFB1
:101A6000012051F0DDF8002D65DBAE489FEDAE8A18
:101A70004AF05EFF51F0E4F8044600680AF0CCFC3E
:101A800002460B46A9484AF053FFD4ED387A67EE78
:101A9000887A17EE900A0AF0BFFC02460B46A4486B
:101AA0004AF046FF94ED367ADFEDA27A67EE277AA8
:101AB00017EE900A0AF0B0FC02460B469E484AF028
:101AC00037FFD4ED397A67EE887A17EE900A0AF07C
:101AD000A3FC02460B4699484AF02AFF984B94F81B
:101AE0004C11984A984800290CBF114619464AF0F3
:101AF0001FFF94F84C3143B1D4F850010AF08CFC2C
:101B000002460B4691484AF013FF94F82C310BB96A
:101B10008F4827E094F82C31022B01D18D4821E029
:101B200094F82C31012B01D18B481BE029468B48BE
:101B30004AF0FEFE18E015F10A0F01D188480EE0C8
:101B400015F10B0F01D1874809E005F16400C0B21F
:101B500051F0B6F8014684484AF0EAFE83484AF05C
:101B6000E7FE83484AF0E4FE304651F059F800F0B1
:101B7000DDBC804920460BF073FB002840F0AE80AE
:101B8000022E02D07C4800F0CABC624B62493998F0
:101B90001F931FAA68F064F960484AF0C9FE9DEDE2
:101BA0001F0AB5EEC00AF1EE10FA40F394809FEDE3
:101BB000732A0021F0EE421AB0EE421AF0EE420A09
:101BC000012011F035F8054601466D484AF0B0FE97
:101BD000002D67DB53489FED548A4AF0A9FE51F06F
:101BE0002FF8044600680AF017FC02460B464F48DF
:101BF0004AF09EFED4ED387A67EE887A17EE900AA6
:101C00000AF00AFC02460B4649484AF091FE94ED60
:101C1000367ADFED487A67EE277A17EE900A0AF0F7
:101C2000FBFB02460B4657484AF082FED4ED397A58
:101C300067EE887A17EE900A0AF0EEFB02460B4632
:101C40003E484AF075FE3E4B94F84C113D4A3E48E2
:101C500000290CBF114619464AF06AFE94F84C312F
:101C600043B1D4F850010AF0D7FB02460B4637487F
:101C70004AF05EFE94F82C3113B9354800F04FBCA1
:101C800094F82C31022B02D1324800F048BC94F871
:101C90002C31012B02D1304800F041BC29462F489D
:101CA00000F042BC15F10A0F01D12D480EE015F1EC
:101CB0000B0F01D12B4809E005F16400C0B250F0D0
:101CC000FFFF014628484AF033FE28484AF030FE1C
:101CD000274800F024BC2C4800F021BC2B492046AA
:101CE0000BF0BEFA002857D1294B986A0AF072FB14
:101CF00005A3D3E900230AF015FD02460B4625484B
:101D0000FEF7F4BAAFF30080000000000088C34083
:101D10000CEF0608000080BF52E0060821EF06081D
:101D200036EF060841EF060800007A446AEF06081D
:101D300087EF060800247449A7EF0608C5EF0608D8
:101D400090DB060895DB0608E4EF0608FDEF0608C1
:101D500095ED0608BFED0608E0ED060801EE060861
:101D60001DF006083DF0060869F00608E7E30608DE
:101D700093F0060815F10608DFF0060800000000E1
:101D80002EF1060836F10608A6F0060858F10608F6
:101D9000301900205FF10608D84920460BF060FAA0
:101DA0000746002840F0F981022E7EF454AED44B51
:101DB000D4493998179317AA68F052F8D2484AF0D4
:101DC000B7FDDDED177AF5EEC07AF1EE10FA40F3CB
:101DD000DA8150F035FFDDED177A90ED007AB4EE40
:101DE000E77AF1EE10FAC0F2CE8150F049FF5EF0D2
:101DF000E7FE054650F024FF4FF4357201462846B1
:101E000066F0BEFE95F8923085F8926028460D93F4
:101E100053F00EFABD49BE48DFEDBE8A9FEDBE8A83
:101E20004CF066FEBD484CF093FEBD484CF090FE71
:101E3000BC484CF08DFEBC484CF08AFE11F058F9BD
:101E400050F02EFF07EE107ADDED177AB8EEC70AD4
:101E5000F0EE480A20EE270A80EE280A52F0B0F988
:101E600050F026FF044630B90A2001370BF0D0FDB0
:101E7000B7F57A7FE2D150F0DBFE831ED3F1000B81
:101E8000DFF8E492D5F87C124BEB030B5846D9F8F7
:101E9000003098471C220021824618A866F0A0FE58
:101EA000DFF8C8C2BCE80F001FAF3E460FC69CE873
:101EB0000F0086E80F00002C7DD14FF434739FEDA6
:101EC000968ADFED9A9A9FED9A9ADFED9A8A0C93A3
:101ED000A046D9F80030D5F87C12584698475045AE
:101EE000064616D0B8F1060F06DC18AB03EB8803E4
:101EF00083ED008A08F10108002357F82320B2423D
:101F000001D0013202D147F8236002E00133082BEF
:101F1000F3D100204CF03CFE06F0010300EE903AB5
:101F2000F8EEE00AB0EE480A60EEA90A4CF040FE76
:101F300001204CF02DFEC6F3400300EE903AF8EE7F
:101F4000E00AB0EE480A60EE890A4CF031FE022049
:101F50004CF01EFEC6F3800300EE903AF8EEE00A65
:101F6000B0EE480A60EEA80A4CF022FE03204CF0C6
:101F70000FFE07EE906AB0EE480AF8EEE70A4CF062
:101F800017FEF7EE007A38EE278A11F0B1F850F01C
:101F900087FEF0EE480A9DED170A52F011F950F055
:101FA00087FE044638B9C8200BF032FD0C9B013B7C
:101FB000B2460C938DD150F073FE52F0B9F9B7EEE2
:101FC000000A50F0CDFE0D9B85F89230284653F064
:101FD0002FF928465EF024FE50F05AFE44B1E0B2DC
:101FE00050F06EFE014654484AF0A2FC534896E277
:101FF0002346214657F823200133013218BF01310F
:10200000082BF7D1062903D14D484AF091FC02E094
:102010004C484AF08DFCDFED408A9FED4B9A9FEDD6
:102020004BAADFED4B9A18ADD5ED007A043595ED4E
:10203000007A77EEC77A0134F4EECA7AF1EE10FA3C
:1020400002D577EEA97AF7E79FED427AF4EEC77AE8
:10205000F1EE10FA02DD77EEE97AF7E7B0EEE78A03
:1020600018EE100A0AF0D8F902460B463A48214603
:102070004AF05EFCB4EE498AF1EE10FAB4EE688ADA
:1020800048BFB0EE489AF1EE10FAC8BFF0EE488AA9
:10209000062CC9D178EEC97AB6EE007A27EE877A97
:1020A000F1EE046AB4EEE67AF1EE10FA07D517EE17
:1020B000100A0AF0B1F902460B4628485FE0F2EE3A
:1020C000046AF4EEE67AF1EE10FA07D517EE100A7C
:1020D0000AF0A2F902460B46214850E0F2EE0E6AE1
:1020E000F4EEE67AF1EE10FA42D517EE100A0AF095
:1020F00093F902460B461B4841E000BF6FF106080A
:10210000000080BF52E006087CF106089EF1060838
:10211000B0F1060800007A4400000000B6F106089D
:10212000BDF10608C4F10608CBF106085C8F823FBA
:10213000B81E853F14AE873FD4F10608E7E30608D2
:1021400003F2060832F2060800006144000034C3BE
:102150000000B4430000344370F206088BF2060816
:10216000C5F206080CF306080817002080D70608F9
:1021700017EE900A0AF050F9024642480B464AF020
:10218000D7FB4148CBE150F05BFD00680AF044F911
:1021900002460B463D48FEF7A9B83D4920460BF0E4
:1021A0005FF80546E8B950F04BFD2946B0F8D0423B
:1021B000284653F0EDFD074615F012FEB0F87461A5
:1021C000284615F00DFFA4B205463A46214631488F
:1021D0004AF0AEFB2A4631462F484AF0A9FB2F4869
:1021E0009DE12F4920460BF03BF8002800F09E812E
:1021F0002C4920460BF034F848BB032E40F0968162
:10220000294B1F9018AA29493998189367F028FE7E
:102210001FAA27493A9867F023FE9DED180ADFEDC3
:10222000257AB4EEE70AF1EE10FA0EDDDFED227A40
:10223000B4EEE70AF1EE10FA07D51F98003018BF88
:10224000012053F045F81D4869E11D4867E11D492B
:1022500020460BF005F860B91B491C484AF068FBA2
:102260001B491C484AF064FB1B491C484AF060FBB0
:1022700054E11B4920460AF0F3FF98BB72B600BF39
:10228000FDE700BF5AF30608D6F3060814E3060874
:1022900018F406081CF4060849F4060877F4060842
:1022A000C0F40608D1F406080000FAC352E006089C
:1022B000B2DE06080000B4C30000B44373EE0608A3
:1022C000E7F40608FAF4060802F5060815F506080C
:1022D00024F5060853F5060862F5060868F50608B1
:1022E00077F50608944920460AF0BAFF054600280B
:1022F00040F018819148924CDFF89483914F924EB0
:102300004AF016FB8C484AF013FB90484AF010FB49
:102310008F484AF00DFB8F484AF00AFB8E484AF07E
:1023200007FB8E484AF004FB8D484AF001FB8D48BC
:102330004AF0FEFA8C484AF0FBFA8C484AF0F8FA68
:102340008B484AF0F5FA8B484AF0F2FA8A484AF08C
:10235000EFFA8A484AF0ECFA89484AF0E9FA8948E3
:102360004AF0E6FA88484AF0E3FA88484AF0E0FA88
:1023700087484AF0DDFA87484AF0DAFA86484AF098
:10238000D7FA86484AF0D4FA85484AF0D1FA854807
:102390004AF0CEFA84484AF0CBFA84484AF0C8FAA8
:1023A00083484AF0C5FA83484AF0C2FA82484AF0A4
:1023B000BFFA82484AF0BCFA81484AF0B9FA81482B
:1023C0004AF0B6FA80484AF0B3FA80484AF0B0FAC8
:1023D0007F484AF0ADFA7F484AF0AAFA7E484AF0B0
:1023E000A7FA7E484AF0A4FA7D484AF0A1FA7D484F
:1023F0004AF09EFA7C484AF09BFA7C484AF098FAE8
:102400007B484AF095FA73484AF092FA79484AF0C4
:102410008FFA79484AF08CFA78484AF089FA784875
:102420004AF086FA77484AF083FA77484AF080FA09
:1024300076484AF07DFA76484AF07AFA75484AF0CA
:1024400077FA75484AF074FA74484AF071FA744899
:102450004AF06EFA73484AF06BFA73484AF068FA29
:1024600072484AF065FA72484AF062FA71484AF0D6
:102470005FFA71484AF05CFA70484AF059FA7048BD
:102480004AF056FA6F484AF053FA6F484AF050FA49
:102490006E484AF04DFA6E484AF04AFA6D484AF0E2
:1024A00047FA6D484AF044FA6C484AF041FA6C48E1
:1024B0004AF03EFA6B484AF03BFA6B484AF038FA69
:1024C0006A484AF035FA6A484AF032FA69484AF0EE
:1024D0002FFA69484AF02CFA68484AF029FA684805
:1024E0004AF026FAD8F80030AB4217DDE36893B122
:1024F000A26821681AB163484AF01AFA02E0084655
:102500004AF016FA616819B130464AF011FA02E051
:1025100038464AF00DFA01351034E3E75A484AF0DC
:1025200007FA03E0594821464AF002FA79B0BDECB7
:10253000068BBDE8F08F00BFA1F5060881F50608FF
:102540008430002012000708C810070895F5060817
:10255000D1DB0608A6F506084BDC0608D3F506080D
:102560006CDC0608FBF506081AF606080FF60608E6
:102570006885070822F60608CAF4060842F6060827
:10258000BE62070883F6060865DF060896F60608A9
:102590002BE00608B6F60608D2F60608FEF6060890
:1025A00041F706087CF7060850E20608A1F706087E
:1025B000BEF70608DBF706081CF8060832F806081E
:1025C0006FF8060882F80608D6F806080EF906081D
:1025D0004EF9060878F9060804E60608ADF906087B
:1025E00003FA06081EFA060855FA0608A6FA0608AF
:1025F000E3FA060835E9060820FB06084AE906085A
:1026000042FB060893E906086EFB060898FB0608DD
:10261000B6FB0608E5FB060805FC060834FC0608C0
:1026200052FC060879FC06089CFC0608DFFC06083C
:1026300014FD06085FFD060886FD0608AEFD0608C7
:1026400004FE060830FE06088BFE060858F1060850
:10265000C4FE0608F6FE06080DFF060818F4060874
:1026600043FF0608C0F4060857FF060881FF060866
:10267000ABFF0608FAF40608C9FF060877F5060856
:10268000E9FF06080C0007080BDD060841000708F3
:10269000803000200000000000000000000000006A
:1026A00037B502EB410294B2054601A920465FF01E
:1026B0007FFC08B100200FE0601C0DF1060180B224
:1026C0005FF076FC0028F5D1BDF80420BDF8063097
:1026D00043EA02432B60012003B030BD70B50568AA
:1026E00041F288300E46144651F08AFA51F090FAC1
:1026F000B0EE080A51F094FA30B304EB46045FF0F0
:1027000077F9A4B210F05CFD62F022FBF22062F0D7
:1027100037FB290C20465FF03BFD092809D1601CDE
:10272000A9B280B25FF034FDA0F109035C425C41C4
:1027300000E0002462F01CFB10F072FD642051F0F8
:102740005FFA5FF065F900E00124204670BDF8B53E
:1027500041F2883051F054FA51F05AFAB0EE080ABA
:1027600051F05EFA054640B35FF042F910F028FDE3
:1027700062F0EEFAF22062F003FB114E002441F207
:10278000707706EB440316F814105B78381943EAA7
:10279000012180B25FF0FCFC092804D10134B4F5BA
:1027A000847FEED100E0002562F0E2FA10F038FDFF
:1027B000642051F025FA5FF02BF92846F8BD00BFE0
:1027C0000000001070B54FF45B620021ADF5067D8E
:1027D000594866F005FA584900230A4603F57A700D
:1027E00021F813000133B3F5B57FF7D140F226216C
:1027F00003F2666022F8130001338B42F8D140F2F5
:10280000662103F6921022F8130001338B42F8D1AF
:1028100040F2664103F63A5022F8130001338B422E
:10282000F8D1464A41F2707341F6780122F8023F2E
:1028300001339BB28B42F9D162F08AFAF22062F046
:102840009FFA5FF0DDFB62F093FA002541F27076AB
:1028500002AC70190DF1060180B25FF0A9FB60B9FE
:10286000BDF806301A0A04F8152004EB45020135BC
:10287000B5F5847F5370ECD138E0314D314E4FF4D3
:1028800004720021204666F0ABF92B68B34203D1F5
:102890006A68AB68C4E90123EB68B34203D12A69D3
:1028A0006B69C4E90423AB69B34204D18022264991
:1028B00009A866F065F9D5F89C30B3420AD14FF407
:1028C000B47222490DF1A90066F05AF995F8A030CA
:1028D00084F8A030D5F80932B34225D195F80D32ED
:1028E00084F80D3295F80E3284F80E32154B2360C1
:1028F000E360A361C4F89C301E2384F809326B2383
:1029000084F80A326FF0760384F80B324FF40472C5
:10291000052321460A4884F80C3266F031F9FFF7A6
:1029200016FF0DF5067D70BD022384F80D3215F0FB
:102930008FF984F80E02D9E7783A0020424300204C
:10294000000000101E6B89051C000010A100001083
:102950001F2902D840F6B832A2E600207047FF29AE
:1029600002D84FF47A629BE6002070471F2902D8F4
:1029700040F6B832B2E600207047FF2902D84FF483
:102980007A62ABE60020704770B5044694B000252B
:1029900005F5FA600DF1020180B25FF009FB60B944
:1029A000BDF802301A0A04F8152004EB450201357F
:1029B000BC2D5370ECD1012500E000252046B4F871
:1029C000746115F00DFB864206D0172301A88DF81F
:1029D00005300FF0FDFD00E04DB9204613F028FA58
:1029E000044B93F80D22627693F80E32237014B0E4
:1029F00070BD00BF0000001070B5044641F2883081
:102A000051F0FEF851F004F9B0EE080A51F008F95F
:102A1000064698B35EF0ECFF10F0D2FB204615F0AE
:102A2000DFFAA4F8740162F093F9F22062F0A8F9D9
:102A3000002504EB450314F815105B7805F5FA60E2
:102A400043EA012180B25FF0A3FB092803D10135DD
:102A5000BC2DEED100E0002662F08AF910F0E0FB18
:102A6000642051F0CDF85EF0D3FF054B227883F857
:102A70000E22627E83F80D22FFF769FE304670BD9C
:102A800000000010F0B541F2883695B005460F46BB
:102A9000002908BF4FF47A76002430190DF10201A5
:102AA00080B25FF085FA68B9BDF802301A0A05F8FD
:102AB000142005EB44020134B4F5B57F5370ECD11A
:102AC000012400E0002439462846B5F8D06253F0CE
:102AD0005FF9864206D0182301A88DF805300FF063
:102AE00077FD00E014B9284612F0FAFE15B0F0BDEB
:102AF000F8B5054641F288300C4651F081F851F0A6
:102B000087F8B0EE080A51F08BF8064688B35EF0FD
:102B10006FFF10F055FB002C2146284641F2883704
:102B200008BF4FF47A7753F033F9A5F8D00262F07A
:102B30000FF9F22062F024F9002405EB440315F8A4
:102B400014105B78381943EA012180B25FF020FB52
:102B5000092804D10134B4F5B57FEED100E0002698
:102B600062F006F910F05CFB642051F049F85EF069
:102B70004FFF3046F8BD2DE9F04F2DED088B85B0A5
:102B8000B0EE609AF0EE409AF0EE41AA0393CDE9E0
:102B9000011282465EF014F804465EF011F8064613
:102BA00050F04EF84FF435720146204665F0E8FFCC
:102BB0004FF435722146304665F0E2FFC14AC4F851
:102BC000AC20C14AC4F8A0200023C04A84F8923047
:102BD000F7EE008A84F8933084F89130C4ED298AA6
:102BE00084ED259AC4F8982084F85D32204652F08E
:102BF0001FFB4FF4FA7550F05BF820B164200AF027
:102C000007FF013DF7D142F210700AF001FF10F00A
:102C1000A7FA804610F0ACFAB0EE40AA10F0B0FA75
:102C2000814610F065FA00219FEDA90A4EF660205A
:102C300010F046FA50F024F850F032F8B0EE690A7D
:102C400051F07EF90025B5EE008A012D0FD150F02C
:102C500027F851F06DFBB7EE000A50F081F879EEDD
:102C6000097A9C4BC4ED257AC4F8A03012E0022DFD
:102C70001FD150F015F851F05BFBB7EE000A50F091
:102C80006FF8F1EE007A69EE277A0123C4ED257A18
:102C900084F8913050F004F8204652F0C9FA42F21C
:102CA00010700AF0B5FE4FF0FBFFB0EE690A51F06C
:102CB00047F94FF0000B5F46B6EE00BA50F0A0F8AF
:102CC000B4EECB0AF1EE10FA20D50A200AF0A0FEED
:102CD00050F096F8B4EEC80AF1EE10FA07F10107C9
:102CE00007DBBBF1000F40F0E280012055F0C8F88F
:102CF000DDE0B7F5FA6FE1DDBBF1000F0BD041F27B
:102D000088339F420DD04FF0010BD7E7BBF1000F86
:102D10001ED14FF0010B0135032D96D1BBF1000FF1
:102D200016D19FED6B0A51F00BF94946B0EE4A0AF5
:102D3000404610F0C5F9304652F07AFA4FF0A8FF3D
:102D400020465DF06DFF30465DF06AFF0020B3E085
:102D500055F09EF84FF0A4FFB6EE000A50F0B0FF19
:102D60004FF47A600AF054FE4FF09AFF9FED580A34
:102D700051F0E6F8002050F003FA4FF4FA650746E8
:102D8000002050F0FDF9C01B022806DC0A200AF0E2
:102D90003FFE013DF4D1012500E0022555F038F851
:102DA000002050F0EDF940F6B8378346002050F08F
:102DB000E7F9A0EB0B00312805DC0A200AF028FE19
:102DC000013FF3D100E00135029855F069F8039B0B
:102DD000186055F01DF841F288378AED000A50F06E
:102DE0000FF8B4EEEA0AF1EE10FA05DD0A200AF057
:102DF0000FFE013FF3D100E001354FF051FFB0EE7F
:102E00006A0A50F05DFF55F003F8002050F0B8F961
:102E10009FED2F8A834640F6B837F0EE489A00209F
:102E200050F0AEF9A0EB0B0063280BDC50F028F853
:102E30000A2079EE809A0AF0EBFD013F38EE288AED
:102E4000EDD100E0013554F0E3FFB0EE409A4FF0D1
:102E500027FF51F06DFAB7EE000A4FF081FF1E4BCD
:102E6000DAED007ADB8A39EE679A07EE903AF8EEEF
:102E7000677AC9EE888A019B304689EE277A68EE28
:102E8000878AC3ED008A52F0D3F94946B0EE4A0A68
:102E9000404610F015F94FF0FBFE20465DF0C0FEF5
:102EA00030465DF0BDFE6B1F5842584104E0B7F557
:102EB000FA6F3FF724AF26E705B0BDEC088BBDE8FD
:102EC000F08F00BF00009643000048420080894414
:102ED000000000000000A041D04201202DE9F04F89
:102EE0002DED0A8B83B0B0EE419AB0EE408AB0EE81
:102EF00060AAF0EE619A01905DF062FE04465DF01A
:102F00005FFE06464FF09CFE4FF4357201462046A8
:102F100065F036FE4FF435722146304665F030FEDE
:102F2000002384F8923084F8933084F89130A34BD6
:102F3000C4F86432A24BC4F8AC30A24BC4F8A03041
:102F4000F7EE008AA04BC4ED298A84ED259AC4F8D7
:102F50009830204652F06CF94FF4FA754FF0A8FE05
:102F600020B164200AF054FD013DF7D14FF0A0FEDE
:102F7000054618B1304652F05BF9AAE042F21070F3
:102F80000AF046FD10F0ECF8804610F0F1F8F0EE93
:102F900040BA10F0F5F8814610F0AAF829469FEDE6
:102FA0008B0ADFED8BAA4EF6602010F089F84FF007
:102FB00067FE4FF075FEB0EE480A50F0C1FF4FF0CB
:102FC000010B012D0AD14FF06BFE51F0B1F9B7EEB4
:102FD000000A4FF0C5FEC4ED28AA23E0022D0FD150
:102FE0004FF05EFE51F0A4F9B7EE000A4FF0B8FEC4
:102FF00079EE097A774BC4ED257AC4F8A03011E058
:10300000032D1ED14FF04CFE51F092F9B7EE000A9D
:103010004FF0A6FEF1EE007A69EE277A84F891B0BF
:10302000C4ED257A4FF03CFE204652F001F942F201
:1030300010700AF0EDFC4FF033FEB0EE480A50F08D
:103040007FFF4FF0000A5746B6EE00BA4FF0D8FEA9
:10305000B4EECA0AF1EE10FA21D50A200AF0D8FC23
:103060004FF0CEFE6AEE0B7A0137B4EEE70AF1EECE
:1030700010FA07DBBAF1000F40F09680012054F0FF
:10308000FFFE91E0B7F5FA6FE0DDBAF1000F0BD06B
:1030900041F288339F420DD04FF0010AD6E7BAF1D2
:1030A000000F1ED14FF0010A0135042D89D1BAF16C
:1030B000000F16D19FED450A50F042FF4946B0EE91
:1030C0006B0A40460FF0FCFF204652F0B1F84FF07B
:1030D000DFFD20465DF0A4FD30465DF0A1FD00203F
:1030E00067E04FF0DDFDB0EE4A0A9FED388A3A4FB7
:1030F000DFED3ACA9FED3ACA50F0E2FD4FF4FA65AF
:10310000B0EE48AAB0EE489AF0EE48AAFB8A9FEDCE
:1031100035BA07EE903AF8EE677A67EEAC7AA7EE2A
:103120008CBA4FF06DFEEBEE00AA4FF0A9FE39EE1F
:10313000009A4FF00DFF0A203AEE00AA0AF068FC50
:10314000013D38EE288AE1D14946B0EE6B0A40468F
:103150000FF0B6FF304652F06BF84FF099FD9FED3F
:103160001B0A50F0EDFECAEE087A019B20468AEE5B
:10317000887A69EEE79AF0EE007AA9EEA77AC9EEAE
:10318000087ADFED196A67EEA67ADFED186A67EE56
:10319000A67AC7EE276AC3ED006A5DF041FD3046AE
:1031A0005DF03EFD012004E0B7F5FA6F3FF770AF28
:1031B00072E703B0BDEC0A8BBDE8F08F00401C46FF
:1031C000000096430000484200808944000000004F
:1031D00000007A430000A041D04201206740533AEA
:1031E000D145FF41C3F5A8BE5077D63DD7B3DD3FEB
:1031F000DFED377AC0EEA70AB7EE007AC7EE207A85
:103200009FED347A67EE877A9FED337A27EE877ADF
:10321000B4EEC07AF1EE10FA0ADB80EE277A82B0C3
:10322000FCEEC77ACDED017A9DF8040002B070473C
:103230009FED2A7A27EE877AB4EEC07AF1EE10FA83
:103240000EDB37EEA77AC0EE077A9FED257A77EE90
:10325000C77AFCEEE77A17EE900A60F07F0018E07C
:103260009FED207A27EE877AB4EEC07AF1EE10FA5D
:1032700011DBB2EE007A27EE877AC0EE077A9FED77
:103280001A7A77EEC77AFCEEE77A17EE900A60F0CA
:103290003F00C0B270479FED157A27EE877AB4EEF3
:1032A000C07AF1EE10FA10DBB3EE007A27EE877ADF
:1032B000C0EE077A9FED0C7A77EEC77AFCEEE77ADC
:1032C00017EE900A60F01F00E3E7FF20704700BF91
:1032D0000024744900007A440000FE4200007E434E
:1032E000000080420000FC430000004200007C44DB
:1032F0002DE9F04F2DED108B87B0CDE90132DDF8CF
:103300008090019A00910023F0EE40BAB0EE60BACE
:10331000B0EE41CAF0EE61AAB0EE42AA8046137048
:10332000B9F1000F02D0B04BC9F80030219B13B1A6
:10333000219AAD4B1360229B13B1229A0023137084
:103340004FF07EFCD0ED8A7AF0EEEB8AF4EEE78A5D
:10335000F1EE10FA11D8F5EEC0AAF1EE10FA03D88A
:103360004FF06EFCD0ED38AAB5EEC0AAF1EE10FA1F
:1033700003D84FF065FC90ED36AAF5EEC0AAF1EE49
:1033800010FA40F20683B5EEC0AAF1EE10FA40F250
:103390000083DFED967A2AEE279A2AEEA78A5DF05F
:1033A0000FFC05465DF00CFC07464FF049FC4FF45E
:1033B00035720146284665F0E3FB4FF43572294625
:1033C000384665F0DDFBD5ED197A9FED897A85EDFC
:1033D0002F9A67EE877A0223F4EE4B7A85F89230C3
:1033E000B7EE009A0023F1EE10FA85F82C3185ED46
:1033F000308A85F8583185ED959A284648BFB0EE59
:1034000067BA51F015FF4FF4FA744FF051FC20B138
:1034100064200AF0FDFA013CF7D14FF049FC044664
:1034200000287AD142F210700AF0F2FA0FF098FEFA
:1034300082460FF09DFEF0EE409A0FF0A1FE9FED48
:10344000748A83460FF054FE2146B0EE480A4EF6C9
:1034500060200FF035FE4FF013FCD5ED8A7AF4EEC4
:10346000E78AF1EE10FA40F36381DFED628A4FF0F4
:1034700017FC07EE904AB8EEE70AF0EE480A20EE95
:103480002B0A80EE280A50F05BFE4FF011FCC8B109
:103490005946B0EE690A064650460FF011FE4FF04D
:1034A000F7FB50F045FFB7EE000A4FF059FC3846E5
:1034B00051F0BEFE28465DF0B3FB38465DF0B0FB30
:1034C000344667E20A2001340AF0A2FAC82CCED1B1
:1034D0009FED4F8A4FF47A76F0EE488A4FF090FCD9
:1034E0000A20B0EEC00A78EE808A0AF091FA013E16
:1034F00038EE098AF2D14FF0DBFB0446B8B1B0EEEA
:10350000690A594650460FF0DBFD4FF0C1FB50F001
:103510000FFFB7EE000A4FF023FC384651F088FE4B
:1035200028465DF07DFB38465DF07AFB32E2C8EE5E
:1035300088DA9FED378A9FED30EA9FED30DADFEDD4
:1035400030CAF0EE488A4FF05BFCB0EEC00AB4EE31
:10355000CB0AF1EE10FA72D5CCEE0E7A78EEA78A8D
:103560004FF09EFB95F85D3213B1F1EE680A01E071
:10357000F0EE680AB0EE6B0A50F0E2FD4FF098FBF7
:1035800008B10346EAE10A200AF042FA4FF038FC9B
:10359000B0EEC00AB4EE408AF1EE10FA06F1010670
:1035A00043F6982348BFB0EE408A9E4203D10E4BAB
:1035B000C8F8003043E0B6F57A6F39DD68EE0D7A71
:1035C000F4EEC07AF1EE10FA02DD4FF0404207E06F
:1035D0006DEEAC7AF4EECB7AF1EE10FA28DD094A02
:1035E000C8F800201E462AE0000080BFABAA26448F
:1035F0006666663F0000484300007A443333333F39
:10360000CDCC8C3F000040C000803B460000FA4318
:10361000000000005077D63D0AD7A33C00002042AE
:1036200035FA8E3C0000C843E02E65420000B443EA
:103630005FED0B7AF4EEE78AF1EE10FA83DB42F2EB
:1036400010700AF0E5F943F698239E4272D01FED00
:10365000108A42F21076F0EE48BAB0EE48BAB0EEF8
:1036600048CAF0EE48CA5AF0F3F97CEE80CA5AF024
:10367000E7F93CEE00CA5AF0DBF83BEE00BA5AF02C
:10368000CFF801207BEE80BA38EE098A0AF0C0F943
:103690004FF00EFB08B9013EE5D18CEE080A044656
:1036A000CCEE887A8BEE08CA8BEE88BA20EE000A40
:1036B000A7EEA70A63F0ECF8B0EE408A2BEE0B0AF7
:1036C000ACEE0C0A63F0E4F85FED2E7A5FED316A40
:1036D000AAEEC08A284668EEA78AC8EE287AEAEEE3
:1036E000407AC8ED007AC5ED38AA85ED36AAD8F83B
:1036F0000030C5F8E430D8ED007A67EEA77A86EEA0
:10370000A77A85ED3A7A51F093FD41F288300AF0BC
:103710007FF94FF08DFA831E5842584159F040FD11
:103720001FED450A59F0ACFD32200AF071F901E0B5
:1037300088ED008A24F03CFEB0EE40DA5AF008F939
:10374000F0EE40DA002C40F003811FED4F8A1FEDB0
:103750004FFA5FED4FEA1FED4FEA4FF4FA66F0EED5
:1037600048AAB0EE48AAB0EE48CAF0EE488AF0EE99
:1037700048BAB0EE48BA59F0E3FF60EE0FCA59F00C
:1037800027FFB0EEC00AB4EEEE0AF1EE10FA00F137
:10379000BC805AF05DF980EE2C0A7AEE80AA5AF0CD
:1037A000EFF8F0EE40CA24F003FEF0EE4D0A0EF002
:1037B00087FFB1EE047AF0EEC0FAF4EEC7FAF1EE4C
:1037C00010FA19DBF0EE6D0A8DED030AB0EE6C0A0B
:1037D0000EF076FFF0EE40DA24F0EAFDDDED037A3C
:1037E0008DEEA77A3CEE09CA78EE878A3AEE2FAAC8
:1037F000B0EE40DAF0EE6CDAB4EECEAAF1EE10FAEA
:1038000077DBF5EEC08AFFEE007AF1EE10FAB7EE44
:10381000000A48BFB0EE670A28EE800A80EE0C0A64
:1038200062F05EFAF0EE40FA24F0C2FDF5EEC08AD6
:10383000F1EE10FA44BF5FED837A37EEC00AF0EE86
:103840006C0A20EE2F0A0EF03BFF5FED8B7A05A984
:1038500020EE270A04A863F003F8DDED047A3BEEBE
:1038600027BADDED057A7BEEA7BA5FED927AB4EE6A
:10387000E7AAF1EE10FA3CDB002C39D1B9F1000FC8
:1038800005D1219B4BB3219BC3ED00FA25E0F0EE5F
:103890006B0AB0EE4B0A62F063FC5FED9D7A1FEDA0
:1038A0009D7A20EE270A89ED000AD9ED007AF5EE1F
:1038B000C07AF1EE10FA04D577EE877AC9ED007A76
:1038C000F3E7D9ED007AF4EEC77AF1EE10FAD8DD1D
:1038D00077EEC77AC9ED007AF3E7229B43B1F5EEA4
:1038E000C08AF1EE10FA229A4CBF01230023137014
:1038F0000124012038EE098A0AF08AF84FF0D8F93D
:1039000028B9013E7FF437AF01E0002300E0034611
:10391000029AB5EEC08AF1EE10FA82ED008A08DD57
:10392000CAEE887A009A0199C2ED007A01220A70E3
:1039300002E0009900220A60D8ED007AF5EEC07A24
:10394000F1EE10FA02DD019901220A7033B100E0B4
:103950002346009900220A60C8F800205946B0EEBC
:10396000690A504600930FF0ABFB4FF091F950F00D
:10397000DFFCB7EE000A4FF0F3F9384651F058FC7F
:1039800028465DF04DF938465DF04AF9009B1C462B
:1039900000E00024204607B0BDEC108BBDE8F08F9E
:1039A0002DE9F04F2DED068B4FF0FF3389B01360FA
:1039B000F0EE408ACDE9000193465DF001F905463D
:1039C0005DF0FEF804464FF03BF94FF435720146C6
:1039D000284665F0D5F84FF435722946204665F043
:1039E000CFF8022385F89230002385F82C31B34BB1
:1039F000C5F8BC304FF07E53C5F8C030284651F0B2
:103A000017FC4FF4FA764FF053F920B1642009F017
:103A1000FFFF013EF7D14FF04BF90646A8BB42F23B
:103A2000107009F0F5FF0FF09BFB81460FF0A0FB33
:103A3000B0EE408A0FF0A4FB82460FF059FB3146EE
:103A40009FED9F0A4EF660200FF03AFB06AF4FF055
:103A500017F985F85C62284651F0EAFB0DF10E017A
:103A60003846B0EE680A5BF0ABF80646B8B1B0EE87
:103A7000480A514648460FF023FB4FF009F950F031
:103A800057FCB7EE000A4FF06BF9204651F0D0FB1F
:103A900028465DF0C5F820465DF0C2F808E14FF019
:103AA000EFF89DF80E200223002A00F09A8084F897
:103AB0002C3184F85C6204F22D123346F95C02F872
:103AC000011B0133082BF9D1012354E00A2008F12E
:103AD000010809F09DFFB8F57A7F40F08C8024F052
:103AE00067FC9FED779AF0EE409A07EE907AB42F3C
:103AF000B8EEE7AA40F0AC8024F05AFCF0EE400AA1
:103B0000B0EE690A0EF0DCFDF0EEC06AB0EE490AD4
:103B10000EF0D6FDF0EE007AF4EEE76AF1EE10FA60
:103B2000B0EEC00A29DDF6EE007AA6EEE70AF5EE61
:103B3000007A66EEA76AB4EEE60AF1EE10FA1CD53A
:103B40000DF10F0305AA04A90020B0EE680A59F090
:103B5000FFFF0499C4F8CC100599C4F8D4100122D1
:103B600002239DF80F1084F85C3284F82C2184F82D
:103B7000D0108DF80E20CBF800309DF80E3033B900
:103B800084F82C31CBF8003001238DF80E305146EB
:103B9000B0EE480A48460FF093FA4FF079F850F02B
:103BA000C7FBB7EE000A4FF0DBF8204651F040FBB0
:103BB0009DF80E30002B3FF46BAF009B3BB14FF0F4
:103BC00037F8831E594259412046FEF791FF019B69
:103BD000002B3FF45DAF002221460E2048F0C8FFC5
:103BE00056E785F85C32284651F022FBDFED359A26
:103BF0009FED339AB0464FF053F807EE908AB8EE37
:103C0000E70AF0EE490A20EE280A80EE290A50F071
:103C1000D7FA4FF04DF8074600283FF457AF51460A
:103C2000B0EE480A48460FF04BFA4FF031F850F02A
:103C30007FFBB7EE000A4FF093F8204651F0F8FAF8
:103C400028465CF0EDFF20465CF0EAFF3E462FE0A0
:103C50004FF026F8F0EE4A0AB0EE680A50F0B0FADB
:103C60004FF026F88046C0B15146B0EE480A4846AB
:103C70000FF026FA4FF00CF850F05AFBB7EE000A9E
:103C80004FF06EF8204651F0D3FA28465CF0C8FF9A
:103C900020465CF0C5FF46460AE0322009F0B8FE37
:103CA0005A2F03D124F084FBB0EE409A01371CE771
:103CB000304609B0BDEC068BBDE8F08F6F12033AB9
:103CC0000000000000007A449FED117AD0ED366AC2
:103CD000D0ED397A20EE070AB7EE007A87EE006A57
:103CE00090ED387A66EE866A26EE077A67EEA77A56
:103CF000C0ED2F6ADFED076A80ED307A86EEA77A95
:103D0000DFED057A67EE277AC0ED3A7A704700BF9B
:0C3D1000BD3786356F12833A00247449D9
:10C0000072B6334880F3098840F20000CCF2000099
:10C010004EF63471CEF200010860BFF34F8FBFF3CC
:10C020006F8F40F20000C0F2F0004EF68851CEF261
:10C0300000010860BFF34F8FBFF36F8F4FF0000018
:10C04000E1EE100A4EF63C71CEF2000108600620C7
:10C0500080F31488BFF36F8F01F06AF90BF068FB6F
:10C060004FF055301B491C4A91423CBF41F8040B2C
:10C07000FAE71A49164A91423CBF41F8040BFAE725
:10C080001749184A184B9A423EBF51F8040B42F820
:10C09000040BF8E700201549154A91423CBF41F8CE
:10C0A000040BFAE701F04CF9124C134DAC4203DAE1
:10C0B00054F8041B8847F9E706F0BAF80F4C104D06
:10C0C000AC4203DA54F8041B8847F9E701F040B9A1
:10C0D00000100020000000200008002000080020C0
:10C0E000289C0708001000202C190020301900207F
:10C0F000A0B0012000C0000800C0000800C0000877
:10C1000000C0000800000000000000000000000067
:10C110002DE9F04F2DED108AC1F80CD0D0F80CD0DD
:10C12000BDEC108ABDE8F08F62B62846A04700201B
:10C1300001F09EFC01F08CFB4EF60453CEF200039E
:10C140004FF080521A6062B6FEE700000000000067
:10C1500081F0004102E000BF83F0004330B54FEAB8
:10C1600041044FEA430594EA050F08BF90EA020F25
:10C170001FBF54EA000C55EA020C7FEA645C7FEAB8
:10C18000655C00F0E2804FEA5454D4EB5555B8BFDB
:10C190006D420CDD2C4480EA020281EA030382EA4C
:10C1A000000083EA010180EA020281EA0303362DDE
:10C1B00088BF30BD11F0004F4FEA01314FF4801CB1
:10C1C0004CEA113102D0404261EB410113F0004FC3
:10C1D0004FEA03334CEA133302D0524263EB43037A
:10C1E00094EA050F00F0A780A4F10104D5F1200E18
:10C1F0000DDB02FA0EFC22FA05F2801841F1000173
:10C2000003FA0EF2801843FA05F359410EE0A5F146
:10C2100020050EF1200E012A03FA0EFC28BF4CF077
:10C22000020C43FA05F3C01851EBE37101F000452D
:10C2300007D54FF0000EDCF1000C7EEB00006EEB3A
:10C240000101B1F5801F1BD3B1F5001F0CD34908C4
:10C250005FEA30004FEA3C0C04F101044FEA44521B
:10C2600012F5800F80F09A80BCF1004F08BF5FEAA2
:10C27000500C50F1000041EB045141EA050130BD82
:10C280005FEA4C0C404141EB010111F4801FA4F125
:10C290000104E9D191F0000F04BF01460020B1FA7A
:10C2A00081F308BF2033A3F10B03B3F120020CDAB2
:10C2B0000C3208DD02F1140CC2F10C0201FA0CF090
:10C2C00021FA02F10CE002F11402D8BFC2F1200CF5
:10C2D00001FA02F120FA0CFCDCBF41EA0C019040AB
:10C2E000E41AA2BF01EB0451294330BD6FEA0404F4
:10C2F0001F3C1CDA0C340EDC04F11404C4F12002DF
:10C3000020FA04F001FA02F340EA030021FA04F3F0
:10C3100045EA030130BDC4F10C04C4F1200220FA47
:10C3200002F001FA04F340EA0300294630BD21FA85
:10C3300004F0294630BD94F0000F83F4801306BF4B
:10C3400081F480110134013D4EE77FEA645C18BF3F
:10C350007FEA655C29D094EA050F08BF90EA020FD6
:10C3600005D054EA000C04BF1946104630BD91EACE
:10C37000030F1EBF0021002030BD5FEA545C05D1D1
:10C380004000494128BF41F0004130BD14F5800410
:10C390003CBF01F5801130BD01F0004545F0FE4184
:10C3A00041F470014FF0000030BD7FEA645C1ABFB9
:10C3B000194610467FEA655C1CBF0B46024650EAF0
:10C3C000013406BF52EA033591EA030F41F400211C
:10C3D00030BD00BF90F0000F04BF0021704730B5A2
:10C3E0004FF4806404F132044FF000054FF0000177
:10C3F00050E700BF90F0000F04BF0021704730B538
:10C400004FF4806404F1320410F0004548BF40420C
:10C410004FF000013EE700BF42004FEAE2014FEA61
:10C4200031014FEA02701FBF12F07F4393F07F4F3C
:10C4300081F06051704732F07F4208BF704793F03F
:10C440007F4F04BF41F40021704730B54FF4607452
:10C4500001F0004521F000411CE700BF50EA010255
:10C4600008BF704730B54FF000050AE050EA0102FE
:10C4700008BF704730B511F0004502D5404261EB6E
:10C4800041014FF4806404F132045FEA915C3FF4AF
:10C49000D8AE4FF003025FEADC0C18BF03325FEA4C
:10C4A000DC0C18BF033202EBDC02C2F1200300FAFD
:10C4B00003FC20FA02F001FA03FE40EA0E0021FA22
:10C4C00002F11444BDE600BF0000000000000000BF
:10C4D00070B54FF0FF0C4CF4E06C1CEA11541DBF1A
:10C4E0001CEA135594EA0C0F95EA0C0F00F0DEF8E5
:10C4F0002C4481EA030621EA4C5123EA4C5350EACA
:10C50000013518BF52EA033541F4801143F480131A
:10C5100038D0A0FB02CE4FF00005E1FB02E506F0AB
:10C520000042E0FB03E54FF00006E1FB03569CF000
:10C53000000F18BF4EF0010EA4F1FF04B6F5007F06
:10C5400064F5407404D25FEA4E0E6D4146EB060678
:10C5500042EAC62141EA55514FEAC52040EA5E5001
:10C560004FEACE2EB4F1FD0C88BFBCF5E06F1ED8AB
:10C57000BEF1004F08BF5FEA500E50F1000041EBE2
:10C58000045170BD06F0004646EA010140EA02008F
:10C5900081EA0301B4EB5C04C2BFD4EB0C0541EAB1
:10C5A000045170BD41F480114FF0000E013C00F3C6
:10C5B000AB8014F1360FDEBF002001F0004170BDEA
:10C5C000C4F10004203C35DA0C341BDC04F1140403
:10C5D000C4F1200500FA05F320FA04F001FA05F28F
:10C5E00040EA020001F0004221F0004110EBD3705C
:10C5F00021FA04F642EB06015EEA430E08BF20EA88
:10C60000D37070BDC4F10C04C4F1200500FA04F32A
:10C6100020FA05F001FA04F240EA020001F00041BC
:10C6200010EBD37041F100015EEA430E08BF20EA2F
:10C63000D37070BDC4F1200500FA05F24EEA020E77
:10C6400020FA04F301FA05F243EA020321FA04F0A6
:10C6500001F0004121FA04F220EA020000EBD3705D
:10C660005EEA430E08BF20EAD37070BD94F0000F5D
:10C670000FD101F00046400041EB010111F4801F91
:10C6800008BF013CF7D041EA060195F0000F18BF42
:10C69000704703F00046520043EB030313F4801F7E
:10C6A00008BF013DF7D043EA0603704794EA0C0F38
:10C6B0000CEA135518BF95EA0C0F0CD050EA41064E
:10C6C00018BF52EA4306D1D181EA030101F00041CB
:10C6D0004FF0000070BD50EA410606BF10461946F3
:10C6E00052EA430619D094EA0C0F02D150EA0136FF
:10C6F00013D195EA0C0F05D152EA03361CBF104640
:10C7000019460AD181EA030101F0004141F0FE41DE
:10C7100041F470014FF0000070BD41F0FE4141F462
:10C72000780170BD70B54FF0FF0C4CF4E06C1CEA62
:10C7300011541DBF1CEA135594EA0C0F95EA0C0F17
:10C7400000F0A7F8A4EB050481EA030E52EA0335D2
:10C750004FEA013100F088804FEA03334FF08055F3
:10C7600045EA131343EA12634FEA022245EA111520
:10C7700045EA10654FEA00260EF000419D4208BFD1
:10C78000964244F1FD0404F5407402D25B084FEA7E
:10C790003202B61A65EB03055B084FEA32024FF42A
:10C7A00080104FF4002CB6EB020E75EB030E22BF87
:10C7B000B61A754640EA0C005B084FEA3202B6EB47
:10C7C000020E75EB030E22BFB61A754640EA5C00F6
:10C7D0005B084FEA3202B6EB020E75EB030E22BF86
:10C7E000B61A754640EA9C005B084FEA3202B6EB87
:10C7F000020E75EB030E22BFB61A754640EADC0046
:10C8000055EA060E18D04FEA051545EA16754FEAA7
:10C8100006164FEAC30343EA52734FEAC2025FEAC5
:10C820001C1CC0D111F4801F0BD141EA00014FF054
:10C8300000004FF0004CB6E711F4801F04BF014325
:10C840000020B4F1FD0C88BFBCF5E06F3FF6AFAE41
:10C85000B5EB030C04BFB6EB020C5FEA500C50F1D1
:10C86000000041EB045170BD0EF0004E4EEA113154
:10C8700014EB5C04C2BFD4EB0C0541EA045170BD5B
:10C8800041F480114FF0000E013C90E645EA060E9F
:10C890008DE60CEA135594EA0C0F08BF95EA0C0FCD
:10C8A0003FF43BAF94EA0C0F0AD150EA01347FF415
:10C8B00034AF95EA0C0F7FF425AF104619462CE7EC
:10C8C00095EA0C0F06D152EA03353FF4FDAE10464F
:10C8D000194622E750EA410618BF52EA43067FF4A0
:10C8E000C5AE50EA41047FF40DAF52EA43057FF430
:10C8F000EBAE12E7000000000000000000000000A6
:10C900004FF0FF3C06E000BF4FF0010C02E000BF1B
:10C910004FF0010C4DF804CD4FEA410C7FEA6C5CFE
:10C920004FEA430C18BF7FEA6C5C1BD001B050EAA1
:10C93000410C0CBF52EA430C91EA030F02BF90EA8C
:10C94000020F0020704710F1000F91EA030F58BF4B
:10C95000994208BF90422CBFD8176FEAE37040F0AD
:10C96000010070474FEA410C7FEA6C5C02D150EA4B
:10C97000013C07D14FEA430C7FEA6C5CD6D152EA06
:10C98000033CD3D05DF8040B704700BF84461046CB
:10C9900062468C461946634600E000BF01B5FFF7CA
:10C9A000B7FF002848BF10F1000F01BD4DF808ED9A
:10C9B000FFF7F4FF0CBF012000205DF808FB00BF6B
:10C9C0004DF808EDFFF7EAFF34BF012000205DF8C5
:10C9D00008FB00BF4DF808EDFFF7E0FF94BF012012
:10C9E00000205DF808FB00BF4DF808EDFFF7CEFF13
:10C9F00094BF012000205DF808FB00BF4DF808ED52
:10CA0000FFF7C4FF34BF012000205DF808FB00BF22
:10CA10004FEA410C7FEA6C5C02D150EA013C0AD13A
:10CA20004FEA430C7FEA6C5C02D152EA033C02D12C
:10CA30004FF0000070474FF0010070470000000009
:10CA40004FEA410212F5001215D211D56FF4787336
:10CA5000B3EB625212D94FEAC12343F0004343EAD9
:10CA6000505311F0004F23FA02F018BF40427047B4
:10CA70004FF00000704750EA013005D111F000403E
:10CA800008BF6FF0004070474FF00000704700BFD4
:10CA90004A0011D212F5001211D20DD56FF478733D
:10CAA000B3EB62520ED44FEAC12343F0004343EA92
:10CAB000505323FA02F070474FF00000704750EADD
:10CAC000013002D14FF0FF3070474FF00000704747
:10CAD0004FEA4102B2F1E04324BFB3F5001CDCF1A0
:10CAE000FE5C0DD901F0004C4FEAC0024CEA5070D8
:10CAF000B2F1004F40EB830008BF20F00100704707
:10CB000011F0804F21D113F13872BCBF01F0004009
:10CB1000704741F480114FEA5252C2F11802C2F13B
:10CB2000200C10FA0CF320FA02F018BF40F00100BC
:10CB30004FEAC1234FEAD32303FA0CFC40EA0C006E
:10CB400023FA02F34FEA4303CCE77FEA625307D1AB
:10CB500050EA01331EBF4FF0FE4040F440007047E2
:10CB600001F0004040F0FE4040F40000704700BF7C
:10CB700080F0004002E000BF81F0004142001FBF92
:10CB80005FEA410392EA030F7FEA226C7FEA236C9B
:10CB90006AD04FEA1262D2EB1363C1BFD218414090
:10CBA00048404140B8BF5B42192B88BF704710F026
:10CBB000004F40F4000020F07F4018BF404211F0C9
:10CBC000004F41F4000121F07F4118BF494292EA31
:10CBD000030F3FD0A2F1010241FA03FC10EB0C005D
:10CBE000C3F1200301FA03F100F0004302D54942EA
:10CBF00060EB4000B0F5000F13D3B0F1807F06D397
:10CC000040084FEA310102F10102FE2A51D2B1F18E
:10CC1000004F40EBC25008BF20F0010040EA030083
:10CC20007047490040EB000010F4000FA2F1010230
:10CC3000EDD1B0FA80FCACF1080CB2EB0C0200FABA
:10CC40000CF0AABF00EBC25052421843BCBFD04008
:10CC50001843704792F0000F81F4000106BF80F482
:10CC600000000132013BB5E74FEA41037FEA226C45
:10CC700018BF7FEA236C21D092EA030F04D092F010
:10CC8000000F08BF0846704790EA010F1CBF002044
:10CC9000704712F07F4F04D1400028BF40F00040A1
:10CCA000704712F100723CBF00F50000704700F0C1
:10CCB000004343F0FE4040F4000070477FEA2262E8
:10CCC00016BF08467FEA23630146420206BF5FEAB9
:10CCD000412390EA010F40F4800070474FF00003B9
:10CCE00004E000BF10F0004348BF40425FEA000C80
:10CCF00008BF704743F0964301464FF000001CE028
:10CD000050EA010208BF70474FF000030AE000BF7D
:10CD100050EA010208BF704711F0004302D54042BB
:10CD200061EB41015FEA010C02BF8446014600202D
:10CD300043F0B64308BFA3F18053A3F50003BCFA48
:10CD40008CF2083AA3EBC25310DB01FA02FC6344F5
:10CD500000FA02FCC2F12002BCF1004F20FA02F2FC
:10CD600043EB020008BF20F00100704702F12002EF
:10CD700001FA02FCC2F1200250EA4C0021FA02F250
:10CD800043EB020008BF20EADC707047000000009F
:10CD90007BB972B90029BEBF00204FF0004106E008
:10CDA00008BF00281CBF6FF000414FF0FF3000F0BB
:10CDB0003FBAADF1080C6DE904CE002909DB002B68
:10CDC0001ADB00F0CDF8DDF804E0DDE9022304B061
:10CDD0007047404261EB4101002B1BDB00F0C0F8C3
:10CDE000DDF804E0DDE9022304B0404261EB4101DB
:10CDF000524263EB43037047524263EB430300F03C
:10CE0000AFF8DDF804E0DDE9022304B0404261EB55
:10CE100041017047524263EB430300F0A1F8DDF893
:10CE200004E0DDE9022304B0524263EB43037047A0
:10CE300053B94AB9002908BF00281CBF4FF0FF3181
:10CE40004FF0FF3000F0F4B9ADF1080C6DE904CEFD
:10CE500000F086F8DDF804E0DDE9022304B0704755
:10CE600007EE900AF5EEC07AF1EE10FA01D400F068
:10CE700027B808B580F0004000F022F8404261EB8E
:10CE8000410108BD0000000000000000000000009B
:10CE900038B50022002304460D46FFF791FD28B95E
:10CEA00020462946BDE8384000F032B8204605F15A
:10CEB000004100F02DF8404261EB410138BD00BF58
:10CEC000D0B5FFF7A9FA00220D4B06460F46FFF733
:10CED000FFFAFFF7DDFD0446FFF77CFA0022094B5D
:10CEE000FFF7F6FA02460B4630463946FFF734F9AB
:10CEF000FFF7CEFD0022234610431946D0BD00BFE8
:10CF00000000F03D0000F0410000000000000000C3
:10CF1000D0B500220D4B06460F46FFF7D9FAFFF7B2
:10CF2000B7FD0446FFF756FA0022094BFFF7D0FA87
:10CF300002460B4630463946FFF70EF9FFF7A8FDCB
:10CF40000022234610431946D0BD00BF0000F03D2B
:10CF50000000F041000000000000000000000000A0
:10CF60002DE9F047089E04468846002B4BD18A42A3
:10CF7000154667D9B2FA82F24AB1C2F1200701FA26
:10CF800002F320FA07F7954047EA030894404FEA76
:10CF9000154E230CB8FBFEF71FFA85FC0EFB178815
:10CFA00043EA084307FB0CF1994209D9EB1807F152
:10CFB000FF3080F01B81994240F21881023F2B44E0
:10CFC0005B1AA4B2B3FBFEF00EFB103344EA034439
:10CFD00000FB0CFCA44509D92C1900F1FF3380F0AB
:10CFE0000781A44540F2048102382C4440EA0740FE
:10CFF000A4EB0C0400271EB1D4400023C6E9004373
:10D000003946BDE8F0878B4209D9002E00F0EB804D
:10D010000027C6E9000138463946BDE8F087B3FA73
:10D0200083F7002F47D18B4202D3824200F2FA806D
:10D03000841A61EB030301209846002EE0D0C6E974
:10D040000048DDE702B9FFDEB2FA82F2002A40F0C2
:10D050008F80491B4FEA154E1FFA85F80127B1FB57
:10D06000FEFC230C0EFB1C1143EA014308FB0CF1F0
:10D07000994207D9EB180CF1FF3002D2994200F225
:10D08000CD808446591AA3B2B1FBFEF00EFB1014FA
:10D0900043EA044408FB00F8A04507D92C1900F125
:10D0A000FF3302D2A04500F2B6801846A4EB080474
:10D0B00040EA0C409FE7C7F1200CBB4022FA0CFE6F
:10D0C0004EEA030E01FA07F420FA0CF521FA0CF3EC
:10D0D0004FEA1E482543B3FBF8F92C0C08FB193323
:10D0E0001FFA8EFA44EA034309FB0AF49C4202FA4F
:10D0F00007F200FA07F10BD91EEB030309F1FF3029
:10D1000080F087809C4240F28480A9F10209734438
:10D110001B1BADB2B3FBF8F008FB103345EA034428
:10D1200000FB0AFAA24508D91EEB040400F1FF3304
:10D130006BD2A24569D90238744440EA0940A0FB89
:10D140000289A4EB0A044C45C2464B4654D351D045
:10D15000002E69D0B1EB0A0564EB030404FA0CFC61
:10D16000FD40FC404CEA0505C6E90054002747E7AE
:10D17000C2F1200320FA03F7954001FA02F021FAE8
:10D1800003F34FEA154E3843010CB3FBFEF71FFAC9
:10D1900085F80EFB173341EA034107FB08F38B4286
:10D1A00004FA02F407D9691807F1FF3C2FD28B4229
:10D1B0002DD9023F2944CB1A81B2B3FBFEF00EFBFE
:10D1C000103341EA034100FB08F38B4207D9691889
:10D1D00000F1FF3C17D28B4215D902382944C91AF5
:10D1E00040EA07473BE73746304609E70746E7E6A8
:10D1F0001846FBE64145ABD2B8EB020A69EB0E02DA
:10D2000001381346A4E76046E9E7184695E7674604
:10D21000D1E781467CE702382C4447E7ACF1020CA9
:10D220002B442FE7384608E73746E9E600000000C0
:10D23000704700BF00000000000000000000000078
:10D24000EC46A0E8F05F4FF000007047B0E8F05FF8
:10D25000E546080008BF0120704700BF000000003D
:10D2600010F8012B11F8013B012A28BF9A42F7D090
:10D27000D01A70470000000000000000000000000D
:10D28000034613F8012B002AFBD1181A0138704706
:10D2900001F0FF01102A2BDB10F0070F08D010F867
:10D2A000013B013A8B422DD010F0070F42B3F6D16B
:10D2B000F0B441EA012141EA014122F007047FF084
:10D2C00000070023F0E80256083C85EA010586EADB
:10D2D000010685FA47F5A3FA87F586FA47F6A5FA17
:10D2E00087F68EB9EED1F0BC01F0FF0102F0070223
:10D2F00032B110F8013B013A83EA010313B1F8D1CE
:10D300000020704701387047002D06BF35460338AE
:10D31000073815F0010F07D1013015F4807F02BFE7
:10D32000013015F4C03F0130F0BC0138704700BF38
:10D33000704700BF00000000000000000000000077
:10D34000704700BF00000000000000000000000067
:10D35000FEE700BF00000000000000000000000029
:10D36000FEE700BF00000000000000000000000019
:10D37000FEE700BF00000000000000000000000009
:10D380001F4B204A204830B500249C60D9684FF6D6
:10D39000FF0529400A43DA60C2681C491C4D42F06F
:10D3A0008072C2600A6842F0010283B00A6083F8AA
:10D3B000224000F00DF900F08BF800F019FC00F0AD
:10D3C00097FF00F0D5FF2846402100F051FAA5F163
:10D3D0003003104AC2610122986180F8202062B6B1
:10D3E0009B690D49996105F1580000940B4B4FF46E
:10D3F000F07100F09DFA0A4B836103B030BD00BFAD
:10D4000000ED00E00003FA05F0ED00E0001000E0A0
:10D41000601900200008002060D9060871D30008B8
:10D4200040D90608000000000000000000000000D5
:10D4300008B5044672B605F003F8014BDC62FEE75E
:10D440003019002000000000000000000000000073
:10D4500070B5124CA26992F8233013B1013B82F8E7
:10D460002330516AE3690E4E01315162A26AB34220
:10D4700002F10102A26210D09D68013D9D6065B974
:10D480001A68D968DD605660E26162B6186988473B
:10D4900072B6E3699A68002AF2D070BD3019002094
:10D4A0004C190020000000000000000000000000F7
:10D4B000034A516853685B1A9842FBD8704700BF13
:10D4C000001000E00000000000000000000000006C
:10D4D000054B4FF0FF30002103F11C0258629962A6
:10D4E000C3E90722704700BF301900200000000088
:10D4F00030B40D4DEC690361A368C260994204D950
:10D500002468C91AA3688B42FAD36368C0E9004350
:10D51000186060608160A3684FF0FF32591AA16003
:10D520006A6230BC704700BF301900200000000064
:10D53000036841689A6830B48568064C2A449A604A
:10D540000B60056800224FF0FF336960C2606362C0
:10D5500030BC7047301900200000000000000000BF
:10D5600072B690F82030072B0ED8DFE803F0270DB5
:10D570000D2308040D08826A936801339360D0E993
:10D5800000231A600268536010B400224FF0FF3489
:10D5900081680B4B846280F820201B689A688A425D
:10D5A000FBD25A68C0E900321060586062B65DF87C
:10D5B000044B7047836A00221A60E5E762B6704741
:10D5C00030190020000000000000000000000000F2
:10D5D000034B0022C3E90033C3E904339A60704768
:10D5E00030190020000000000000000000000000D2
:10D5F00001460022074B806881F820201B689A684A
:10D600008242FBD25A680846C1E900321160596073
:10D61000704700BF3019002000000000000000002B
:10D6200038B50F4CA569236885F82000042285F8D9
:10D6300023201A68226001215460A36183F820101E
:10D64000EFF30982E969643A914203D90548FFF78B
:10D65000EFFEA36929461846BDE83840FEF758BDDD
:10D660003019002050D9060800000000000000001A
:10D6700030B54B1C87B012D00C4C0D4AA36905463F
:10D6800001A8FFF735FF2846FFF7CAFF049B13B137
:10D6900001A8FFF74DFFA369986A07B030BD034C9E
:10D6A000FFF7BEFFA369986A07B030BD30190020AC
:10D6B00061D500080000000000000000000000002C
:10D6C0001D4B70B59D698668AC688162A6424FF0BB
:10D6D00000020BD880F820201B689A689642FBD97C
:10D6E0005A68C0E900321060586070BD85F820208B
:10D6F0001A46126891688C42FBD9516869600446E9
:10D7000001202A600D6055609C6184F82000EFF3D1
:10D710000983EA69643B9A4205D829462046BDE858
:10D720007040FEF7F5BC0548FFF782FE294620460B
:10D73000BDE87040FEF7ECBC3019002050D9060857
:10D74000084A9369116893F8232088689B6822B976
:10D75000984234BF002001207047984294BF0020B7
:10D760000120704730190020000000000000000078
:10D77000154B1A6870B510689C691860A168436001
:10D780001D4601269A610420002382F8206084F857
:10D79000203084F823002B461B689A689142FBD9FD
:10D7A0005A68C4E9003214605C60EFF30983E269EF
:10D7B000643B9A4202D90548FFF73AFE2146A86920
:10D7C000BDE87040FEF7A4BC3019002050D906080F
:10D7D000134B1A6870B510689C691860A1684360A3
:10D7E0000126002082F820601D469A6184F82000FE
:10D7F0001B689A689142FBD35A68C4E900321460EE
:10D800005C60EFF30983E269643B9A4202D9054800
:10D81000FFF70EFE2146A869BDE87040FEF778BC10
:10D820003019002050D90608000000000000000058
:10D83000044B1A689B6992689B689A4200D87047AB
:10D84000FFF7C6BF301900200000000000000000F4
:10D85000044B9B6993F823300BB1FFF7B9BFFFF777
:10D8600087BF00BF3019002000000000000000004A
:10D8700070B4114C41646569816002220421028404
:10D8800080F823100022012145610461C0E90F22C4
:10D890004262826100F12C0680F8221000F1300211
:10D8A000286100F150056061C662C561C164C0E9CC
:10D8B0000C2270BC704700BF30190020000000002F
:10D8C000884203D200F8012B8142FBD1704700BF90
:10D8D000F0B4154E049D776964390144C160C1E913
:10D8E0001035124B0B66022304210384002382604F
:10D8F000426400F12C0580F823100122C0E90F33A7
:10D900004362836100F1500100F13003C0E9046714
:10D9100080F822203861C5627061C264C161C0E9CB
:10D920000C33F0BC704700BF3019002029C100083B
:10D93000F8B5064600F15005FF2400F8014B85427A
:10D94000FBD17518854206D904464FF0550C04F8F2
:10D9500001CBA542FBD172B664393144154C164F48
:10D960006569F1600B64069B4B6404230F664FF0FE
:10D97000020CB2600021726486F82330012206F1A5
:10D98000300306F12C07C6E90445A6F820C0C6E915
:10D990000F117162B16186F822202E61F061F76289
:10D9A000F264C6E90C3330466661FFF789FE62B661
:10D9B0003046F8BD3019002029C1000800000000E1
:10D9C00010B572B6074B9B695C6C9968A14201D097
:10D9D000814200D298605864FFF72AFF62B6204661
:10D9E00010BD00BF30190020000000000000000042
:10D9F00072B690F8213043F0040380F8213062B60B
:10DA0000704700BF000000000000000000000000A0
:10DA100008B5014672B60820FFF72AFE62B608BDB7
:10DA200038B50F4B9C69E36AA06204F12C05AB4248
:10DA300007D01A68E2621846FFF7DAFDE36AAB42E4
:10DA4000F7D194F821309B0704D1D4E904231A615B
:10DA5000226953610F20BDE83840FFF7E1BD00BFE8
:10DA6000301900200000000000000000000000004D
:10DA700072B6FFF7D5BF00BF000000000000000035
:10DA800038B5044672B690F820300F2B07D0074BFC
:10DA9000C26A9B6909201A60E362FFF7C1FDA56AAB
:10DAA00062B6204600F0C4F8284638BD3019002080
:10DAB00010B5054CA369036002469A620320FFF784
:10DAC000AFFDA369986A10BD301900200000000066
:10DAD000054B02469B6921B1036003209A62FFF760
:10DAE000C7BD4FF0FF307047301900200000000024
:10DAF00003682BB10022026018469962FFF778BDD7
:10DB0000704700BF0000000000000000000000009F
:10DB100069B1084B10B4024644689B690420C3E90C
:10DB20000024236053605DF8044BFFF7A1BD4FF064
:10DB3000FF30704730190020000000000000000096
:10DB4000026890420AD010B414680460034663600F
:10DB5000104691625DF8044BFFF74ABD704700BF65
:10DB600038B5036898420BD004460D461A68226007
:10DB7000184654609D62FFF73BFD23689C42F5D137
:10DB800038BD00BF000000000000000000000000E1
:10DB9000014B5B6883607047001000E000000000EC
:10DBA0000E4B0F4A5B68C168F0B48468D2F880609D
:10DBB00042681B1BD0E904459B1BE61845F1000792
:10DBC0009342026888BF436001319342C0E9046711
:10DBD000C0E9023138BF0360F0BC7047001000E0BC
:10DBE00030190020000000000000000000000000CC
:10DBF00010B50D4C86B000234FF0FF31002268466F
:10DC0000C4F88030CDE9013303930023CDE9042328
:10DC10000091FFF7BDFF6846FFF7C2FF029BC4F803
:10DC2000803006B010BD00BF301900200000000099
:10DC3000014672B690F82230013BDBB280F8223008
:10DC400062B61BB990F820300F2B00D0704790F8C7
:10DC5000213003F00303012B02D0022B07D07047C1
:10DC6000D0E904231A610269536100F091BBD0E945
:10DC700004231A610269806C536100F0F9BB00BF94
:10DC800072B6044B186990F82230013380F82230C4
:10DC900062B670473019002000000000000000004C
:10DCA00010B572B6074B04699C421DBF94F8223030
:10DCB000013384F82230002462B6FFF7B9FF204612
:10DCC00010BD00BF3019002000000000000000005F
:10DCD000C0E9000081607047000000000000000003
:10DCE00070B5856881600135002D0CDC04466FF04D
:10DCF00001066068436863601C60FFF779FC0135CA
:10DD0000012D8662F5D170BD00000000000000000A
:10DD100008B572B6FFF7E4FFFFF78AFD62B608BDEB
:10DD200072B68368013B002B836002DB002062B681
:10DD3000704710B5074C4168A26903469362C2E977
:10DD4000003105200A605A60FFF76AFCA369986AEF
:10DD500062B610BD30190020000000000000000075
:10DD600072B68268531E002B836002DB002062B60D
:10DD7000704710B569B1094A4468926903469362D5
:10DD8000C2E90034052022605A60FFF771FC62B6D8
:10DD900010BD82604FF0FF30F9E700BF301900205E
:10DDA00008B572B683680133002B836001DD62B66B
:10DDB00008BD0346006802681A6000215360FFF73F
