:020000040800F2
:100000000008002001C000086123010871230108D5
:100010008123010891230108A123010861D300086D
:1000200061D3000861D3000861D3000861D30008E0
:1000300061D3000861D3000881E4000821F90008B9
:1000400061D300083123010861D3000861D300089F
:1000500061D3000861D3000861D3000861D30008B0
:1000600061D3000861D3000861D30008C1F3000820
:10007000F1F3000821F4000851F4000881F40008AD
:10008000B1F40008E1F4000891220108E1FB000846
:1000900001FC000821FC000841FC0008B122010815
:1000A0008117010861D3000861D3000861D30008FB
:1000B00001230108D12201086117010861D300085A
:1000C00061D30008610301087104010861D30008CD
:1000D00061D30008E11A0108011B0108211B010876
:1000E00061D3000861D3000861D3000861D3000820
:1000F00061D3000861D3000861D3000811F500083E
:1001000061D3000861D3000861D3000861D30008FF
:10011000411B0108611B010861D3000861D300087D
:1001200041F5000871F50008A1F50008D1F50008B7
:1001300001F6000861D3000861D3000861FC0008E3
:1001400081FC0008A1FC0008C1FC00081112010894
:1001500031F6000861F6000891F60008811B0108DD
:1001600061D3000861D3000861D3000861D300089F
:1001700061D3000861D3000861D3000861D300088F
:1001800061D3000861D3000861D3000861D300087F
:1001900061D3000861D3000861D3000861D300086F
:1001A00061D3000861D3000861D3000861D300085F
:1001B00061D3000861D3000861D3000861D300084F
:1001C0002DE9F04F2DED068B0446F9B0014683482A
:1001D0004AF066F820468249814C67F0C9FD002646
:1001E00038AD48B1402E08D045F826002146002001
:1001F00067F0BEFD0136F4E70EB1002702E0794852
:1002000002F03BB9389CE55D65B165F099FC284486
:10021000437803F00303012B389B08BF2035DD55DD
:100220000137EFE7704BDFF82482D3F80090A9453F
:1002300011DD2B0108EB0302D76857B153F8081002
:1002400020460DF00DF820B938A93046B84702F025
:100250001BB90135EBE7654920460DF001F838BBC5
:1002600055F026F99FED628A60EE087A17EE900A43
:100270000CF0D2F802460B465E484AF011F850F0F6
:1002800057FC60EE087A17EE900A0CF0C5F80246AB
:100290000B4659484AF004F850F02AFD60EE087AFF
:1002A00017EE900A0CF0B8F802460B4653480DE0E2
:1002B000534920460CF0D4FF60B954F0B1FC10EE65
:1002C000100A0CF0A9F802464E480B4649F0E8FF28
:1002D00002F0DAB84C4920460CF0C2FF88B91FA9D9
:1002E0000EF09EF804460EF033F80146474849F0F8
:1002F000D7FF2146464849F0D3FF1F99454802F0F1
:10030000C1B8454920460CF0ABFF002849D143480D
:10031000434E9FED448A444D49F0C2FF434849F0A3
:10032000BFFF0DF0ADFC044620465EF079FDD4F829
:1003300024802A6894ED097AB36A9B1A07EE903AF2
:10034000B8EE477AF8EE677A27EE087A0746C7EEE6
:10035000277A17EE900A0CF05FF8CDE90478CDE922
:100360000601E36C0393A369029394F82020304BB9
:10037000304853F82230019394F82230013B009327
:10038000D4E90232214649F08BFF00236362204604
:100390000DF086FC04460028C6D1B36A2B6002F03B
:1003A0006BB8254920460CF05BFF38B950F030F8A7
:1003B00050F036F80146214802F064B82049204642
:1003C0000CF04EFF0546002840F0F4801D4E3368C7
:1003D000002B3DD11C4802F050B800BFDFAB06082F
:1003E00036AD0608E7AB0608202F0020FCAB060858
:1003F00000007A440EAC06082BAC060851AC060887
:1004000076AC060879AC060897AC06089BAC0608E3
:10041000B7AC0608CDAC060810C60608EAAC06085C
:10042000301800200000C8421439002038AD0608FA
:1004300090AB060886AD0608884F07083EE0060820
:10044000C6C4060810390020BDAD0608242F0020C0
:100450004FF0DEFF4FF0E4FF01469048904FDFF889
:10046000CCB2DFF8CCA249F01BFF8E4849F018FF50
:100470003368AB4242F308804FF04C0808FB05F8A4
:1004800007EB080460784FF0CBFF0146584649F06F
:1004900007FF17F80810504649F002FF60680BF09C
:1004A000BBFF02460B46804849F0FAFEA0680BF0FD
:1004B000B3FF02460B467D4849F0F2FEE0680BF0C0
:1004C000ABFF02460B467A4849F0EAFE60690BF042
:1004D000A3FF02460B46774849F0E2FEA0690BF005
:1004E0009BFF02460B46744849F0DAFEE169734807
:1004F00049F0D6FE216A724849F0D2FED4ED0B7A5B
:1005000094ED057A6F48F8EEE77A67EE877AFDEEAC
:10051000E77A17EE901A49F0C3FE616A6A4849F01B
:10052000BFFEA16A694849F0BBFEE16A684849F02C
:10053000B7FE216B674849F0B3FE606B0BF06CFFB0
:1005400002460B46644849F0ABFEE36B6BB363496C
:100550001FA866F0E5FCE16B0DF18F0066F0E0FC92
:10056000236C1BB91FA849F09BFE1EE0236C012BD6
:1005700008D1606C0BF050FF02460B461FA849F0F3
:100580008FFE12E0236C022B0FD1606CA46C0BF079
:1005900043FF8046204689460BF03EFF4246CDE9A8
:1005A00000014B461FA849F07BFE4D4849F078FEFC
:1005B00001355DE74B4920460CF052FE00285CD126
:1005C00072B6494B5A6A1492484A516A1591596A4F
:1005D00016914FF08041496A17911968C1F30011D3
:1005E00018911168C1F300111F9162B64048D3F809
:1005F0003490D3F83880DF6BDC6A566BD3F840A0B8
:10060000956B149949F04CFE15993A4849F048FE0B
:100610001799394849F044FE159A1499169B3748A2
:1006200001EB42011944022391FBF3F1611A49F0F5
:1006300037FE4946324849F033FE4146314849F0D9
:100640002FFE3946304849F02BFE21462F4849F00D
:1006500027FE18992E4849F023FE1F992D4849F08E
:100660001FFE31462C4849F01BFE51462B4849F0ED
:1006700017FE29462A4801F005BF2A4920460CF0FA
:10068000EFFD002856D150F0C3F810EE100A0BF021
:10069000C3FE02460B46244818E600BFE1AD06083B
:1006A000A4310020F3AD060852AE06086AAE060873
:1006B00082AE06089AAE0608B2AE0608CAAE0608B2
:1006C000E0AE0608F6AE06080CAF060822AF060834
:1006D00038AF06084EAF060864AF06087CAF0608C0
:1006E00036AD060890AF0608000001400004014046
:1006F00094AF0608A1AF0608AEAF0608BBAF060868
:10070000CEAF0608DEAF0608EEAF0608FEAF06085D
:1007100006B006080FB0060818B006082BB0060889
:1007200040B0060856B006085BB0060826AE0608BC
:100730003CAE0608BF4920460CF092FD002840F070
:10074000DA80042E40F0D480BB4BBC493998139317
:1007500013AA1493159366F0ABFB14AAB7493A9801
:100760009FEDB78A66F0A4FB15AAB4493B9866F0E2
:100770009FFBB44849F094FDDDED137AF5EEC07AA5
:10078000F1EE10FAF2EE048A6FDD4FF009FE9DEDF6
:10079000130AD0ED007AF4EEC07AF1EE10FA64DDBF
:1007A000DDED140AF4EEE80AF1EE10FA5DDDDFED9E
:1007B000A67AF4EEE70AF1EE10FA56D59DED151A79
:1007C000B4EEC81AF1EE10FA4FDDDFEDA07AB4EE08
:1007D000E71AF1EE10FA48D518AB1FAA17A916A808
:1007E00002F024F900283DD016980BF015FE0246C1
:1007F0000B46974849F054FD17980BF00DFE024642
:100800000B46944849F04CFD189B0BB9924802E006
:100810005F1C1CD1914849F043FD9DF98300049071
:100820009DF9820003909DF9810002909DF980005E
:1008300001909DF97F0000909DF97E309DF97D200B
:100840009DF97C10864849F02BFD01F01DBE9E1CD1
:1008500002D1844801F011BE033341F0158682486D
:1008600001F00BBE814801F008BE814849F018FD37
:10087000DDED137AF5EEC07AF1EE10FA0ADC4FF0F6
:100880008FFD00680BF0C8FD02460B46794849F021
:1008900007FD0AE04FF084FDDDED137A90ED007A5C
:1008A000B4EEE77AF1EE10FAE9DDDDED147AF4EE5C
:1008B000E87AF1EE10FA06DD9FED637AF4EEC77A7E
:1008C000F1EE10FA02D46C4849F0EAFCDDED157A3D
:1008D000F4EEC87AF1EE10FA07DD9FED5C7AF4EEE3
:1008E000C77AF1EE10FA01F1C785644801F024B827
:1008F000634801F0C2BD634920460CF0B1FCC8B9A1
:100900001FA854F0E5FD1F980BF086FD02460B462C
:100910005D4849F0C5FC20980BF07EFD02460B4671
:100920005A4849F0BDFC21980BF076FD02460B4673
:100930005748CBE4574920460CF092FC0546002866
:100940006CD1022E73D13C4B3C493998179317AAAE
:1009500066F0AEFA5DF0CCFA04464FF021FD4FF49C
:1009600033720146204665F033F94B4849F098FC54
:10097000DDED177AF5EEC07AF1EE10FA4FF00007D0
:1009800042DD94ED007AF4EEC77AF1EE10FA3BD82E
:1009900026F096FF002833D094F88E8084F88E607D
:1009A000204651F0A5FF9DED170A189716AB1FAA18
:1009B00018A901201F978DF858505AF069FA20465F
:1009C00084F88E8051F094FF18980BF025FD0246B4
:1009D0000B46324849F064FC1F980BF01DFD02469F
:1009E0000B462F4849F05CFC9DF858102D4A2E4BC1
:1009F0002E4800290CBF1146194649F051FC0BE066
:100A00002B4849F04DFC07E020680BF005FD02463D
:100A10000B46284849F044FC204643E2264920463C
:100A20000CF01EFC002840F0A180022E48D0234884
:100A300001F023BD70B00608000080BF7DB006083D
:100A40000AD7A33C80B0060800803B45CDCC4C3F84
:100A5000A1B00608BEB00608D4B0060810B106085A
:100A6000F0B006082EB106085CB106088BB1060886
:100A7000C3B10608D7B10608FCB106081DB20608C6
:100A80003FB206087BB2060883B2060899B2060890
:100A9000B7B20608D2B20608E5B20608FAB20608EE
:100AA0000AB30608D5AB0608D0AB06081AB3060889
:100AB00029B306083FB30608A9B306087AB30608A7
:100AC000B74BB8493998189318AA66F0F1F95DF058
:100AD0000FFA04464FF064FC4FF43372014620468F
:100AE00065F076F85DF004FA05464FF059FC4FF4D6
:100AF00033720146284665F06BF8AB4849F0D0FBED
:100B0000DDED187AF5EEC07AF1EE10FA25DD94ED00
:100B1000007AF4EEC77AF1EE10FA1ED8204684F877
:100B20008E6051F0E5FE00231FAA01214FF4FA6008
:100B30009DED180A1F935AF0BBFC40B91F980BF0AB
:100B40006BFC02460B46994849F0AAFBA3E1C0B2F0
:100B50004FF066FC0146964898E120680BF05CFC7B
:100B600002460B46934849F09BFB97E19249204689
:100B70000CF076FB00285CD1022E71D1884B89499C
:100B80003998169316AA66F093F98C4849F088FBB9
:100B9000DDED167AF5EEC07AF1EE10FA46DD9FED46
:100BA000887AF4EEC77AF1EE10FA3FD85DF0A0F93A
:100BB00004464FF0F5FB4FF433720146204665F0D2
:100BC00007F85DF095F905464FF0EAFB4FF43372F4
:100BD0000146284664F0FCFF204684F88E6051F000
:100BE00087FE1FAB18AA17A94FF4C8709DED160A0F
:100BF0005AF01EFDA0B91F980BF00EFC0646179880
:100C00000F460BF009FCCDE9020118980BF004FC2B
:100C10003246CDE900013B466A4849F041FB3AE1E2
:100C2000C0B24FF0FDFB014667482FE1674801F075
:100C300024BC674920460CF013FBA0B1654920464F
:100C40000CF00EFB002800F0DB80634920460CF01E
:100C500007FB0546002840F00182022E00F02681A5
:100C60005E4801F00ABC052E40F097804C4B4D4980
:100C70003998159315AA16931793189366F018F9D7
:100C800016AA48493A989FED568A66F011F917AAB4
:100C900044493B9866F00CF918AA42493C9866F022
:100CA00007F9504849F0FCFADDED157AF5EEC07A07
:100CB000F1EE10FA2BDD4FF073FB9DED150AD0ED30
:100CC000007AF4EEC07AF1EE10FA20DB9DED171AEF
:100CD000B5EEC01AF1EE10FA19DDDDED160AF4EEEC
:100CE000C80AF1EE10FA12DDDFED357AF4EEE70A0C
:100CF000F1EE10FA0BD8DDED181AF5EEC01AF1EE90
:100D000010FA04DB1FA802F043F81F9876E136487A
:100D100049F0C6FADDED157AF5EEC07AF1EE10FA7B
:100D20000ADC4FF03DFB00680BF076FB02460B46F9
:100D30002E4849F0B5FA0AE04FF032FBDDED157AA6
:100D400090ED007AB4EEE77AF1EE10FAE9DBDDED32
:100D5000167AF4EEC87AF1EE10FA06DD9FED187AF5
:100D6000F4EEC77AF1EE10FA02D9214849F098FA68
:100D7000DDED177AF5EEC07AF1EE10FA02DC1D48CF
:100D800049F08EFADDED187AF5EEC07AF1EE10FA40
:100D900081F27283184800F0CFBD184801F06DBB96
:100DA000000080BF7DB00608B5B30608CDB30608C5
:100DB000E3B306083FB3060849B4060855B406086D
:100DC0006666663F6DB40608A0B40608CDB4060892
:100DD0002EB506082FB60608DDB6060802B50608C9
:100DE0000AD7A33C3EB506086CB50608D7B106087D
:100DF00081B50608A3B50608C1B50608E5B506081D
:100E00005DF076F804464FF0CBFA4FF433720146AA
:100E1000204664F0DDFE5DF06BF805464FF0C0FA49
:100E20004FF433720146284664F0D2FE022384F860
:100E30008E30204651F05CFD794849F031FA0023AC
:100E40001FAA18A917A8179318931F935AF0C0FF49
:100E5000B8B917980BF0E0FA02460B46714849F012
:100E60001FFA18980BF0D8FA06461F980F460BF099
:100E7000D3FA3246CDE900013B466B4849F010FAFF
:100E800009E0C0B24FF0CCFA0146684849F008FAD0
:100E9000674849F005FA284651F02AFD20465DF0E2
:100EA00057F828465DF054F801F0EEBA614B6249FC
:100EB00039981F931FAA65F0FBFF604849F0F0F9CD
:100EC000DDED1F7AF5EEC07AF1EE10FA40F3A48062
:100ED0009FED5B7AF4EEC77AF1EE10FA00F29C8097
:100EE0005DF006F804464FF05BFA4FF433720146AA
:100EF000204664F06DFE5CF0FBFF07464FF050FAB1
:100F00004FF433720146384664F062FE022384F8DF
:100F10008E30204651F0ECFC12F00AF8804612F0B8
:100F20000FF8B0EE40AA12F013F8814611F0C8FF96
:100F300000219FED440A9FED448A4EF6602011F097
:100F4000A7FF07EE905AF8EEE77A87EE880ADDED04
:100F50001F7A20EE270A50F063FA4FF059FA06463E
:100F600028B9C82001350CF053FD642DE9D19FED5F
:100F7000358A4FF47A75F0EE488AB0EE489AF0EE72
:100F8000489AF7EE00AA59F0F3FE79EE809A4FF0F6
:100F900027FB39EE009A4FF0BBFB0A2038EE008A9F
:100FA0000CF036FD013D78EEAA8AECD150F070FDD0
:100FB000B7EE000A4FF084FA384651F099FC20460B
:100FC0005CF0C6FF38465CF0C3FF4946B0EE4A0A03
:100FD000404611F05DFFC8EE287A89EEA87AD4ED7C
:100FE000376AA6EEE77AC9EE287ADFED186A67EE6F
:100FF000A67AC7EE276A46B916EE900A0BF00CFAED
:1010000002460B461248FFF761B9F0B24FF008FAFA
:101010000146104800F0BABF0F4801F02EBA00BFD9
:101020003FB6060866B606087BB60608A1B60608EF
:1010300012B40608000080BF7DB00608F1B60608AD
:101040006666663F000000000000C8425077D63D4B
:1010500058B506080FB706083CB706089149204660
:101060000CF0FEF8002840F0F280062E40F0EC80F4
:101070008D4B8E493998109310AA119312931393A4
:10108000149365F015FF11AA88493A989FED888A54
:1010900065F00EFF12AA85493B9865F009FF13AA77
:1010A00082493C9865F004FF14AA80493D9865F098
:1010B000FFFE804849F0F4F8DDED107AF5EEC07AD5
:1010C000F1EE10FA71DD4FF06BF99DED100AD0EDE5
:1010D000007AF4EEC07AF1EE10FA66DB9DED121A9A
:1010E000B5EEC01AF1EE10FA4FF000035DDDDDED54
:1010F000110AF4EEC80AF1EE10FA56DDDFED6E7A51
:10110000F4EEE70AF1EE10FA4FD8DDED131AF5EE22
:10111000C01AF1EE10FA48DB9DED142AB5EEC02A94
:10112000F1EE10FA41DB0DF13F061FAD18AC15933F
:10113000169317930296019500940DF13E0317AA9A
:1011400016A915A802F02EF840BB9DF83E3013B347
:1011500033780A9328680BF05FF9CDE9080120681D
:101160000BF05AF9CDE9060117980BF055F9CDE9C6
:10117000040116980BF050F9CDE9020115980BF017
:101180004BF94E4B4E4ACDE900014E494E4849F0CD
:1011900087F801F079B94D4801F06FB9C0B24FF04E
:1011A0003FF901464A4800F0F1BE4A4849F078F854
:1011B000DDED107AF5EEC07AF1EE10FA0ADC4FF0B0
:1011C000EFF800680BF028F902460B46424849F058
:1011D00067F80AE04FF0E4F8DDED107A90ED007A60
:1011E000B4EEE77AF1EE10FAE9DBDDED117AF4EE18
:1011F000C87AF1EE10FA06DD9FED2F7AF4EEC77A89
:10120000F1EE10FA02D9354849F04AF8DDED127ACC
:10121000F5EEC07AF1EE10FA02DC314849F040F800
:10122000DDED137AF5EEC07AF1EE10FA02DA2D4810
:1012300049F036F8DDED147AF5EEC07AF1EE10FAE9
:1012400081F21A81284877E3284801F016B9284925
:1012500020460CF005F830B9264849F021F85BF03B
:101260005FFC01F009B9244920460BF0F9FF002882
:101270004AD1224849F014F801205AF091FF011E8A
:101280000DDB4FF08DF804464FF082F8851E694261
:101290006941204601F087FB194801F0EEB8194872
:1012A00001F0F0B870B70608000080BF7DB00608F6
:1012B0000AD7A33C89B706086666663FACB706083E
:1012C000CAB70608EAB706080AB8060868B80608E2
:1012D00087B806086CB50608D7B1060881B50608B8
:1012E000B6B80608C1B50608DEB8060802B9060891
:1012F00060B906086AB9060875B9060880B9060813
:10130000A4B90608ABB90608A34920460BF0A8FF0C
:10131000002840F0D78006221146A04848F0C0FFC0
:101320009F49A04848F0BCFF9F48A04BA04AA14954
:1013300000781B781278097808909F480078079009
:101340009E48007806909E48007805909D48007859
:1013500004909D48007803909C48007802909C4837
:10136000007801909B48007800909B4848F098FFD7
:101370009A4B9B4A19789B4B9B4800290CBF1146FE
:10138000194648F08DFF994848F08AFF4FF0E0FF7A
:101390000B460246964848F083FF964B96481A69DA
:1013A0005B6948F07DFF4EF0F3FF821E53425341CC
:1013B00015A916AA14A859F02BFA14980BF02CF8BA
:1013C000044616980D460BF027F8CDE90201159852
:1013D0000BF022F82246CDE900012B46874848F061
:1013E0005FFF4EF0D5FF811E4B424B411FAA18A94B
:1013F00017A859F03DFA17980BF00EF804461F98FD
:101400000D460BF009F8CDE9020118980BF004F82D
:101410002246CDE900012B46794848F041FF4EF0C5
:10142000B7FF0238434243411FAA18A917A859F031
:1014300037FA17980AF0F0FF04461F980D460AF095
:10144000EBFFCDE9020118980AF0E6FF22462B4691
:10145000CDE900016B4848F023FF4BF0A9F80146A5
:10146000694848F01DFF4BF093F90146674848F082
:1014700017FF45A3D3E90023654848F011FF44A3B3
:10148000D3E90023634848F00BFF0022624B634816
:1014900048F006FF5CF0D4FD04465CF0C1FD214637
:1014A000024609235E4848F0FBFE5CF0E1FD04467D
:1014B0005CF0BEFD0223024621465A4848F0F0FE89
:1014C00000F0DABF584920460BF0CAFE002840F071
:1014D000B980032E52D1554B55493998189318AA03
:1014E0001F9365F0E5FC1FAA51493A9865F0E0FCAE
:1014F000504848F0D5FEDDED187AF5EEC07AF1EEF1
:1015000010FA1ADD4EF04CFFDDED187A90ED007AFE
:10151000B4EEE77AF1EE10FA0FDBDDED1F7AF5EEAF
:10152000C07AF1EE10FA08DB11F0CAFCDDED1F0AFB
:101530009DED180A50F0B4F9B9E03F4848F0B0FE0C
:10154000DDED187AF5EEC07AF1EE10FA0ADC4EF015
:1015500027FF00680AF060FF02460B46374848F054
:101560009FFEBEE04EF01CFFDDED187A90ED007A94
:10157000B4EEE77AF1EE10FAE9DBB2E0304800F0C1
:101580007CBF00BFAFF3008000000000003071405E
:101590000000002033535A40BEB90608C8B90608F7
:1015A00076D50608D8B906081B7AFF1F127AFF1FE6
:1015B000117AFF1F107AFF1F1A7AFF1F197AFF1F77
:1015C000187AFF1F177AFF1F167AFF1F157AFF1F61
:1015D000147AFF1F137AFF1FE5B906083C45002067
:1015E0004DBA0608DBAB060827BA06083FBA06085C
:1015F00050BA06080000001062BA060874BA06085D
:1016000098BA0608BCBA0608E9BA0608FFBA06087E
:1016100016BB060838BB060800408F405ABB0608B8
:101620006DBB060899BB0608C6BB0608000080BF54
:101630007DB00608D3BB06086CB50608D7B106080E
:101640000DBC0608C04920460BF00AFE002855D103
:10165000032E50D1BD4BBE493998189318AA1F9339
:1016600065F026FC1FAABA493A9865F021FCB948F2
:1016700048F016FEDDED187AF5EEC07AF1EE10FABC
:101680001BDB9FEDB57AF4EEC77AF1EE10FA14D8B1
:10169000DDED1F7AF5EEC07AF1EE10FA0DDB11F0F8
:1016A0000FFCDDED1F0A9DED180A50F079F94EF0A0
:1016B000AFFE002800F0E88601E1A84848F0F0FD00
:1016C000DDED187AF5EEC07AF1EE10FA06DB9FED4B
:1016D000A27AF4EEC77AF1EE10FA02D9A04848F0E7
:1016E000DFFDDDED1F7AF5EEC07AF1EE10FA80F243
:1016F000C3869C4820E19C4800F0BFBE9B49204621
:101700000BF0AEFD08BB022E1CD14FF0FF331FAA19
:10171000974939981F9365F0CBFB964848F0C0FD78
:101720001F9B002B0BDB382218A831468DF8602058
:101730008DF8613048F07CFD8F4800F09EBE8F48E8
:1017400000F09BBE8E4800F098BE8E4920460BF0FC
:1017500087FD002837D1022E7FF469A97B4B7C4995
:101760003998189318AA65F0A3FB874848F098FDAC
:10177000DDED187AF5EEC07AF1EE10FA40F38584CB
:101780004EF00EFE9DED180AD0ED007AF4EEC07A10
:10179000F1EE10FAC0F2798401211FAA084602F086
:1017A00056F850B91F99002900F04182012900F034
:1017B0004582022940F04D8247E2C0B24EF030FE31
:1017C00001467248E2E3724920460BF049FD0028C9
:1017D00040F0F680042E40F0B3805C4B5C493998B1
:1017E000179317AA18931F9365F062FB18AA58491C
:1017F0003A9865F05DFB1FAA55493B9865F058FB88
:10180000644848F04DFD9DED178A4EF0C9FDD0EDBE
:10181000007AB0EEC88AB4EEE78AF1EE10FA61D829
:10182000DDED1F7AF5EEC07AF1EE10FA5ADB9FED8E
:101830005A7AF4EEC77AF1EE10FA53D89DED187A81
:10184000DFED567AB4EEE77AF1EE10FA3CD811F0FB
:1018500037FBDDED1F0A9DED170A50F061F84EF0E1
:10186000D7FD002800F0AA8429E0142001340CF0F0
:10187000CFF8C72C0DDDDDED187A77EEC87A344647
:1018800017EE900A0AF0C8FD02460B46284648F0BB
:1018900007FD38EE288ADDED187AF4EEC87AF1EE0D
:1018A00010FA18DD11F00CFBDDED1F0A9DED170A93
:1018B00050F036F84EF0ACFD06460028D5D04EF07C
:1018C000AFFD0146364861E300249FED368A364D70
:1018D000DFED368ADFE79FED330A4FF0E1FE344853
:1018E00000F0CBBD1D4848F0DBFC9DED178A4EF0A3
:1018F00057FDD0ED007AB0EEC88AB4EEE78AF1EE7B
:1019000010FA09D94EF04CFD00680AF085FD024638
:101910000B46284848F0C4FCDDED1F7AF5EEC07A8E
:10192000F1EE10FA07DB9FED1C7AF4EEC77AF1EEC8
:1019300010FA40F2A185204848F0B2FC00F09CBDAE
:101940001E4800F09ABD00BF42BC0608000080BFE0
:101950007DB0060854BC06086666663F6CB506088E
:1019600071BC0608A3B5060892BC0608C4BC0608EC
:10197000DDAE0608D8BC0608FCBC060803BD060898
:101980002CBD06085BBD060874BD060812BE06081D
:101990003CBE060850BE06080000B443BD3786357D
:1019A000EBBB06080000000073BE06086F12033B85
:1019B00082BE060888BE0608A7BE0608CBBE06087B
:1019C000BF4920460BF04CFC002840F0AC80022EB2
:1019D00040F0B280BB4BBC4939981F931FAA65F0F9
:1019E00067FABA4848F05CFCDDED1F7AF5EEC07A84
:1019F000F1EE10FA40F348814EF0CAFC01219DED52
:101A00001F0A0646084610F06BFD01460546B04821
:101A100048F046FC01204EF0B3FC002D65DBAD48DC
:101A20009FEDAD8A48F03CFC4EF0BAFC04460068DD
:101A30000AF0F2FC02460B46A84848F031FCD4ED0F
:101A4000377A67EE887A17EE900A0AF0E5FC0246CC
:101A50000B46A34848F024FC94ED357ADFEDA17ADB
:101A600067EE277A17EE900A0AF0D6FC02460B467C
:101A70009D4848F015FCD4ED387A67EE887A17EE69
:101A8000900A0AF0C9FC02460B46984848F008FC48
:101A9000974B94F85011974A974800290CBF11466C
:101AA000194648F0FDFB94F8503143B1D4F8540185
:101AB0000AF0B2FC02460B46904848F0F1FB94F85D
:101AC00030310BB98E4827E094F83031022B01D128
:101AD0008C4821E094F83031012B01D18A481BE079
:101AE00029468A4848F0DCFB18E015F10A0F01D1BD
:101AF00087480EE015F10B0F01D1864809E005F18A
:101B00006400C0B24EF08CFC0146834848F0C8FB2C
:101B1000824848F0C5FB824848F0C2FB30464EF090
:101B20002FFC00F0B1BC7F4920460BF099FB002848
:101B300040F0AC80022E02D07B4800F09EBC614B8E
:101B4000614939981F931FAA65F0B2F95F4848F0C0
:101B5000A7FB9DED1F0AB5EEC00AF1EE10FA40F3A7
:101B600093809FED722A0021F0EE421AB0EE421AE5
:101B7000F0EE420A012010F043FF054601466C4892
:101B800048F08EFB002D67DB52489FED538A48F0EA
:101B900087FB4EF005FC044600680AF03DFC024657
:101BA0000B464E4848F07CFBD4ED377A67EE887AD6
:101BB00017EE900A0AF030FC02460B46484848F0FF
:101BC0006FFB94ED357ADFED477A67EE277A17EEF3
:101BD000900A0AF021FC02460B46564848F060FB8A
:101BE000D4ED387A67EE887A17EE900A0AF014FC82
:101BF00002460B463D4848F053FB3D4B94F85011CC
:101C00003C4A3D4800290CBF1146194648F048FBA4
:101C100094F8503143B1D4F854010AF0FDFB024668
:101C20000B46364848F03CFB94F8303113B9344841
:101C300000F023BC94F83031022B02D1314800F07F
:101C40001CBC94F83031012B02D12F4800F015BC98
:101C500029462E4800F016BC15F10A0F01D12C4878
:101C60000EE015F10B0F01D12A4809E005F16400DF
:101C7000C0B24EF0D5FB0146274848F011FB27487B
:101C800048F00EFB2648F8E32B48F6E32B492046A4
:101C90000BF0E6FA002857D1294B986A0AF09AFB14
:101CA00005A3D3E900230AF03DFD02460B46254873
:101CB000FEF70CBBAFF30080000000000088C340BB
:101CC00008BF0608000080BF7DB006081DBF0608DB
:101CD00032BF06083DBF060800007A4466BF06080A
:101CE00083BF060800247449A3BF0608C1BF0608C5
:101CF000D0AB0608D5AB0608E0BF0608F9BF06085A
:101D000091BD0608BBBD0608DCBD0608FDBD060882
:101D100019C0060839C0060865C0060812B40608CE
:101D20008FC0060811C10608DBC0060800000000CD
:101D30002AC1060832C10608A2C0060854C1060816
:101D4000301800205BC10608D54920460BF088FA00
:101D50000746002840F0DC81022E7EF468AED14BAD
:101D6000D1493998179317AA65F0A2F8CF4848F0DF
:101D700097FADDED177AF5EEC07AF1EE10FA40F33E
:101D800084814EF00DFBDDED177A90ED007AB4EE14
:101D9000E77AF1EE10FAC0F278814EF021FB5CF0A8
:101DA000A7F805464EF0FCFA4FF433720146284678
:101DB00063F00EFF95F88E3085F88E6028460D93FF
:101DC00050F096FDBA49BB48DFEDBB8A9FEDBB8A58
:101DD0004AF0F6FABA484AF023FBBA484AF020FB28
:101DE000B9484AF01DFBB9484AF01AFB11F068F8EF
:101DF0004EF006FB07EE107ADDED177AB8EEC70A53
:101E0000F0EE480A20EE270A80EE280A4FF088FDFF
:101E10004EF0FEFA044630B90A2001370BF0F8FD07
:101E2000B7F57A7FE2D14EF0B3FA831ED3F1000BFF
:101E30004BEB030BD5F8741258465CF0A9FF1C223B
:101E40000021824618A863F0F3FEDFF8C0C2BCE8A8
:101E50000F001FAF3E460FC69CE80F0086E80F003C
:101E6000002C7AD19FED958ADFED999A9FED999A92
:101E7000DFED998AA0464FF43479D5F874125846AC
:101E80005CF086FF5045064616D0B8F1060F06DC1A
:101E900018AB03EB880383ED008A08F101080023E7
:101EA00057F82320B24201D0013202D147F8236013
:101EB00002E00133082BF3D100204AF0D1FA06F0FA
:101EC000010300EE903AF8EEE00AB0EE480A60EE48
:101ED000A90A4AF0D5FA01204AF0C2FAC6F3400333
:101EE00000EE903AF8EEE00AB0EE480A60EE890A99
:101EF0004AF0C6FA02204AF0B3FAC6F3800300EEB5
:101F0000903AF8EEE00AB0EE480A60EEA80A4AF00D
:101F1000B7FA03204AF0A4FA07EE906AB0EE480A36
:101F2000F8EEE70A4AF0ACFAF7EE007A38EE278AC4
:101F300010F0C6FF4EF064FAF0EE480A9DED170A65
:101F40004FF0EEFC4EF064FA044630B9C8200BF0B6
:101F50005FFDB9F10109B2468FD14EF051FA4FF051
:101F600097FDB7EE000A4EF0ABFA0D9B85F88E3068
:101F7000284650F0BDFC28465BF0EAFF4EF038FAE8
:101F800044B1E0B24EF04CFA0146544848F088F9AA
:101F9000534872E22346214657F823200133013289
:101FA00018BF0131082BF7D1062903D14D4848F05D
:101FB00077F902E04C4848F073F99FED408A9FEDB5
:101FC0004B9A4B4E18AD95ED000A0435D5ED000A3D
:101FD0005CF0BEF8F0EEC08A18EE900A0AF01CFA27
:101FE000013402460B463046214648F059F9F4EEDA
:101FF000498AF1EE10FAF4EE488A48BFB0EE689ACA
:10200000F1EE10FAC8BFB0EE688A062CDBD138EECC
:10201000498AF6EE007A68EE277AB1EE047AF4EE99
:10202000C77AF1EE10FA07D517EE900A0AF0F4F924
:1020300002460B462F4824E0B2EE047AB4EEC78A7B
:10204000F1EE10FA07D517EE900A0AF0E5F902460C
:102050000B46294815E0B2EE0E7AB4EEC78AF1EECF
:1020600010FA07D517EE900A0AF0D6F902460B4689
:10207000224806E018EE100A0AF0CEF9024620487F
:102080000B4648F00DF91F48F7E14EF089F900685A
:102090000AF0C2F902460B461B48FEF717B900BF0B
:1020A0006BC10608000080BF7DB0060878C1060835
:1020B0009AC10608ACC1060800007A44000000007E
:1020C000B2C10608B9C10608C0C10608C7C10608E2
:1020D0005C8F823FB81E853F14AE873FD0C1060893
:1020E00012B40608FFC106082EC2060800006144AB
:1020F0006CC2060887C20608C1C2060808C30608E3
:1021000056C30608D2C306083FB30608D0A7060880
:10211000394920460BF0A4F80546E8B94EF040F9DD
:102120002946B0F8C842284651F09AF9074615F0FA
:10213000EFFCB0F86C61284615F0D2FDA4B205465C
:102140003A4621462D4848F0ABF82A4631462C48FD
:1021500048F0A6F82B4890E12B4920460BF080F878
:10216000002800F09181294920460BF079F848BBFE
:10217000032E40F08981264B1F9018AA25493998D3
:10218000189364F095FE1FAA23493A9864F090FED4
:102190009DED180ADFED217AB4EEE70AF1EE10FAB0
:1021A0000EDDDFED1F7AB4EEE70AF1EE10FA07D587
:1021B0001F98003018BF012050F0EAFB19485CE17D
:1021C00019485AE1194920460BF04AF860B91849F4
:1021D000184848F065F81849184848F061F8184957
:1021E000184848F05DF847E1174920460BF038F8E9
:1021F00060BB72B600BFFDE714C4060818C4060829
:1022000045C4060873C40608BCC40608CDC4060845
:102210000000FAC37DB00608DDAE06080000B4C3B6
:102220000000B4436FBE0608E3C40608F6C40608FF
:10223000FEC4060811C5060820C5060849C50608DB
:1022400058C506085EC506086DC5060891492046B2
:102250000BF006F80546002840F012818E488F4C9E
:10226000DFF880838E4F8F4E48F01AF8894848F087
:1022700017F88D4848F014F88C4848F011F88C484D
:1022800048F00EF88B4848F00BF88B4848F008F8F7
:102290008A4848F005F88A4848F002F8894847F02B
:1022A000FFFF894847F0FCFF884847F0F9FF88485E
:1022B00047F0F6FF874847F0F3FF874847F0F0FF05
:1022C000864847F0EDFF864847F0EAFF854847F02B
:1022D000E7FF854847F0E4FF844847F0E1FF844882
:1022E00047F0DEFF834847F0DBFF834847F0D8FF25
:1022F000824847F0D5FF824847F0D2FF814847F037
:10230000CFFF814847F0CCFF804847F0C9FF8048A5
:1023100047F0C6FF7F4847F0C3FF7F4847F0C0FF44
:102320007E4847F0BDFF7E4847F0BAFF7D4847F042
:10233000B7FF7D4847F0B4FF7C4847F0B1FF7C48C9
:1023400047F0AEFF7B4847F0ABFF7B4847F0A8FF64
:102350007A4847F0A5FF7A4847F0A2FF794847F04E
:102360009FFF714847F09CFF774847F099FF7748F7
:1023700047F096FF764847F093FF764847F090FF86
:10238000754847F08DFF754847F08AFF744847F05D
:1023900087FF744847F084FF734847F081FF734814
:1023A00047F07EFF724847F07BFF724847F078FFA6
:1023B000714847F075FF714847F072FF704847F069
:1023C0006FFF704847F06CFF6F4847F069FF6F4838
:1023D00047F066FF6E4847F063FF6E4847F060FFC6
:1023E0006D4847F05DFF6D4847F05AFF6C4847F075
:1023F00057FF6C4847F054FF6B4847F051FF6B485C
:1024000047F04EFF6A4847F04BFF6A4847F048FFE5
:10241000694847F045FF694847F042FF684847F080
:102420003FFF684847F03CFF674847F039FF67487F
:1024300047F036FF664847F033FF664847F030FF05
:10244000D8F80030AB4217DDE36893B1A268216889
:102450001AB1614847F024FF02E0084647F020FF28
:10246000616819B1304647F01BFF02E0384647F07B
:1024700017FF01351034E3E7584847F011FF03E038
:102480005748214647F00CFF79B0BDEC068BBDE8FC
:10249000F08F00BF97C5060877C50608242F0020D7
:1024A000F5CF0608A8DE06088BC50608FCAB0608B3
:1024B0009CC5060876AC0608C9C5060897AC060890
:1024C000F1C5060810C6060805C60608884F0708A5
:1024D00018C60608C6C4060838C6060890AF06081F
:1024E00079C6060856B0060899C60608B5C6060895
:1024F000E1C6060824C706085FC706087BB20608BF
:1025000084C70608A1C70608BEC70608FFC7060895
:1025100015C8060852C8060865C80608B9C80608DE
:10252000F1C8060831C906085BC906082FB60608B7
:1025300090C90608E6C9060801CA060838CA06088E
:1025400089CA0608C6CA060860B9060803CB060889
:1025500075B9060825CB0608BEB9060851CB060892
:102560007BCB060899CB0608C8CB0608E8CB060843
:1025700017CC060835CC06085CCC06087FCC0608CC
:10258000C2CC0608F7CC060842CD060869CD06087D
:1025900091CD0608E7CD060813CE06086ECE0608D4
:1025A00054C10608A7CE0608D9CE0608F0CE060804
:1025B00014C4060826CF0608BCC406083ACF06088D
:1025C00064CF06088ECF0608F6C40608ACCF06080E
:1025D0006DC50608CCCF0608EFCF060836AD060855
:1025E00024D00608202F002000000000000000007A
:1025F00037B502EB410294B2054601A920465CF0D2
:10260000CFFE08B100200FE0601C0DF1060180B282
:102610005CF0C6FE0028F5D1BDF80420BDF80630F8
:1026200043EA02432B60012003B030BD70B505685A
:1026300041F288300E4614464EF092FE4EF098FE5F
:10264000B0EE080A4EF09CFE30B304EB46045CF09A
:102650007FFBA4B210F09CFC5FF0A2FBF2205FF0C5
:10266000B7FB290C20465CF08BFF092809D1601CC0
:10267000A9B280B25CF084FFA0F109035C425C4126
:1026800000E000245FF09CFB10F0B2FC64204EF0F0
:1026900067FE5CF06DFB00E00124204670BDF8B5DC
:1026A00041F288304EF05CFE4EF062FEB0EE080A59
:1026B0004EF066FE48B305465CF04AFB10F068FC3D
:1026C0005FF06EFBF2205FF083FB114E002441F2BD
:1026D000707706EB440316F814105B78381943EA58
:1026E000012180B25CF04CFF092803D101344E2C4B
:1026F000EFD100E000255FF063FB10F079FC64206F
:102700004EF02EFE5CF034FB00E001252846F8BDBB
:102710000000001070B540F624420021A8B03F48E8
:1027200063F086FA3D4900230A4603F57A7021F8E2
:1027300013000133B3F5B37FF7D140F21E2103F24A
:102740006A6022F8130001338B42F8D140F25E2117
:1027500003F69A1022F8130001338B42F8D140F2AD
:102760005E4103F6425022F8130001338B42F8D148
:102770002B4A41F2707341F2BE7122F8023F0133DD
:102780009BB28B42F9D15FF00BFBF2205FF020FB94
:102790005CF02EFE5FF014FB002441F2707601AD78
:1027A00030190DF1020180B25CF0FAFD58B9BDF8A4
:1027B00002301A0A05F8142005EB440201344E2CAD
:1027C0005370EDD11CE09C220021284663F030FAC2
:1027D000144B154A1968914203D158689968CDE99C
:1027E0000201D968914203D118695969CDE90501FF
:1027F0009B69934204D180220C4908A863F0E8F950
:10280000094B084801939C2229460493079363F0DF
:10281000DFF9FFF744FF28B070BD00BF1839002072
:10282000D2410020000000101E6B89051C00001022
:102830001F2902D840F6B832DAE600207047FF2997
:1028400002D84FF47A62D3E6002070471F2902D8DD
:1028500040F6B832EAE600207047FF2902D84FF46C
:102860007A62E3E60020704770B5054694B0002414
:1028700004F5FA600DF1020180B25CF091FD60B9DF
:10288000BDF802301A0A05F8142005EB44020134A1
:10289000B82C5370ECD1012400E000242846B5F890
:1028A0006C6115F01DFA864206D0172301A88DF839
:1028B00005300FF07DFD00E014B9284613F060F9F3
:1028C00014B070BD70B5054641F288304EF048FD39
:1028D0004EF04EFDB0EE080A4EF052FD064650B3E3
:1028E0005CF036FA10F054FB284615F0F9F9A5F81B
:1028F0006C015FF055FAF2205FF06AFA002405EBF4
:10290000440315F814105B7804F5FA6043EA0121DA
:1029100080B25CF035FE092803D10134B82CEED129
:1029200000E000265FF04CFA10F062FB64204EF0ED
:1029300017FD5CF01DFA304670BDF0B541F28836E7
:1029400095B005460F46002908BF4FF47A7600245B
:1029500030190DF1020180B25CF022FD68B9BDF8BA
:1029600002301A0A05F8142005EB44020134B4F5CC
:10297000B37F5370ECD1012400E00024394628468F
:10298000B5F8C86250F06CFD864206D0182301A845
:102990008DF805300FF00CFD00E014B9284612F058
:1029A0004FFE15B0F0BDF8B5054641F288300C4633
:1029B0004EF0D6FC4EF0DCFCB0EE080A4EF0E0FC27
:1029C000064688B35CF0C4F910F0E2FA002C214608
:1029D000284641F2883708BF4FF47A7750F040FD1F
:1029E000A5F8C8025FF0DCF9F2205FF0F1F90024ED
:1029F00005EB440315F814105B78381943EA0121FC
:102A000080B25CF0BDFD092804D10134B4F5B37F78
:102A1000EED100E000265FF0D3F910F0E9FA64206F
:102A20004EF09EFC5CF0A4F93046F8BD2DE9F04F65
:102A30002DED088B85B0B0EE609AF0EE409AF0EE86
:102A400041AA0393CDE9011282465BF051FA044694
:102A50005BF04EFA06464DF0A3FC4FF4337201468C
:102A6000204663F0B5F84FF433722146304663F0E8
:102A7000AFF8C14AC4F8A820C04AC4F89C2000237B
:102A8000BF4A84F88E30F7EE008A84F88F3084F8DD
:102A90008D30C4ED288A84ED249AC4F8942084F8FB
:102AA000553220464FF024FF4FF4FA754DF0B0FC3C
:102AB00020B164200AF0ACFF013DF7D142F2107062
:102AC0000AF0A6FF10F034FA804610F039FAB0EEA2
:102AD00040AA10F03DFA814610F0F2F900219FED76
:102AE000A90A4EF6602010F0D3F94DF079FC4DF0B4
:102AF00087FCB0EE690A4EF0D3FD0025B5EE008AE2
:102B0000012D0FD14DF07CFC4EF0C2FFB7EE000A54
:102B10004DF0D6FC79EE097A9B4BC4ED247AC4F8CB
:102B20009C3012E0022D1FD14DF06AFC4EF0B0FF38
:102B3000B7EE000A4DF0C4FCF1EE007A69EE277A98
:102B40000123C4ED247A84F88D304DF059FC2046E1
:102B50004FF0CEFE42F210700AF05AFF4DF050FCDA
:102B6000B0EE690A4EF09CFD4FF0000B5F46B6EEEA
:102B700000BA4DF0F5FCB4EECB0AF1EE10FA20D518
:102B80000A200AF045FF4DF0EBFCB4EEC80AF1EE66
:102B900010FA07F1010707DBBBF1000F40F0E280FC
:102BA000012052F0ADFCDDE0B7F5FA6FE1DDBBF1DD
:102BB000000F0BD041F288339F420DD04FF0010B34
:102BC000D7E7BBF1000F1ED14FF0010B0135032DEC
:102BD00096D1BBF1000F16D19FED6A0A4EF060FD51
:102BE0004946B0EE4A0A404610F052F930464FF0DE
:102BF0007FFE4DF0FDFB20465BF0AAF930465BF00E
:102C0000A7F90020B3E052F083FC4DF0F9FBB6EEDB
:102C1000000A4EF005FC4FF47A600AF0F9FE4DF020
:102C2000EFFB9FED580A4EF03BFD00204DF058FEA3
:102C30004FF4FA65074600204DF052FEC01B0228F3
:102C400006DC0A200AF0E4FE013DF4D1012500E093
:102C5000022552F01DFC00204DF042FE40F6B83730
:102C6000834600204DF03CFEA0EB0B00312805DC34
:102C70000A200AF0CDFE013FF3D100E001350298B1
:102C800052F04EFC039B186052F002FC41F2883770
:102C90008AED000A4DF064FCB4EEEA0AF1EE10FA97
:102CA00005DD0A200AF0B4FE013FF3D100E0013552
:102CB0004DF0A6FBB0EE6A0A4EF0B2FB52F0E8FB14
:102CC00000204DF00DFE9FED2F8A834640F6B83769
:102CD000F0EE489A00204DF003FEA0EB0B006328B5
:102CE0000BDC4DF07DFC0A2079EE809A0AF090FE14
:102CF000013F38EE288AEDD100E0013552F0C8FBE3
:102D0000B0EE409A4DF07CFB4EF0C2FEB7EE000AEA
:102D10004DF0D6FB1D4BDAED007ADB8A39EE679A6F
:102D200007EE903AF8EE677AC9EE888A019B304642
:102D300089EE277A68EE878AC3ED008A4FF0D8FDC6
:102D40004946B0EE4A0A404610F0A2F84DF050FB5A
:102D500020465BF0FDF830465BF0FAF86B1F5842F6
:102D6000584104E0B7F5FA6F3FF724AF26E705B006
:102D7000BDEC088BBDE8F08F000096430000484290
:102D800000808944000000000000A041C83E0120EE
:102D90002DE9F04F2DED0A8B83B0B0EE419AB0EEE5
:102DA000408AB0EE60AAF0EE619A01905BF0A0F864
:102DB00004465BF09DF806464DF0F2FA4FF433728C
:102DC0000146204662F004FF4FF43372214630463C
:102DD00062F0FEFE002384F88E3084F88F3084F891
:102DE0008D30A34BC4F85C32A24BC4F8A830A24B80
:102DF000C4F89C30F7EE008AA04BC4ED288A84ED1D
:102E0000249AC4F8943020464FF072FD4FF4FA75BE
:102E10004DF0FEFA20B164200AF0FAFD013DF7D131
:102E20004DF0F6FA054618B130464FF061FDAAE0C4
:102E300042F210700AF0ECFD10F07AF8804610F0C3
:102E40007FF8F0EE40BA10F083F8814610F038F8C1
:102E500029469FED8B0ADFED8BAA4EF6602010F01D
:102E600017F84DF0BDFA4DF0CBFAB0EE480A4EF02F
:102E700017FC4FF0010B012D0AD14DF0C1FA4EF0B5
:102E800007FEB7EE000A4DF01BFBC4ED27AA23E0B6
:102E9000022D0FD14DF0B4FA4EF0FAFDB7EE000A54
:102EA0004DF00EFB79EE097A774BC4ED247AC4F825
:102EB0009C3011E0032D1ED14DF0A2FA4EF0E8FD3A
:102EC000B7EE000A4DF0FCFAF1EE007A69EE277ACF
:102ED00084F88DB0C4ED247A4DF092FA20464FF07C
:102EE00007FD42F210700AF093FD4DF089FAB0EE42
:102EF000480A4EF0D5FB4FF0000A5746B6EE00BA2E
:102F00004DF02EFBB4EECA0AF1EE10FA21D50A20DC
:102F10000AF07EFD4DF024FB6AEE0B7A0137B4EE29
:102F2000E70AF1EE10FA07DBBAF1000F40F09680E5
:102F3000012052F0E5FA91E0B7F5FA6FE0DDBAF161
:102F4000000F0BD041F288339F420DD04FF0010AA1
:102F5000D6E7BAF1000F1ED14FF0010A0135042D5A
:102F600089D1BAF1000F16D19FED450A4EF098FBBA
:102F70004946B0EE6B0A40460FF08AFF20464FF0FC
:102F8000B7FC4DF035FA20465AF0E2FF30465AF0D1
:102F9000DFFF002067E04DF033FAB0EE4A0A9FED04
:102FA000388A3A4FDFED3ACA9FED3ACA4EF038FA06
:102FB0004FF4FA65B0EE48AAB0EE489AF0EE48AA8F
:102FC000FB8A9FED35BA07EE903AF8EE677A67EE26
:102FD000AC7AA7EE8CBA4DF0C3FAEBEE00AA4DF036
:102FE000FFFA39EE009A4DF063FB0A203AEE00AA90
:102FF0000AF00EFD013D38EE288AE1D14946B0EED7
:103000006B0A40460FF044FF30464FF071FC4DF024
:10301000EFF99FED1B0A4EF043FBCAEE087A019BC5
:1030200020468AEE887A69EEE79AF0EE007AA9EEF9
:10303000A77AC9EE087ADFED196A67EEA67ADFEDA6
:10304000186A67EEA67AC7EE276AC3ED006A5AF0DF
:103050007FFF30465AF07CFF012004E0B7F5FA6F9D
:103060003FF770AF72E703B0BDEC0A8BBDE8F08F9D
:1030700000401C46000096430000484200808944FE
:103080000000000000007A430000A041C83E01207B
:103090006740533AD145FF41C3F5A8BE5077D63DAE
:1030A000D7B3DD3FDFED377AC0EEA70AB7EE007A7F
:1030B000C7EE207A9FED347A67EE877A9FED337AF8
:1030C00027EE877AB4EEC07AF1EE10FA0ADB80EED2
:1030D000277A82B0FCEEC77ACDED017A9DF8040024
:1030E00002B070479FED2A7A27EE877AB4EEC07A55
:1030F000F1EE10FA0EDB37EEA77AC0EE077A9FEDFD
:10310000257A77EEC77AFCEEE77A17EE900A60F040
:103110007F0018E09FED207A27EE877AB4EEC07A20
:10312000F1EE10FA11DBB2EE007A27EE877AC0EEEC
:10313000077A9FED1A7A77EEC77AFCEEE77A17EEF8
:10314000900A60F03F00C0B270479FED157A27EEFD
:10315000877AB4EEC07AF1EE10FA10DBB3EE007AA3
:1031600027EE877AC0EE077A9FED0C7A77EEC77A62
:10317000FCEEE77A17EE900A60F01F00E3E7FF200D
:10318000704700BF0024744900007A440000FE42EA
:1031900000007E43000080420000FC43000000422B
:1031A00000007C442DE9F04F2DED108B89B0B0EE7E
:1031B00040BA01930392019A00231370229BF0EE10
:1031C00060AAF0EE41BAB0EE61AAF0EE429A07466C
:1031D0008A4613B1229AAF4B1360239B13B1239AF3
:1031E000AC4B1360249B13B1249A002313704DF051
:1031F000D7F8D0ED887AF0EECB8AF4EEE78AF1EEDC
:1032000010FA11D8B5EEC0AAF1EE10FA03D84DF0BD
:10321000C7F890ED37AAF5EEC09AF1EE10FA03D890
:103220004DF0BEF8D0ED359AB5EEC0AAF1EE10FA29
:1032300040F20683F5EEC09AF1EE10FA40F20083F8
:10324000DFED957A29EEA79A2AEE278A5AF050FEEA
:1032500005465AF04DFE06464DF0A2F84FF4337283
:103260000146284662F0B4FC4FF4337229463046DA
:1032700062F0AEFCD5ED197A9FED887A85ED2E9A35
:1032800067EE877A0223F4EE6A7A85F88E3000239F
:10329000F1EE10FA85F8303185ED2F8A85F85C3132
:1032A000284648BFF0EE67AA4FF022FB4FF4FA74AD
:1032B0004DF0AEF820B164200AF0AAFB013CF7D132
:1032C0004DF0A6F8044600287FD142F210700AF0B3
:1032D0009FFB0FF02DFE80460FF032FEB0EE409ABD
:1032E0000FF036FE9FED758A81460FF0E9FD21460D
:1032F000B0EE480A4EF660200FF0CAFD4DF070F8AF
:10330000D5ED887AF4EEE78AF1EE10FA40F36881A1
:10331000DFED638A4DF074F807EE904AB8EEE70AE5
:10332000F0EE480A20EE0B0A80EE280A4EF0B8FABA
:103330004DF06EF8C8B14946B0EE490A83464046A2
:103340000FF0A6FD4DF054F84EF0A2FBB7EE000AC8
:103350004DF0B6F830464FF0CBFA28465AF0F8FD5B
:1033600030465AF0F5FD5C466BE20A2001340AF063
:103370004FFBC82CCED19FED518AB7EE00CA4FF457
:103380007A7BF0EE488AF0EE4CCA4DF0E9F80A205C
:10339000B0EEC00A78EE808A0AF03AFBBBF1010B6E
:1033A00038EE0C8AF1D14DF033F80446B8B1B0EEE6
:1033B000490A494640460FF06BFD4DF019F84EF0B2
:1033C00067FBB7EE000A4DF07BF830464FF090FAFD
:1033D00028465AF0BDFD30465AF0BAFD31E2C8EE3B
:1033E00088DA9FED368A9FED2FEA9FED2FDA9FED69
:1033F0002FCAF0EE488A4DF0B3F8B0EEC00AB4EE32
:10340000EA0AF1EE10FA72D5CBEE8E7A78EEA78A40
:103410004CF0F6FF95F8553213B1F1EE680A01E071
:10342000F0EE680AB0EE4B0A4EF03AFA4CF0F0FFBC
:1034300008B10346E9E10A200AF0EAFA4DF090F8F3
:10344000B0EEC00AB4EE408AF1EE10FA0BF1010BB7
:1034500043F6982348BFB0EE408A9B4502D10D4BFE
:103460003B6044E0BBF57A6F3ADD68EE0D7AF4EE2E
:10347000C07AF1EE10FA02DD4FF0404207E06DEE47
:103480008C7AF4EEEA7AF1EE10FA29DD084A3A6015
:103490009B462CE0000080BFABAA26446666663FD0
:1034A0000000484300007A443333333FCDCC8C3F97
:1034B000000040C000803B460000FA4300000000CE
:1034C0005077D63DE02E65420AD7A33C0000B4C237
:1034D000000020420000B44335FA8E3C0000C8438F
:1034E0005FED0C7AF4EEE78AF1EE10FA83DB42F23C
:1034F00010700AF08DFA43F698239B4572D01FEDA9
:10350000118A42F2107BB0EE48BAF0EE48AAF0EE13
:1035100048BAB0EE48CA57F02BFC3CEE00CA57F050
:103520001FFC7BEE80BA57F053FB7AEE80AA57F06F
:1035300047FB01203BEE00BA38EE2C8A0AF068FA0D
:103540004CF066FF10B9BBF1010BE4D18BEE880A99
:103550000446CCEE087ACAEE88BACBEE08AA20EE72
:10356000000AA7EEA70A60F0BBF9B0EE408A2AEE87
:10357000AA0AABEEAB0A60F0B3F95FED2F7A5FED0C
:10358000326AAAEE408A284668EEA78AC8EE287AF0
:10359000E9EEC07AC7ED007A85ED37AAC5ED359A18
:1035A0003B68C5F8E030D7ED007A67EEA77A86EE83
:1035B000A77A85ED397A4FF09BF941F288300AF00D
:1035C00027FA4CF0E5FE831E5842584156F0B8FFEA
:1035D0001FED460A57F024F832200AF019FA01E0EC
:1035E00087ED008A24F0C4F8F0EE40CA57F070FB73
:1035F000B0EE40DA002C40F003811FED508A1FED41
:1036000050EA1FED50CA4FF4FA630293B0EE48AA95
:10361000A346F0EE489AF0EE48BAF0EE488AB0EED3
:1036200048BAF0EE48AA57F05BFA60EE0EDA57F0AF
:1036300097F95FED5B7AB0EEC00AB4EEE70AF1EEFF
:1036400010FA00F1BD8057F093FB80EE2D0A3AEEA0
:1036500000AA57F0BDFBF0EE40DA57F0B1FBF0EEF8
:10366000400AB0EE6D0A5FF0A3FD5FED687AE0EE10
:103670000C7A08A8F7EE00DA17EE903A40F80C3D05
:103680000EF00EFF24F074F8F0EE6C0A5AF060FDB4
:10369000F1EE047AF0EEC0EAF4EEE7EAF1EE10FAA9
:1036A000B0EE40FA15DBF0EE4D0A9DED050A5AF03A
:1036B0004FFDF0EE40FA24F05BF8CFEE8F7A9DEDEF
:1036C00005DA78EEA78A7BEEADBA79EEAE9AF0EE27
:1036D00040CA5FED817AF4EEE79AF1EE10FA5FDB13
:1036E000F5EEC08AFFEE007AF1EE10FAB7EE000AAE
:1036F00048BFB0EE670A28EE800A80EE2B0A5FF022
:1037000017FBF0EE40EA24F033F8F5EEC08AF1EE54
:1037100010FA48BF5FED917ADDED050A48BF37EE3C
:10372000C00A20EE2E0A5AF013FD5FED957A07A924
:1037300020EE270A06A860F0BBF8DDED067A7AEEE7
:10374000A7AADDED077A3BEE27BA5FED9C7AF4EE8F
:10375000E79AF1EE10FA23DBBBF1000F1ED1229B9A
:103760006BB1F0EE4B0AB0EE6A0A5FF021FD229BCE
:1037700020EE0C0A184683ED000A0EF091FE239B02
:103780000BB1C3ED00EA249B43B1F5EEC08AF1EE24
:1037900010FA249A4CBF0123002313704FF0010B41
:1037A000012038EE2D8A0AF033F94CF031FE30B9A1
:1037B000029B013B02937FF436AF034601E00446CF
:1037C0002346039AB5EEC08AF1EE10FA82ED008A24
:1037D00007DDCAEE087A01990122CAED007A0A7063
:1037E00002E00022CAF80020D7ED007AF5EEC07A98
:1037F000F1EE10FA02DD019901220A702BB100E00E
:1038000023460022CAF800203A604946B0EE490A31
:10381000404601930FF03CFB4CF0EAFD4EF038F9C6
:10382000B7EE000A4CF04CFE30464FF061F82846E7
:103830005AF08EFB30465AF08BFB019B1C4600E091
:103840000024204609B0BDEC108BBDE8F08F2DE9B7
:10385000F04F2DED068B4FF0FF3389B01360B0EEC3
:10386000409ACDE9000193465AF042FB05465AF0D2
:103870003FFB04464CF094FD4FF43372014628465A
:1038800062F0A6F94FF433722946204662F0A0F99F
:10389000022385F88E30002385F83031B54BC5F80A
:1038A000B8304FF07E53C5F8BC3028464FF020F8B2
:1038B0004FF4FA764CF0ACFD20B164200AF0A8F881
:1038C000013EF7D14CF0A4FD0646A8BB42F21070B1
:1038D0000AF09EF80FF02CFB81460FF031FBF0EE62
:1038E000408A0FF035FB82460FF0EAFA31469FED31
:1038F000A20A4EF660200FF0CBFA06AF4CF070FD36
:1039000085F8546228464EF0F3FF0DF10E0138465B
:10391000B0EE490A58F0F4FA0646B8B1B0EE680ABB
:10392000514648460FF0B4FA4CF062FD4EF0B0F844
:10393000B7EE000A4CF0C4FD20464EF0D9FF2846F1
:103940005AF006FB20465AF003FB0CE14CF048FD10
:103950009DF80E200223002A00F09E8084F830316A
:1039600084F8546204F231123346F95C02F8011B08
:103970000133082BF9D1012358E00A2008F101088E
:103980000AF046F8B8F57A7F40F0908023F0F0FE18
:10399000DFED799AB0EE408A07EE907AB42FB8EE58
:1039A000E7AA40F0B08023F0E3FEF0EE400AB0EE6C
:1039B00040AAB0EE480A5AF0CBFBF0EE4A0AB0EE4D
:1039C000C08AB0EE690A5AF0C3FBF0EE007AB4EE9A
:1039D000E78AF1EE10FAB0EEC00A29DDF6EE007AC1
:1039E000A8EE670AF5EE007A28EE278AB4EEC80A38
:1039F000F1EE10FA1CD50DF10F0305AA04A9002061
:103A0000B0EE490A57F044FA0499C4F8C810059971
:103A1000C4F8D010012202239DF80F1084F854320C
:103A200084F8302184F8CC108DF80E20CBF80030CB
:103A30009DF80E3033B984F83031CBF800300123D3
:103A40008DF80E305146B0EE680A48460FF020FA65
:103A50004CF0CEFC4EF01CF8B7EE000A4CF030FDF6
:103A600020464EF045FF9DF80E30002B3FF467AF27
:103A7000009B3BB14CF08CFC831E594259412046BF
:103A8000FEF791FF019B002B3FF459AF0022214626
:103A90000E2046F025FD52E785F8543228464EF0B8
:103AA00027FFDFED369A9FED348AB0464CF0A8FC34
:103AB00007EE908AB8EEE70AF0EE480A20EE090A0F
:103AC00080EE290A4DF02CFF4CF0A2FC074600289E
:103AD0003FF453AF5146B0EE680A48460FF0D8F9AC
:103AE0004CF086FC4DF0D4FFB7EE000A4CF0E8FC39
:103AF00020464EF0FDFE28465AF02AFA20465AF09B
:103B000027FA3E462FE04CF07BFCF0EE4A0AB0EE7E
:103B1000490A4DF005FF4CF07BFC8046C0B1514690
:103B2000B0EE680A48460FF0B3F94CF061FC4DF076
:103B3000AFFFB7EE000A4CF0C3FC20464EF0D8FEB3
:103B400028465AF005FA20465AF002FA46460AE09C
:103B5000322009F05DFF5A2F03D123F009FEF0EE69
:103B6000409A013718E7304609B0BDEC068BBDE836
:103B7000F08F00BF6F12033A0000000000007A448B
:103B80009FED117AD0ED356AD0ED387A20EE070A34
:103B9000B7EE007A87EE006A90ED377A66EE866AB5
:103BA00026EE077A67EEA77AC0ED2E6ADFED076A88
:103BB00080ED2F7A86EEA77ADFED057A67EE277A19
:103BC000C0ED397A704700BFBD3786356F12833A32
:043BD0000024744910
:10C0000072B6334880F3098840F20000CCF2000099
:10C010004EF63471CEF200010860BFF34F8FBFF3CC
:10C020006F8F40F20000C0F2F0004EF68851CEF261
:10C0300000010860BFF34F8FBFF36F8F4FF0000018
:10C04000E1EE100A4EF63C71CEF2000108600620C7
:10C0500080F31488BFF36F8F01F06AF90BF008FAD0
:10C060004FF055301B491C4A91423CBF41F8040B2C
:10C07000FAE71A49164A91423CBF41F8040BFAE725
:10C080001749184A184B9A423EBF51F8040B42F820
:10C09000040BF8E700201549154A91423CBF41F8CE
:10C0A000040BFAE701F04CF9124C134DAC4203DAE1
:10C0B00054F8041B8847F9E706F01AF80F4C104DA6
:10C0C000AC4203DA54F8041B8847F9E701F040B9A1
:10C0D00000100020000000200008002000080020C0
:10C0E000D8650708001000202C1800203018002008
:10C0F00030AB012000C0000800C0000800C00008EC
:10C1000000C0000800000000000000000000000067
:10C110002DE9F04F2DED108AC1F80CD0D0F80CD0DD
:10C12000BDEC108ABDE8F08F62B62846A04700201B
:10C1300001F09EFC01F08CFB4EF60453CEF200039E
:10C140004FF080521A6062B6FEE700000000000067
:10C1500081F0004102E000BF83F0004330B54FEAB8
:10C1600041044FEA430594EA050F08BF90EA020F25
:10C170001FBF54EA000C55EA020C7FEA645C7FEAB8
:10C18000655C00F0E2804FEA5454D4EB5555B8BFDB
:10C190006D420CDD2C4480EA020281EA030382EA4C
:10C1A000000083EA010180EA020281EA0303362DDE
:10C1B00088BF30BD11F0004F4FEA01314FF4801CB1
:10C1C0004CEA113102D0404261EB410113F0004FC3
:10C1D0004FEA03334CEA133302D0524263EB43037A
:10C1E00094EA050F00F0A780A4F10104D5F1200E18
:10C1F0000DDB02FA0EFC22FA05F2801841F1000173
:10C2000003FA0EF2801843FA05F359410EE0A5F146
:10C2100020050EF1200E012A03FA0EFC28BF4CF077
:10C22000020C43FA05F3C01851EBE37101F000452D
:10C2300007D54FF0000EDCF1000C7EEB00006EEB3A
:10C240000101B1F5801F1BD3B1F5001F0CD34908C4
:10C250005FEA30004FEA3C0C04F101044FEA44521B
:10C2600012F5800F80F09A80BCF1004F08BF5FEAA2
:10C27000500C50F1000041EB045141EA050130BD82
:10C280005FEA4C0C404141EB010111F4801FA4F125
:10C290000104E9D191F0000F04BF01460020B1FA7A
:10C2A00081F308BF2033A3F10B03B3F120020CDAB2
:10C2B0000C3208DD02F1140CC2F10C0201FA0CF090
:10C2C00021FA02F10CE002F11402D8BFC2F1200CF5
:10C2D00001FA02F120FA0CFCDCBF41EA0C019040AB
:10C2E000E41AA2BF01EB0451294330BD6FEA0404F4
:10C2F0001F3C1CDA0C340EDC04F11404C4F12002DF
:10C3000020FA04F001FA02F340EA030021FA04F3F0
:10C3100045EA030130BDC4F10C04C4F1200220FA47
:10C3200002F001FA04F340EA0300294630BD21FA85
:10C3300004F0294630BD94F0000F83F4801306BF4B
:10C3400081F480110134013D4EE77FEA645C18BF3F
:10C350007FEA655C29D094EA050F08BF90EA020FD6
:10C3600005D054EA000C04BF1946104630BD91EACE
:10C37000030F1EBF0021002030BD5FEA545C05D1D1
:10C380004000494128BF41F0004130BD14F5800410
:10C390003CBF01F5801130BD01F0004545F0FE4184
:10C3A00041F470014FF0000030BD7FEA645C1ABFB9
:10C3B000194610467FEA655C1CBF0B46024650EAF0
:10C3C000013406BF52EA033591EA030F41F400211C
:10C3D00030BD00BF90F0000F04BF0021704730B5A2
:10C3E0004FF4806404F132044FF000054FF0000177
:10C3F00050E700BF90F0000F04BF0021704730B538
:10C400004FF4806404F1320410F0004548BF40420C
:10C410004FF000013EE700BF42004FEAE2014FEA61
:10C4200031014FEA02701FBF12F07F4393F07F4F3C
:10C4300081F06051704732F07F4208BF704793F03F
:10C440007F4F04BF41F40021704730B54FF4607452
:10C4500001F0004521F000411CE700BF50EA010255
:10C4600008BF704730B54FF000050AE050EA0102FE
:10C4700008BF704730B511F0004502D5404261EB6E
:10C4800041014FF4806404F132045FEA915C3FF4AF
:10C49000D8AE4FF003025FEADC0C18BF03325FEA4C
:10C4A000DC0C18BF033202EBDC02C2F1200300FAFD
:10C4B00003FC20FA02F001FA03FE40EA0E0021FA22
:10C4C00002F11444BDE600BF0000000000000000BF
:10C4D00070B54FF0FF0C4CF4E06C1CEA11541DBF1A
:10C4E0001CEA135594EA0C0F95EA0C0F00F0DEF8E5
:10C4F0002C4481EA030621EA4C5123EA4C5350EACA
:10C50000013518BF52EA033541F4801143F480131A
:10C5100038D0A0FB02CE4FF00005E1FB02E506F0AB
:10C520000042E0FB03E54FF00006E1FB03569CF000
:10C53000000F18BF4EF0010EA4F1FF04B6F5007F06
:10C5400064F5407404D25FEA4E0E6D4146EB060678
:10C5500042EAC62141EA55514FEAC52040EA5E5001
:10C560004FEACE2EB4F1FD0C88BFBCF5E06F1ED8AB
:10C57000BEF1004F08BF5FEA500E50F1000041EBE2
:10C58000045170BD06F0004646EA010140EA02008F
:10C5900081EA0301B4EB5C04C2BFD4EB0C0541EAB1
:10C5A000045170BD41F480114FF0000E013C00F3C6
:10C5B000AB8014F1360FDEBF002001F0004170BDEA
:10C5C000C4F10004203C35DA0C341BDC04F1140403
:10C5D000C4F1200500FA05F320FA04F001FA05F28F
:10C5E00040EA020001F0004221F0004110EBD3705C
:10C5F00021FA04F642EB06015EEA430E08BF20EA88
:10C60000D37070BDC4F10C04C4F1200500FA04F32A
:10C6100020FA05F001FA04F240EA020001F00041BC
:10C6200010EBD37041F100015EEA430E08BF20EA2F
:10C63000D37070BDC4F1200500FA05F24EEA020E77
:10C6400020FA04F301FA05F243EA020321FA04F0A6
:10C6500001F0004121FA04F220EA020000EBD3705D
:10C660005EEA430E08BF20EAD37070BD94F0000F5D
:10C670000FD101F00046400041EB010111F4801F91
:10C6800008BF013CF7D041EA060195F0000F18BF42
:10C69000704703F00046520043EB030313F4801F7E
:10C6A00008BF013DF7D043EA0603704794EA0C0F38
:10C6B0000CEA135518BF95EA0C0F0CD050EA41064E
:10C6C00018BF52EA4306D1D181EA030101F00041CB
:10C6D0004FF0000070BD50EA410606BF10461946F3
:10C6E00052EA430619D094EA0C0F02D150EA0136FF
:10C6F00013D195EA0C0F05D152EA03361CBF104640
:10C7000019460AD181EA030101F0004141F0FE41DE
:10C7100041F470014FF0000070BD41F0FE4141F462
:10C72000780170BD70B54FF0FF0C4CF4E06C1CEA62
:10C7300011541DBF1CEA135594EA0C0F95EA0C0F17
:10C7400000F0A7F8A4EB050481EA030E52EA0335D2
:10C750004FEA013100F088804FEA03334FF08055F3
:10C7600045EA131343EA12634FEA022245EA111520
:10C7700045EA10654FEA00260EF000419D4208BFD1
:10C78000964244F1FD0404F5407402D25B084FEA7E
:10C790003202B61A65EB03055B084FEA32024FF42A
:10C7A00080104FF4002CB6EB020E75EB030E22BF87
:10C7B000B61A754640EA0C005B084FEA3202B6EB47
:10C7C000020E75EB030E22BFB61A754640EA5C00F6
:10C7D0005B084FEA3202B6EB020E75EB030E22BF86
:10C7E000B61A754640EA9C005B084FEA3202B6EB87
:10C7F000020E75EB030E22BFB61A754640EADC0046
:10C8000055EA060E18D04FEA051545EA16754FEAA7
:10C8100006164FEAC30343EA52734FEAC2025FEAC5
:10C820001C1CC0D111F4801F0BD141EA00014FF054
:10C8300000004FF0004CB6E711F4801F04BF014325
:10C840000020B4F1FD0C88BFBCF5E06F3FF6AFAE41
:10C85000B5EB030C04BFB6EB020C5FEA500C50F1D1
:10C86000000041EB045170BD0EF0004E4EEA113154
:10C8700014EB5C04C2BFD4EB0C0541EA045170BD5B
:10C8800041F480114FF0000E013C90E645EA060E9F
:10C890008DE60CEA135594EA0C0F08BF95EA0C0FCD
:10C8A0003FF43BAF94EA0C0F0AD150EA01347FF415
:10C8B00034AF95EA0C0F7FF425AF104619462CE7EC
:10C8C00095EA0C0F06D152EA03353FF4FDAE10464F
:10C8D000194622E750EA410618BF52EA43067FF4A0
:10C8E000C5AE50EA41047FF40DAF52EA43057FF430
:10C8F000EBAE12E7000000000000000000000000A6
:10C900004FF0FF3C06E000BF4FF0010C02E000BF1B
:10C910004FF0010C4DF804CD4FEA410C7FEA6C5CFE
:10C920004FEA430C18BF7FEA6C5C1BD001B050EAA1
:10C93000410C0CBF52EA430C91EA030F02BF90EA8C
:10C94000020F0020704710F1000F91EA030F58BF4B
:10C95000994208BF90422CBFD8176FEAE37040F0AD
:10C96000010070474FEA410C7FEA6C5C02D150EA4B
:10C97000013C07D14FEA430C7FEA6C5CD6D152EA06
:10C98000033CD3D05DF8040B704700BF84461046CB
:10C9900062468C461946634600E000BF01B5FFF7CA
:10C9A000B7FF002848BF10F1000F01BD4DF808ED9A
:10C9B000FFF7F4FF0CBF012000205DF808FB00BF6B
:10C9C0004DF808EDFFF7EAFF34BF012000205DF8C5
:10C9D00008FB00BF4DF808EDFFF7E0FF94BF012012
:10C9E00000205DF808FB00BF4DF808EDFFF7CEFF13
:10C9F00094BF012000205DF808FB00BF4DF808ED52
:10CA0000FFF7C4FF34BF012000205DF808FB00BF22
:10CA10004FEA410C7FEA6C5C02D150EA013C0AD13A
:10CA20004FEA430C7FEA6C5C02D152EA033C02D12C
:10CA30004FF0000070474FF0010070470000000009
:10CA40004FEA410212F5001215D211D56FF4787336
:10CA5000B3EB625212D94FEAC12343F0004343EAD9
:10CA6000505311F0004F23FA02F018BF40427047B4
:10CA70004FF00000704750EA013005D111F000403E
:10CA800008BF6FF0004070474FF00000704700BFD4
:10CA90004A0011D212F5001211D20DD56FF478733D
:10CAA000B3EB62520ED44FEAC12343F0004343EA92
:10CAB000505323FA02F070474FF00000704750EADD
:10CAC000013002D14FF0FF3070474FF00000704747
:10CAD0004FEA4102B2F1E04324BFB3F5001CDCF1A0
:10CAE000FE5C0DD901F0004C4FEAC0024CEA5070D8
:10CAF000B2F1004F40EB830008BF20F00100704707
:10CB000011F0804F21D113F13872BCBF01F0004009
:10CB1000704741F480114FEA5252C2F11802C2F13B
:10CB2000200C10FA0CF320FA02F018BF40F00100BC
:10CB30004FEAC1234FEAD32303FA0CFC40EA0C006E
:10CB400023FA02F34FEA4303CCE77FEA625307D1AB
:10CB500050EA01331EBF4FF0FE4040F440007047E2
:10CB600001F0004040F0FE4040F40000704700BF7C
:10CB700080F0004002E000BF81F0004142001FBF92
:10CB80005FEA410392EA030F7FEA226C7FEA236C9B
:10CB90006AD04FEA1262D2EB1363C1BFD218414090
:10CBA00048404140B8BF5B42192B88BF704710F026
:10CBB000004F40F4000020F07F4018BF404211F0C9
:10CBC000004F41F4000121F07F4118BF494292EA31
:10CBD000030F3FD0A2F1010241FA03FC10EB0C005D
:10CBE000C3F1200301FA03F100F0004302D54942EA
:10CBF00060EB4000B0F5000F13D3B0F1807F06D397
:10CC000040084FEA310102F10102FE2A51D2B1F18E
:10CC1000004F40EBC25008BF20F0010040EA030083
:10CC20007047490040EB000010F4000FA2F1010230
:10CC3000EDD1B0FA80FCACF1080CB2EB0C0200FABA
:10CC40000CF0AABF00EBC25052421843BCBFD04008
:10CC50001843704792F0000F81F4000106BF80F482
:10CC600000000132013BB5E74FEA41037FEA226C45
:10CC700018BF7FEA236C21D092EA030F04D092F010
:10CC8000000F08BF0846704790EA010F1CBF002044
:10CC9000704712F07F4F04D1400028BF40F00040A1
:10CCA000704712F100723CBF00F50000704700F0C1
:10CCB000004343F0FE4040F4000070477FEA2262E8
:10CCC00016BF08467FEA23630146420206BF5FEAB9
:10CCD000412390EA010F40F4800070474FF00003B9
:10CCE00004E000BF10F0004348BF40425FEA000C80
:10CCF00008BF704743F0964301464FF000001CE028
:10CD000050EA010208BF70474FF000030AE000BF7D
:10CD100050EA010208BF704711F0004302D54042BB
:10CD200061EB41015FEA010C02BF8446014600202D
:10CD300043F0B64308BFA3F18053A3F50003BCFA48
:10CD40008CF2083AA3EBC25310DB01FA02FC6344F5
:10CD500000FA02FCC2F12002BCF1004F20FA02F2FC
:10CD600043EB020008BF20F00100704702F12002EF
:10CD700001FA02FCC2F1200250EA4C0021FA02F250
:10CD800043EB020008BF20EADC707047000000009F
:10CD90007BB972B90029BEBF00204FF0004106E008
:10CDA00008BF00281CBF6FF000414FF0FF3000F0BB
:10CDB0003FBAADF1080C6DE904CE002909DB002B68
:10CDC0001ADB00F0CDF8DDF804E0DDE9022304B061
:10CDD0007047404261EB4101002B1BDB00F0C0F8C3
:10CDE000DDF804E0DDE9022304B0404261EB4101DB
:10CDF000524263EB43037047524263EB430300F03C
:10CE0000AFF8DDF804E0DDE9022304B0404261EB55
:10CE100041017047524263EB430300F0A1F8DDF893
:10CE200004E0DDE9022304B0524263EB43037047A0
:10CE300053B94AB9002908BF00281CBF4FF0FF3181
:10CE40004FF0FF3000F0F4B9ADF1080C6DE904CEFD
:10CE500000F086F8DDF804E0DDE9022304B0704755
:10CE600007EE900AF5EEC07AF1EE10FA01D400F068
:10CE700027B808B580F0004000F022F8404261EB8E
:10CE8000410108BD0000000000000000000000009B
:10CE900038B50022002304460D46FFF791FD28B95E
:10CEA00020462946BDE8384000F032B8204605F15A
:10CEB000004100F02DF8404261EB410138BD00BF58
:10CEC000D0B5FFF7A9FA00220D4B06460F46FFF733
:10CED000FFFAFFF7DDFD0446FFF77CFA0022094B5D
:10CEE000FFF7F6FA02460B4630463946FFF734F9AB
:10CEF000FFF7CEFD0022234610431946D0BD00BFE8
:10CF00000000F03D0000F0410000000000000000C3
:10CF1000D0B500220D4B06460F46FFF7D9FAFFF7B2
:10CF2000B7FD0446FFF756FA0022094BFFF7D0FA87
:10CF300002460B4630463946FFF70EF9FFF7A8FDCB
:10CF40000022234610431946D0BD00BF0000F03D2B
:10CF50000000F041000000000000000000000000A0
:10CF60002DE9F047089E04468846002B4BD18A42A3
:10CF7000154667D9B2FA82F24AB1C2F1200701FA26
:10CF800002F320FA07F7954047EA030894404FEA76
:10CF9000154E230CB8FBFEF71FFA85FC0EFB178815
:10CFA00043EA084307FB0CF1994209D9EB1807F152
:10CFB000FF3080F01B81994240F21881023F2B44E0
:10CFC0005B1AA4B2B3FBFEF00EFB103344EA034439
:10CFD00000FB0CFCA44509D92C1900F1FF3380F0AB
:10CFE0000781A44540F2048102382C4440EA0740FE
:10CFF000A4EB0C0400271EB1D4400023C6E9004373
:10D000003946BDE8F0878B4209D9002E00F0EB804D
:10D010000027C6E9000138463946BDE8F087B3FA73
:10D0200083F7002F47D18B4202D3824200F2FA806D
:10D03000841A61EB030301209846002EE0D0C6E974
:10D040000048DDE702B9FFDEB2FA82F2002A40F0C2
:10D050008F80491B4FEA154E1FFA85F80127B1FB57
:10D06000FEFC230C0EFB1C1143EA014308FB0CF1F0
:10D07000994207D9EB180CF1FF3002D2994200F225
:10D08000CD808446591AA3B2B1FBFEF00EFB1014FA
:10D0900043EA044408FB00F8A04507D92C1900F125
:10D0A000FF3302D2A04500F2B6801846A4EB080474
:10D0B00040EA0C409FE7C7F1200CBB4022FA0CFE6F
:10D0C0004EEA030E01FA07F420FA0CF521FA0CF3EC
:10D0D0004FEA1E482543B3FBF8F92C0C08FB193323
:10D0E0001FFA8EFA44EA034309FB0AF49C4202FA4F
:10D0F00007F200FA07F10BD91EEB030309F1FF3029
:10D1000080F087809C4240F28480A9F10209734438
:10D110001B1BADB2B3FBF8F008FB103345EA034428
:10D1200000FB0AFAA24508D91EEB040400F1FF3304
:10D130006BD2A24569D90238744440EA0940A0FB89
:10D140000289A4EB0A044C45C2464B4654D351D045
:10D15000002E69D0B1EB0A0564EB030404FA0CFC61
:10D16000FD40FC404CEA0505C6E90054002747E7AE
:10D17000C2F1200320FA03F7954001FA02F021FAE8
:10D1800003F34FEA154E3843010CB3FBFEF71FFAC9
:10D1900085F80EFB173341EA034107FB08F38B4286
:10D1A00004FA02F407D9691807F1FF3C2FD28B4229
:10D1B0002DD9023F2944CB1A81B2B3FBFEF00EFBFE
:10D1C000103341EA034100FB08F38B4207D9691889
:10D1D00000F1FF3C17D28B4215D902382944C91AF5
:10D1E00040EA07473BE73746304609E70746E7E6A8
:10D1F0001846FBE64145ABD2B8EB020A69EB0E02DA
:10D2000001381346A4E76046E9E7184695E7674604
:10D21000D1E781467CE702382C4447E7ACF1020CA9
:10D220002B442FE7384608E73746E9E600000000C0
:10D23000704700BF00000000000000000000000078
:10D24000EC46A0E8F05F4FF000007047B0E8F05FF8
:10D25000E546080008BF0120704700BF000000003D
:10D2600010F8012B11F8013B012A28BF9A42F7D090
:10D27000D01A70470000000000000000000000000D
:10D28000034613F8012B002AFBD1181A0138704706
:10D2900001F0FF01102A2BDB10F0070F08D010F867
:10D2A000013B013A8B422DD010F0070F42B3F6D16B
:10D2B000F0B441EA012141EA014122F007047FF084
:10D2C00000070023F0E80256083C85EA010586EADB
:10D2D000010685FA47F5A3FA87F586FA47F6A5FA17
:10D2E00087F68EB9EED1F0BC01F0FF0102F0070223
:10D2F00032B110F8013B013A83EA010313B1F8D1CE
:10D300000020704701387047002D06BF35460338AE
:10D31000073815F0010F07D1013015F4807F02BFE7
:10D32000013015F4C03F0130F0BC0138704700BF38
:10D33000704700BF00000000000000000000000077
:10D34000704700BF00000000000000000000000067
:10D35000FEE700BF00000000000000000000000029
:10D36000FEE700BF00000000000000000000000019
:10D37000FEE700BF00000000000000000000000009
:10D380001F4B204A204830B500249C60D9684FF6D6
:10D39000FF0529400A43DA60C2681C491C4D42F06F
:10D3A0008072C2600A6842F0010283B00A6083F8AA
:10D3B000224000F00DF900F08BF800F019FC00F0AD
:10D3C00097FF00F0D5FF2846402100F051FAA5F163
:10D3D0003003104AC2610122986180F8202062B6B1
:10D3E0009B690D49996105F1580000940B4B4FF46E
:10D3F000F07100F09DFA0A4B836103B030BD00BFAD
:10D4000000ED00E00003FA05F0ED00E0001000E0A0
:10D410006018002000080020A0A9060871D30008A9
:10D4200080A90608000000000000000000000000C5
:10D4300008B5044672B604F0F3FE014BDC62FEE769
:10D440003018002000000000000000000000000074
:10D4500070B5124CA26992F8233013B1013B82F8E7
:10D460002330516AE3690E4E01315162A26AB34220
:10D4700002F10102A26210D09D68013D9D6065B974
:10D480001A68D968DD605660E26162B6186988473B
:10D4900072B6E3699A68002AF2D070BD3018002095
:10D4A0004C180020000000000000000000000000F8
:10D4B000034A516853685B1A9842FBD8704700BF13
:10D4C000001000E00000000000000000000000006C
:10D4D000054B4FF0FF30002103F11C0258629962A6
:10D4E000C3E90722704700BF301800200000000089
:10D4F00030B40D4DEC690361A368C260994204D950
:10D500002468C91AA3688B42FAD36368C0E9004350
:10D51000186060608160A3684FF0FF32591AA16003
:10D520006A6230BC704700BF301800200000000065
:10D53000036841689A6830B48568064C2A449A604A
:10D540000B60056800224FF0FF336960C2606362C0
:10D5500030BC7047301800200000000000000000C0
:10D5600072B690F82030072B0ED8DFE803F0270DB5
:10D570000D2308040D08826A936801339360D0E993
:10D5800000231A600268536010B400224FF0FF3489
:10D5900081680B4B846280F820201B689A688A425D
:10D5A000FBD25A68C0E900321060586062B65DF87C
:10D5B000044B7047836A00221A60E5E762B6704741
:10D5C00030180020000000000000000000000000F3
:10D5D000034B0022C3E90033C3E904339A60704768
:10D5E00030180020000000000000000000000000D3
:10D5F00001460022074B806881F820201B689A684A
:10D600008242FBD25A680846C1E900321160596073
:10D61000704700BF3018002000000000000000002C
:10D6200038B50F4CA569236885F82000042285F8D9
:10D6300023201A68226001215460A36183F820101E
:10D64000EFF30982E969643A914203D90548FFF78B
:10D65000EFFEA36929461846BDE83840FEF758BDDD
:10D660003018002090A9060800000000000000000B
:10D6700030B54B1C87B012D00C4C0D4AA36905463F
:10D6800001A8FFF735FF2846FFF7CAFF049B13B137
:10D6900001A8FFF74DFFA369986A07B030BD034C9E
:10D6A000FFF7BEFFA369986A07B030BD30180020AD
:10D6B00061D500080000000000000000000000002C
:10D6C0001D4B70B59D698668AC688162A6424FF0BB
:10D6D00000020BD880F820201B689A689642FBD97C
:10D6E0005A68C0E900321060586070BD85F820208B
:10D6F0001A46126891688C42FBD9516869600446E9
:10D7000001202A600D6055609C6184F82000EFF3D1
:10D710000983EA69643B9A4205D829462046BDE858
:10D720007040FEF7F5BC0548FFF782FE294620460B
:10D73000BDE87040FEF7ECBC3018002090A9060848
:10D74000084A9369116893F8232088689B6822B976
:10D75000984234BF002001207047984294BF0020B7
:10D760000120704730180020000000000000000079
:10D77000154B1A6870B510689C691860A168436001
:10D780001D4601269A610420002382F8206084F857
:10D79000203084F823002B461B689A689142FBD9FD
:10D7A0005A68C4E9003214605C60EFF30983E269EF
:10D7B000643B9A4202D90548FFF73AFE2146A86920
:10D7C000BDE87040FEF7A4BC3018002090A9060800
:10D7D000134B1A6870B510689C691860A1684360A3
:10D7E0000126002082F820601D469A6184F82000FE
:10D7F0001B689A689142FBD35A68C4E900321460EE
:10D800005C60EFF30983E269643B9A4202D9054800
:10D81000FFF70EFE2146A869BDE87040FEF778BC10
:10D820003018002090A90608000000000000000049
:10D83000044B1A689B6992689B689A4200D87047AB
:10D84000FFF7C6BF301800200000000000000000F5
:10D85000044B9B6993F823300BB1FFF7B9BFFFF777
:10D8600087BF00BF3018002000000000000000004B
:10D8700070B4114C41646569816002220421028404
:10D8800080F823100022012145610461C0E90F22C4
:10D890004262826100F12C0680F8221000F1300211
:10D8A000286100F150056061C662C561C164C0E9CC
:10D8B0000C2270BC704700BF301800200000000030
:10D8C000884203D200F8012B8142FBD1704700BF90
:10D8D000F0B4154E049D776964390144C160C1E913
:10D8E0001035124B0B66022304210384002382604F
:10D8F000426400F12C0580F823100122C0E90F33A7
:10D900004362836100F1500100F13003C0E9046714
:10D9100080F822203861C5627061C264C161C0E9CB
:10D920000C33F0BC704700BF3018002029C100083C
:10D93000F8B5064600F15005FF2400F8014B85427A
:10D94000FBD17518854206D904464FF0550C04F8F2
:10D9500001CBA542FBD172B664393144154C164F48
:10D960006569F1600B64069B4B6404230F664FF0FE
:10D97000020CB2600021726486F82330012206F1A5
:10D98000300306F12C07C6E90445A6F820C0C6E915
:10D990000F117162B16186F822202E61F061F76289
:10D9A000F264C6E90C3330466661FFF789FE62B661
:10D9B0003046F8BD3018002029C1000800000000E2
:10D9C00010B572B6074B9B695C6C9968A14201D097
:10D9D000814200D298605864FFF72AFF62B6204661
:10D9E00010BD00BF30180020000000000000000043
:10D9F00072B690F8213043F0040380F8213062B60B
:10DA0000704700BF000000000000000000000000A0
:10DA100008B5014672B60820FFF72AFE62B608BDB7
:10DA200038B50F4B9C69E36AA06204F12C05AB4248
:10DA300007D01A68E2621846FFF7DAFDE36AAB42E4
:10DA4000F7D194F821309B0704D1D4E904231A615B
:10DA5000226953610F20BDE83840FFF7E1BD00BFE8
:10DA6000301800200000000000000000000000004E
:10DA700072B6FFF7D5BF00BF000000000000000035
:10DA800038B5044672B690F820300F2B07D0074BFC
:10DA9000C26A9B6909201A60E362FFF7C1FDA56AAB
:10DAA00062B6204600F0C4F8284638BD3018002081
:10DAB00010B5054CA369036002469A620320FFF784
:10DAC000AFFDA369986A10BD301800200000000067
:10DAD000054B02469B6921B1036003209A62FFF760
:10DAE000C7BD4FF0FF307047301800200000000025
:10DAF00003682BB10022026018469962FFF778BDD7
:10DB0000704700BF0000000000000000000000009F
:10DB100069B1084B10B4024644689B690420C3E90C
:10DB20000024236053605DF8044BFFF7A1BD4FF064
:10DB3000FF30704730180020000000000000000097
:10DB4000026890420AD010B414680460034663600F
:10DB5000104691625DF8044BFFF74ABD704700BF65
:10DB600038B5036898420BD004460D461A68226007
:10DB7000184654609D62FFF73BFD23689C42F5D137
:10DB800038BD00BF000000000000000000000000E1
:10DB9000014B5B6883607047001000E000000000EC
:10DBA0000E4B0F4A5B68C168F0B48468D2F880609D
:10DBB00042681B1BD0E904459B1BE61845F1000792
:10DBC0009342026888BF436001319342C0E9046711
:10DBD000C0E9023138BF0360F0BC7047001000E0BC
:10DBE00030180020000000000000000000000000CD
:10DBF00010B50D4C86B000234FF0FF31002268466F
:10DC0000C4F88030CDE9013303930023CDE9042328
:10DC10000091FFF7BDFF6846FFF7C2FF029BC4F803
:10DC2000803006B010BD00BF30180020000000009A
:10DC3000014672B690F82230013BDBB280F8223008
:10DC400062B61BB990F820300F2B00D0704790F8C7
:10DC5000213003F00303012B02D0022B07D07047C1
:10DC6000D0E904231A610269536100F091BBD0E945
:10DC700004231A610269806C536100F0F9BB00BF94
:10DC800072B6044B186990F82230013380F82230C4
:10DC900062B670473018002000000000000000004D
:10DCA00010B572B6074B04699C421DBF94F8223030
:10DCB000013384F82230002462B6FFF7B9FF204612
:10DCC00010BD00BF30180020000000000000000060
:10DCD000C0E9000081607047000000000000000003
:10DCE00070B5856881600135002D0CDC04466FF04D
:10DCF00001066068436863601C60FFF779FC0135CA
:10DD0000012D8662F5D170BD00000000000000000A
:10DD100008B572B6FFF7E4FFFFF78AFD62B608BDEB
:10DD200072B68368013B002B836002DB002062B681
:10DD3000704710B5074C4168A26903469362C2E977
:10DD4000003105200A605A60FFF76AFCA369986AEF
:10DD500062B610BD30180020000000000000000076
:10DD600072B68268531E002B836002DB002062B60D
:10DD7000704710B569B1094A4468926903469362D5
:10DD8000C2E90034052022605A60FFF771FC62B6D8
:10DD900010BD82604FF0FF30F9E700BF301800205F
:10DDA00008B572B683680133002B836001DD62B66B
:10DDB00008BD0346006802681A6000215360FFF73F
:10DDC0007FFC62B608BD00BF00000000000000003C
:10DDD0000023C0E900008360704700BF000000001E
:10DDE000F8B5374A83689569002B40D0A9689A68CE
:10DDF0009142044607D993F820209960062A3BD027
:10DE0000072A15D042B32646234603E09968AA683C
:10DE100091422AD31B689C42F8D173680620C5E959
:10DE200000631D607560AC62BDE8F840FFF7F8BBA9
:10DE3000D3E9000210609E6A18684260324602E030
:10DE40009068884232D312689642F9D17268C3E969
:10DE5000006213607360D6E7D3E90012116019689D
:10DE600018464A60FFF7C4FBCDE71E46D5E72B6C8A
:10DE7000C0E902532864F8BDD3E9000210609E6A2D
:10DE8000186837464260324602E09068884214D3F0
:10DE900012689642F9D17A68A968C3E900721360E2
:10DEA0007B60B3689A688A42A5D3ACE7164672686D
:10DEB000C3E9006213607360A5E71746EBE700BF94
:10DEC00030180020000000000000000000000000EA
:10DED00008B572B6FFF784FF62B608BD0000000007
:10DEE000144B70B59D6972B60468C3682B64844294
:10DEF0001BD0696C4BB11A68934203D0926891426F
